:020000040800F2
:10000000501500203D060008E90D0008F50D000818
:10001000FD0D0008050E00080D0E00080000000090
:10002000000000000000000000000000150E0008A5
:10003000210E0008000000002D0E0008111000081D
:10004000BD060008BD060008BD060008BD06000884
:10005000BD060008BD060008690F0008BD060008BF
:10006000BD060008BD060008BD060008BD06000864
:10007000BD060008BD060008BD060008BD06000854
:10008000BD060008BD060008BD060008BD06000844
:10009000BD060008BD060008BD060008BD06000834
:1000A000BD060008BD060008BD060008BD06000824
:1000B000BD060008BD060008BD060008BD06000814
:1000C000BD060008BD060008BD060008BD06000804
:1000D000BD060008390E0008BD060008BD06000870
:1000E000BD060008BD060008BD060008BD060008E4
:1000F000BD060008BD060008BD060008BD060008D4
:10010000BD060008BD060008BD060008BD060008C3
:10011000BD060008BD060008BD060008BD060008B3
:10012000BD060008BD060008BD060008BD060008A3
:10013000BD060008BD060008BD060008BD06000893
:10014000BD060008BD060008BD060008BD06000883
:10015000BD060008BD060008BD060008BD06000873
:10016000BD060008BD060008BD060008BD06000863
:10017000BD060008BD060008BD060008BD06000853
:10018000BD060008BD06000890B484B000AF02466A
:100190000B46FA71BB714FF00003FB60BB7903F0B3
:1001A00003034FEA83034FF00F0202FA03F3FB60ED
:1001B0004FF46053C4F20103BA794FEA9202D2B20B
:1001C00010464FF46052C4F20102B9794FEA91012E
:1001D000C9B201F1020152F82110FA686FEA020275
:1001E000114000F1020243F822104FF46053C4F2B0
:1001F0000103BA794FEA9202D2B210464FF460522C
:10020000C4F20102B9794FEA9101C9B201F10201C8
:1002100052F82110FC79BA7902F003024FEA820207
:1002200004FA02F2114300F1020243F8221007F12E
:100230001007BD4690BC704780B582B000AF7860B3
:10024000396014E000BF7B681B889BB203F0400359
:10025000002BF8D03B681B78DBB27868194600F0B9
:1002600005F93B681B783B6803F101033B603B6881
:100270001B78DBB2002BE5D107F10807BD4680BD36
:1002800080B58AB000AF786039604FF000037B62C0
:100290004FF000033B624FF00003FB614FF000039F
:1002A000BB617B681B8A9BB27B627B6A23F44053F1
:1002B0007B623B68DB887A6A13437B627B6A9AB213
:1002C0007B681A827B689B899BB27B627B6A23F482
:1002D000B05323F00C037B623B689A883B681B8910
:1002E00013439AB23B685B8913439BB27A6A134308
:1002F0007B627B6A9AB27B689A817B689B8A9BB29D
:100300007B627B6A23F440737B623B689B897A6AD9
:1003100013437B627B6A9AB27B689A8207F1080377
:10032000184600F0B5FB7A684FF48053C4F201031D
:100330009A4206D07A684FF4A053C4F201039A425D
:1003400002D17B693B6201E03B693B627B689B8930
:100350009BB29BB21BB2002B0FDA3A6A13464FEAEC
:1003600083039B184FEA83029A183B681B684FEA85
:100370004303B2FBF3F3FB610EE03A6A13464FEA24
:1003800083039B184FEA83029A183B681B684FEA65
:100390008303B2FBF3F3FB61FA6948F21F53C5F222
:1003A000EB13A3FB02134FEA53134FEA03137B62D1
:1003B0007B6A4FEA13134FF0640202FB03F3FA69FE
:1003C000D31ABB617B689B899BB29BB21BB2002B8B
:1003D00012DABB694FEAC30303F1320248F21F533A
:1003E000C5F2EB13A3FB02134FEA531303F0070309
:1003F0007A6A13437B6211E0BB694FEA031303F18E
:10040000320248F21F53C5F2EB13A3FB02134FEA6B
:10041000531303F00F037A6A13437B627B6A9AB229
:100420007B681A8107F12807BD4680BD80B483B080
:1004300000AF78600B46FB70FB78002B08D07B6820
:100440009B899BB243F400539AB27B689A8107E080
:100450007B689B899BB223F400539AB27B689A8194
:1004600007F10C07BD4680BC704700BF80B483B065
:1004700000AF78600B467B807B884FEAC3534FEA1E
:10048000D3539AB27B689A8007F10C07BD4680BCB3
:10049000704700BF80B487B000AF786013460A464B
:1004A0007A807B704FF000033B614FF00003FB60EC
:1004B0004FF00003BB604FF000037B617B687B6102
:1004C0007B88DBB24FEA5313DBB23B617B8803F0DE
:1004D0001F03FB60FB684FF0010202FA03F3BB60ED
:1004E0003B69012B04D17B6903F10C037B610BE0B9
:1004F0003B69022B04D17B6903F110037B6103E0AC
:100500007B6903F114037B617B78002B06D07B6948
:100510007A691168BA680A431A6007E07B697A69E8
:100520001168BA686FEA02020A401A6007F11C07F4
:10053000BD4680BC704700BF80B485B000AF786016
:100540000B467B804FF00003FB737B681B889AB2DD
:100550007B8813409BB2002B03D04FF00103FB7349
:1005600002E04FF00003FB73FB7B184607F1140712
:10057000BD4680BC704700BF80B487B000AF7860D4
:100580000B467B804FF00003FB604FF000037B6164
:100590004FF00003BB604FF00003FB747B88DBB2BD
:1005A0004FEA5313DBB2BB607B8803F01F037B6110
:1005B0007B694FF0010202FA03F37B61BB68012BF8
:1005C00006D17B689B899BB27A6913407B610FE0FF
:1005D000BB68022B06D17B681B8A9BB27A691340E9
:1005E0007B6105E07B689B8A9BB27A6913407B61E3
:1005F0007B884FEA13239BB2FB60FB684FF001023C
:1006000002FA03F3FB607B681B889BB2FA68134015
:10061000FB607B69002B06D0FB68002B03D04FF0FA
:100620000103FB7402E04FF00003FB74FB7C1846EF
:1006300007F11C07BD4680BC704700BF80B582B083
:1006400000AF4AF61033C0F600037B6040F20003AF
:10065000C2F200033B600BE07B681A683B681A60DB
:100660003B6803F104033B607B6803F104037B6098
:100670003A6840F6D403C2F200039A42ECD30C4825
:100680000C494FF000028842B8BF40F8042BFFF637
:10069000FAAFDFF82400016841F47001016001F055
:1006A000E1F800F00FF807F10807BD4680BD000033
:1006B000D40800204C09002088ED00E080B400AF91
:1006C000FEE700BF80B584B000AF4FF00003FB60D1
:1006D0004FF00003FB6003E0FB6803F10103FB60E4
:1006E000FB681A4648F29F63C0F201039A42F3D9AD
:1006F00001F0CCFB01F00AF801F07AFA00F02CFED0
:1007000000F0CEFD4AF6BC00C0F6000003F0A4FEE7
:100710004FF48050C4F201004AF6C001C0F6000157
:10072000FFF78AFD02F068F901F0ACFF01F0BEFFAF
:100730000346012B0AD14FF48050C4F201004AF65F
:10074000E401C0F60001FFF777FD09E04FF48050A7
:10075000C4F201004AF61411C0F60001FFF76CFD67
:100760004FF48053C4F201034FF000029A803B46DD
:100770004FF000021A6003F104034FF000021A6008
:1007800003F104034FF000021A6003F104033B4637
:10079000184602F007F83A8940F6D403C2F2000383
:1007A0001A8040F62410C2F2000002F03DFB40F631
:1007B0002413C2F200034FF080421A6040F6241363
:1007C000C2F200034FF000025A6040F62413C2F256
:1007D00000034FF000029A606FF004004DF24011E8
:1007E000C0F20C0100F0FEFFFEE700BF80B400AFD6
:1007F0004FF46053C4F202034FF46052C4F2020299
:10080000126842F001021A604FF46053C4F202030E
:100810004FF000029A604FF46053C4F202034FF4A9
:100820006052C4F20202126822F0847222F4803212
:100830001A604FF46053C4F2020343F21002C2F292
:1008400000425A604FF46053C4F202034FF4605206
:10085000C4F20202126822F480221A604FF460533C
:10086000C4F202034FF00002DA60BD4680BC70475C
:1008700080B483B000AF0346FB7143F60203C4F2B9
:1008800002034FF000021A7043F60203C4F202039F
:10089000FA791A7007F10C07BD4680BC704700BF9B
:1008A00080B582B000AF4FF000033B604FF0000313
:1008B000FB714FF00003BB714FF0310000F04CFAB8
:1008C0000346BB713B6803F101033B603B68B3F532
:1008D000A06F02D0BB79002BEED04FF0310000F0BA
:1008E0003BFA0346002B03D04FF00103FB7102E0FB
:1008F0004FF00003FB71FB79184607F10807BD466E
:1009000080BD00BF80B485B000AFF860B9607A6088
:100910003B604FF46053C4F202037A684FEA8211DD
:10092000BA6811433A684FEA520202F1FF324FEAC5
:1009300002421143FA681143BA694FEA02620A435C
:100940005A6007F11407BD4680BC704780B483B07D
:1009500000AF0346FB714FF06003C4F24723FA79FE
:100960001A6007F10C07BD4680BC704780B485B0A3
:1009700000AF78604FF00003FB604FF46053C4F2A7
:1009800002039B68FB60FB6823F00303FB60FA68CB
:100990007B681343FB604FF46053C4F20203FA68B0
:1009A0009A6007F11407BD4680BC704780B400AF61
:1009B0004FF46053C4F202039B68DBB203F00C03F4
:1009C000DBB21846BD4680BC704700BF80B485B01E
:1009D00000AF78604FF00003FB604FF46053C4F247
:1009E00002039B68FB60FB6823F0F003FB60FA687E
:1009F0007B681343FB604FF46053C4F20203FA6850
:100A00009A6007F11407BD4680BC704780B485B07A
:100A100000AF78604FF00003FB604FF46053C4F206
:100A200002039B68FB60FB6823F4E053FB60FA68F9
:100A30007B681343FB604FF46053C4F20203FA680F
:100A40009A6007F11407BD4680BC704780B485B03A
:100A500000AF78604FF00003FB604FF46053C4F2C6
:100A600002039B68FB60FB6823F46043FB607B68C8
:100A70004FEAC303FA681343FB604FF46053C4F2B8
:100A80000203FA689A6007F11407BD4680BC7047FC
:100A900080B489B000AF78604FF00003BB614FF0C5
:100AA00000037B614FF00003FB614FF002033B61E9
:100AB0004FF00003FB604FF00203BB604FF4605344
:100AC000C4F202039B6803F00C03BB61BB69042BF7
:100AD0000AD0082B0FD0002B60D17A684FF4105346
:100AE000C0F2F403136060E07A684FF49053C0F2F0
:100AF0007A03136059E04FF46053C4F202035B6859
:100B000003F480034FEA9353FB604FF46053C4F245
:100B100002035B6803F03F03BB60FB68002B14D04B
:100B20004FF49053C0F27A03BA68B3FBF2F24FF479
:100B30006053C4F20203596847F6C0730B404FEA92
:100B4000931303FB02F3FB6113E04FF41053C0F265
:100B5000F403BA68B3FBF2F24FF46053C4F2020339
:100B6000596847F6C0730B404FEA931303FB02F337
:100B7000FB614FF46053C4F202035B6803F440333B
:100B80004FEA134303F101034FEA43033B61FA6960
:100B90003B69B2FBF3F27B681A6006E07A684FF4B7
:100BA0001053C0F2F403136000BF4FF46053C4F25B
:100BB00002039B6803F0F003BB61BB694FEA1313A8
:100BC000BB6140F20003C2F20003BA699B181B78B4
:100BD000DBB27B617B681A687B6922FA03F27B686F
:100BE0005A604FF46053C4F202039B6803F4E0536D
:100BF000BB61BB694FEA9323BB6140F20003C2F2C1
:100C00000003BA699B181B78DBB27B617B685A686A
:100C10007B6922FA03F27B689A604FF46053C4F256
:100C200002039B6803F46043BB61BB694FEA533323
:100C3000BB6140F20003C2F20003BA699B181B7843
:100C4000DBB27B617B685A687B6922FA03F27B68BE
:100C5000DA6007F12407BD4680BC704780B483B0DA
:100C600000AF78600B46FB70FB78002B0CD04FF484
:100C70006053C4F202034FF46052C4F20202116BDB
:100C80007A680A431A630DE04FF46053C4F202031A
:100C90004FF46052C4F20202116B7A686FEA0202EA
:100CA0000A401A6307F10C07BD4680BC704700BFBD
:100CB00080B483B000AF78600B46FB70FB78002BEC
:100CC0000CD04FF46053C4F202034FF46052C4F2EC
:100CD0000202116C7A680A431A640DE04FF4605303
:100CE000C4F202034FF46052C4F20202116C7A683B
:100CF0006FEA02020A401A6407F10C07BD4680BC85
:100D0000704700BF80B483B000AF78600B46FB70C3
:100D1000FB78002B0CD04FF46053C4F202034FF465
:100D20006052C4F20202516C7A680A435A640DE0C0
:100D30004FF46053C4F202034FF46052C4F2020253
:100D4000516C7A686FEA02020A405A6407F10C0794
:100D5000BD4680BC704700BF80B487B000AF03467B
:100D6000FB714FF00003FB604FF000037B614FF01D
:100D70000003FB74FB794FEA5313DBB2FB60FB68A3
:100D8000012B06D14FF46053C4F202031B687B6150
:100D90000FE0FB68022B06D14FF46053C4F202034C
:100DA0001B6F7B6105E04FF46053C4F202035B6F7D
:100DB0007B61FB7903F01F03FB60FB687A6922FA11
:100DC00003F303F00103002B03D04FF00103FB7486
:100DD00002E04FF00003FB74FB7C184607F11C0790
:100DE000BD4680BC704700BF80B400AFBD4680BC2C
:100DF000704700BF80B400AFFEE700BF80B400AF13
:100E0000FEE700BF80B400AFFEE700BF80B400AFD4
:100E1000FEE700BF80B400AFBD4680BC704700BF96
:100E200080B400AFBD4680BC704700BF80B400AF47
:100E3000BD4680BC704700BF80B582B000AF4FF4A4
:100E40008050C4F2010040F22551FFF795FB0346A4
:100E5000002B00F084804FF48053C4F201039B8880
:100E60009BB2FB71FB79212B3BD040F6E803C2F229
:100E700000031B78132B34D840F6E803C2F20003BA
:100E80001B781A4640F21003C2F20003F979995414
:100E900040F6E803C2F200031B7803F10103DAB263
:100EA00040F6E803C2F200031A7058E040F6E80387
:100EB000C2F200031B781A4640F21003C2F200038C
:100EC0004FF02001995440F6E803C2F200031B786A
:100ED00003F10103DAB240F6E803C2F200031A702C
:100EE00000E000BF40F6E803C2F200031B78142BB9
:100EF000DCD940F6E803C2F200034FF000021A709A
:100F000040F21003C2F200031B78DBB2732B0FD147
:100F100040F21003C2F200035B78DBB2742B07D1FE
:100F200040F6E403C2F200034FF001021A6016E03B
:100F300040F21003C2F200031B78DBB2732B0ED118
:100F400040F21003C2F200035B78DBB2702B06D1D3
:100F500040F6E403C2F200034FF000021A6007F10A
:100F60000807BD4680BD00BF80B586B000AF4FF01A
:100F70000000C4F202004FF0010100F0C3FA034682
:100F8000FB744FF47A737B6103E07B6903F1FF33F9
:100F90007B617B69002BF8D14FF00000C4F20200A6
:100FA0004FF0010100F0AEFA0346BB744FF00100B0
:100FB00001F090FA0346002B23D0FA7CBB7C9A42C6
:100FC0001FD1FB7C002B1CD14FF44060C4F2020007
:100FD0004FF4805100F0D0FA4AF63412C0F6000205
:100FE0003B4607CA03C31A703B46FB604FF4805070
:100FF000C4F20100F968FFF71FF94FF0010001F09A
:1010000095FA07F11807BD4680BD00BF000000003B
:1010100080B586B000AF3B464FF000021A6003F186
:1010200004034FF000021A6003F104034FF00002C2
:101030001A6003F104033B46184601F0B3FB3B88FA
:101040001BB206EE903AB8EEE67ABB881BB206EE0B
:10105000903AF8EEE67A17EE100A17EE901A02F0C0
:10106000EDF807EE100A40F22803C2F20003D3EDB8
:10107000007A67EE277AC7ED057A3B891AB240F607
:10108000D403C2F200031B881BB2D31A184602F025
:10109000FFFB02460B46104619467DA3D3E9002309
:1010A00002F086FD02460B46104619467AA3D3E9A4
:1010B000002302F053FC02460B461046194602F08C
:1010C0005FFE03463B6140F6E003C2F2000393ED8E
:1010D000007AD7ED047A77EE277A40F6E003C2F281
:1010E0000003C3ED007A40F6DC03C2F2000393ED87
:1010F000007AD7ED047A77EE277A40F6D803C2F269
:101100000003C3ED007A40F22C03C2F2000393ED1A
:10111000007A40F6D803C2F20003D3ED007A27EE3E
:10112000277A40F22C03C2F20003D3ED007AF7EEE7
:10113000006A76EEE76AD7ED057A66EEA77A77EE73
:10114000277A40F6DC03C2F20003C3ED007A40F6D2
:10115000DC03C2F200031A6840F62413C2F2000353
:101160001A6140F23003C2F200031B68002B16D054
:1011700040F6DC03C2F200031A6840F62413C2F200
:101180000003DA603A8940F6D403C2F200031A8001
:1011900040F23003C2F200034FF000021A6040F642
:1011A0002410C2F2000001F0C7FDF86040F6DC0335
:1011B000C2F200031B68184602F07CFB02460B4695
:1011C0004AF64010C0F6000003F0FEF840F6E403D3
:1011D000C2F200031B68002B54D040F26043C2F2FD
:1011E00000031B689B6818464FF000014FF0020295
:1011F0004FF0000303F038F940F6DC03C2F20003BD
:101200001B68184602F056FB02460B464AF6401091
:10121000C0F6000003F0D8F840F6E003C2F2000385
:101220001B68184602F046FB02460B464AF6581069
:10123000C0F6000003F0C8F8786902F03BFB0246F4
:101240000B464AF65810C0F6000003F0BDF840F611
:10125000DC03C2F200031B68184602F02BFB0246B7
:101260000B464AF65810C0F6000003F0ADF8F868D7
:1012700002F020FB02460B464AF65810C0F600006A
:1012800003F0A2F807F11807BD4680BDAFF3008058
:1012900000000000006060407B14AE47E17AA4BF0C
:1012A00080B588B000AF4FF00003BB834FF0000360
:1012B000BB7740F2CF73BB614FF01403BB824FF09A
:1012C0000003FB8207F114034FF08040194601F040
:1012D000DFFD07F114034FF44060C4F2000019462B
:1012E00001F0D6FD4FF001037B804FF060033B809F
:1012F0004FF00003BB604FF001037B803B464FF093
:101300008040194601F05EFE4FF080404FF008012A
:1013100001F058FF3B464FF44060C4F2000019460C
:1013200001F0E0FE4FF44060C4F200004FF008010D
:1013300001F064FF4FF080404FF0010101F022FE08
:101340004FF44060C4F200004FF0010101F01AFEBA
:1013500007F12007BD4680BD80B584B000AF4FF4D3
:1013600096433B604FF00003BB804FF00003FB80CF
:101370004FF000033B814FF00003BB814FF00C03A3
:101380007B813B464FF48050C4F201001946FEF7C2
:1013900077FF4FF48050C4F201004FF00101FFF7D6
:1013A00045F84FF48050C4F2010040F225514FF04F
:1013B0000102FFF76FF807F11007BD4680BD00BFBF
:1013C00080B487B000AF786039604FF000037B6174
:1013D0004FF000033B614FF00003FB604FF0000350
:1013E0007B6186E07B694FF0010202FA03F33B6107
:1013F0003B681A683B691340FB60FA683B699A4294
:1014000073D17B681A687B694FEA43034FF003018D
:1014100001FA03F36FEA03031A407B681A607B68E2
:101420001A683B681B7919467B694FEA430301FA46
:1014300003F31A437B681A603B681B79012B03D0C6
:101440003B681B79022B34D17B689A687B694FEA31
:1014500043034FF0030101FA03F36FEA03031A4059
:101460007B689A607B689A683B685B7919467B6900
:101470004FEA430301FA03F31A437B689A607B68DF
:101480005A687B699BB24FF0010101FA03F36FEADE
:1014900003031A407B685A607B685A683B689B79F3
:1014A00019467B699BB201FA03F39BB21A437B682E
:1014B0005A607B68DA687B699BB24FEA43034FF05E
:1014C000030101FA03F36FEA03031A407B68DA6051
:1014D0007B68DA683B68DB7919467B694FEA43032E
:1014E00001FA03F31A437B68DA607B6903F10103B5
:1014F0007B617B690F2B7FF675AF07F11C07BD463B
:1015000080BC704780B485B000AF78600B467B80AC
:101510004FF00003FB737B681A697B881340002B34
:1015200003D04FF00103FB7302E04FF00003FB73A5
:10153000FB7B184607F11407BD4680BC704700BF0F
:1015400080B483B000AF78600B467B807B687A887C
:101550001A8307F10C07BD4680BC704780B483B086
:1015600000AF78600B467B807B687A885A8307F1EE
:101570000C07BD4680BC704780B483B000AF786074
:101580000B467B807B685A697B885A407B685A612E
:1015900007F10C07BD4680BC704700BF80B485B022
:1015A00000AF786013460A467A807B704FF00003E4
:1015B000FB604FF00003BB607A787B8803F0070381
:1015C0004FEA830302FA03F3FB607B884FEAD303FD
:1015D0009BB21A467B884FEAD3039BB219467B68BD
:1015E00001F1080153F821107B8803F007034FEA4B
:1015F00083034FF00F0000FA03F36FEA030319406F
:101600007B6802F1080243F822107B884FEAD3037B
:101610009BB21A467B6802F1080253F82220FB684D
:101620001343BB607B884FEAD3039BB21A467B68A7
:1016300002F10802B96843F8221007F11407BD4609
:1016400080BC704780B483B000AF78604FF47053B3
:10165000C4F202037A68D2B21A7007F10C07BD46D1
:1016600080BC704780B483B000AF0346FB71FB7948
:10167000002B0CD04FF47053C4F202034FF470529D
:10168000C4F20202126842F480721A600BE04FF456
:101690007053C4F202034FF47052C4F20202126893
:1016A00022F480721A6007F10C07BD4680BC7047B7
:1016B00080B483B000AF03463960FB7197F90730FF
:1016C000002B10DA4FF46D43CEF20003FA7902F0EA
:1016D0000F02A2F104013A68D2B24FEA0212D2B26A
:1016E0005B181A760DE04FF46143CEF2000397F9D0
:1016F00007103A68D2B24FEA0212D2B25B1883F8EE
:10170000002307F10C07BD4680BC704780B582B04E
:1017100000AF4FF000604FF0000100F09DFF3B462E
:101720007B60786800F008F8786800F025F807F129
:101730000807BD4680BD00BF80B582B000AF7860AD
:101740004FF4C06000F002FF7B684FF025021A7072
:101750007B684FF000025A707B684FF000029A706D
:101760007B684FF00102DA70786800F003FF07F140
:101770000807BD4680BD00BF80B584B000AF78606B
:101780004FF4C06000F0E2FE4FF000004FF00001A7
:10179000FEF7FAFC4FF00103BB604FF000033B7310
:1017A0004FF00C037B734FF00103BB7307F1080389
:1017B000184600F0F3FD7B684FF006021A707B6854
:1017C0004FF001025A707B684FF001029A707B68FB
:1017D0004FF00102DA70786800F0CCFE07F11007D4
:1017E000BD4680BD80B584B000AF786039603A688E
:1017F0006FF07F439A4202D94FF001032DE04EF281
:101800001003CEF200033A6822F07F4202F1FF3269
:101810005A604FF0FF304FF00001FFF749FF4EF2E2
:101820001003CEF200034FF000029A604FF0030362
:10183000FB607B68042B04D1FB6843F00403FB606E
:1018400003E0FB6863F00403FB604EF21003CEF28A
:101850000003FA681A604FF00003184607F11007FA
:10186000BD4680BD80B500AF4FF46D43CEF200039E
:101870004FF46D42CEF20002D2F8882042F470029A
:10188000C3F888204FF46053C4F202034FF460524F
:10189000C4F20202126842F001021A604FF460536F
:1018A000C4F202034FF000029A604FF46053C4F296
:1018B00002034FF46052C4F20202126822F08472F2
:1018C00022F480321A604FF46053C4F2020343F2F0
:1018D0001002C2F200425A604FF46053C4F2020395
:1018E0004FF46052C4F20202126822F480221A609D
:1018F0004FF46053C4F202034FF00002DA6000F0CC
:1019000009F84FF46D43CEF200034FF000629A6085
:1019100080BD00BF80B483B000AF4FF000037B6098
:101920004FF000033B604FF46053C4F202034FF4E6
:101930006052C4F20202126842F480321A604FF41C
:101940006053C4F202031B6803F400333B607B68FE
:1019500003F101037B603B68002B03D17B68B3F587
:10196000A06FECD14FF46053C4F202031B6803F480
:101970000033002B03D04FF001033B6002E04FF037
:1019800000033B603B68012B40F082804FF46053C2
:10199000C4F202034FF46052C4F20202126C42F02D
:1019A00080521A644FF4E043C4F200034FF4E04263
:1019B000C4F20002126842F480421A604FF460538D
:1019C000C4F202034FF46052C4F2020292689A60B9
:1019D0004FF46053C4F202034FF46052C4F20202A7
:1019E000926842F400429A604FF46053C4F20203DA
:1019F0004FF46052C4F20202926842F4A0529A601C
:101A00004FF46053C4F2020345F20842C0F2407240
:101A10005A604FF46053C4F202034FF46052C4F2B0
:101A20000202126842F080721A6000BF4FF46053E5
:101A3000C4F202031B6803F00073002BF6D04FF4CE
:101A40007053C4F2020340F205621A604FF460530F
:101A5000C4F202034FF46052C4F20202926822F010
:101A600003029A604FF46053C4F202034FF46052D1
:101A7000C4F20202926842F002029A6000BF4FF480
:101A80006053C4F202039B6803F00C03082BF6D1E9
:101A900007F10C07BD4680BC704700BF80B485B01D
:101AA00000AF786040F6EC03C2F200031B68002B25
:101AB00008D140F6EC03C2F2000341F25052C2F2E8
:101AC00000021A6040F6EC03C2F200031B68FB60E0
:101AD00040F6EC03C2F200031A687B68D21840F6A5
:101AE000EC03C2F200031A60FB68184607F1140702
:101AF000BD4680BC704700BF80B483B000AF786043
:101B00004FF0FF33184607F10C07BD4680BC704705
:101B100080B483B000AF786039603B684FF4005206
:101B20005A604FF00003184607F10C07BD4680BC11
:101B3000704700BF80B483B000AF78604FF00103FE
:101B4000184607F10C07BD4680BC704780B485B0CD
:101B500000AFF860B9607A604FF00003184607F1F3
:101B60001407BD4680BC704780B485B000AFF860F4
:101B7000B9607A604FF00003184607F11407BD46BC
:101B800080BC704780B586B000AFF860B9607A60FD
:101B90007B687B6120E0BB681B78002B20D0BB6892
:101BA0001B784FF48050C4F201001946FEF75EFC2A
:101BB00000BF4FF48050C4F201004FF04001FEF727
:101BC000BBFC0346002BF4D0BB6803F10103BB60F0
:101BD0007B6903F1FF337B617B69002BDBDC00E079
:101BE00000BF7B68184607F11807BD4680BD00BFDF
:101BF00080B584B000AF07F10403FB60F86800F023
:101C000011F8F86800F032F8F86800F0A5F8F86804
:101C100000F0BEF8F86800F00DF907F11007BD46B6
:101C200080BD00BF80B582B000AF78607B684FF4A4
:101C300070421A607B684FF002025A717B684FF065
:101C400001021A717B684FF000029A717B684FF0B5
:101C50000102DA714FF44060C4F202007968FFF7C4
:101C6000AFFB07F10807BD4680BD00BF80B582B05D
:101C700000AF78607B684FF040021A607B684FF0DD
:101C800002025A717B684FF002021A717B684FF0B2
:101C900000029A717B684FF00102DA714FF48060A4
:101CA000C4F202007968FFF78BFB7B684FF080027B
:101CB0001A607B684FF002025A717B684FF0020293
:101CC0001A717B684FF000029A717B684FF0010235
:101CD000DA714FF48060C4F202007968FFF770FB9C
:101CE0007B684FF480721A607B684FF002025A7171
:101CF0007B684FF001021A717B684FF000029A7105
:101D00007B684FF00102DA714FF00000C4F202006C
:101D10007968FFF755FB4FF48060C4F202004FF082
:101D200006014FF00702FFF739FC4FF48060C4F260
:101D300002004FF007014FF00702FFF72FFC4FF0B2
:101D40000000C4F202004FF48071FFF7F9FB07F1C5
:101D50000807BD4680BD00BF80B582B000AF786087
:101D60007B684FF000021A717B684FF00002DA7155
:101D70007B684FF001021A604FF00000C4F20200CD
:101D80007968FFF71DFB07F10807BD4680BD00BF5E
:101D900080B582B000AF78607B684FF008021A60AF
:101DA0007B684FF003025A717B684FF002021A7190
:101DB0007B684FF000029A717B684FF00102DA7184
:101DC0004FF00000C4F202007968FFF7F9FA7B686F
:101DD0004FF004021A607B684FF003025A717B686F
:101DE0004FF002021A717B684FF000029A717B6813
:101DF0004FF00102DA714FF00000C4F2020079687E
:101E0000FFF7DEFA4FF00000C4F202004FF00301CA
:101E10004FF00202FFF7C2FB4FF00000C4F20200D5
:101E20004FF002014FF00102FFF7B8FB07F108077E
:101E3000BD4680BD80B582B000AF78607B684FF44E
:101E4000F0621A607B684FF003025A717B684FF0B2
:101E500001021A717B684FF000029A717B684FF0A3
:101E60000102DA714FF48050C4F202007968FFF782
:101E7000A7FA4FF48050C4F202004FF4F061FFF76C
:101E80006DFB07F10807BD4680BD00BF80B584B07B
:101E900002AFFEF7ABFC4FF00100FEF7E9FCFEF7E6
:101EA000FFFC0346FB71FB79012B38D14FF0010099
:101EB000FFF7D8FB4FF00500FFF7C4FB4FF0000021
:101EC000FEF784FD4FF48050FEF7C0FD4FF4A050A4
:101ED000FEF79CFD4FF0070300934FF480004FF096
:101EE00008014FF4A8724FF00203FEF70BFD4FF00C
:101EF0000100FEF72BFD00BF4FF03900FEF72CFF6D
:101F00000346002BF8D04FF00200FEF72FFD00BF74
:101F1000FEF74CFD0346082BFAD100F005F807F157
:101F20000807BD4680BD00BF80B500AF4FF0080078
:101F30004FF00101FEF792FE4FF001004FF001015A
:101F4000FEF78CFE4FF010004FF00101FEF7DAFEB5
:101F50004FF480404FF00101FEF7D4FE4FF0020035
:101F60004FF00101FEF77AFE4FF001004FF0010142
:101F7000FEF79EFE4FF008004FF00101FEF798FEBD
:101F80004FF010004FF00101FEF768FE80BD00BF6A
:101F900080B58AB000AF786039604FF00003FB84F1
:101FA0004FF000037B844FF00403BB844FF4905345
:101FB000C0F27A03FB617B689B88FB84FB8C23F077
:101FC0003F03FB8407F10C031846FEF761FD7B69B4
:101FD000FB61FA694DF68363C4F21B33A3FB021362
:101FE0004FEA93437B84FA8C7B8C1343FB847B689E
:101FF000FA8C9A807B681B889BB223F001039AB20B
:102000007B681A804FF00003FB843B681A6848F233
:10201000A063C0F201039A4218D83B681B684FEADC
:102020004303FA69B2FBF3F3BB84BB8C032B02D8E6
:102030004FF00403BB84FA8CBB8C1343FB847B8C72
:1020400003F101039AB27B681A844BE03B68DA889B
:102050004BF6FF739A420AD13B681A6813464FEA5F
:1020600043039B18FA69B2FBF3F3BB8410E03B68AF
:102070001A6813464FEA83039B184FEA83029B18A2
:10208000FA69B2FBF3F3BB84BB8C43F48043BB849B
:10209000BB8C4FEA03534FEA1353002B03D1BB8C85
:1020A00043F00103BB84BA8CFB8C13439BB26FEAF1
:1020B00043436FEA5343FB847B8C4FF4967202FBDD
:1020C00003F244F6D353C1F2620383FB02134FEAD7
:1020D000A3114FEAE273CB1A9BB203F101039AB248
:1020E0007B681A847B68FA8C9A837B681B889BB216
:1020F00043F001039AB27B681A807B681B88FB84DB
:10210000FB8C23F4816323F00203FB843B689A88F1
:102110003B685B8913439AB2FB8C1343FB847B6857
:10212000FA8C1A803B689A893B681B8913439AB2E0
:102130007B681A8107F12807BD4680BD80B483B053
:1021400000AF78600B46FB70FB78002B08D07B68F3
:102150001B889BB243F001039AB27B681A8007E0A8
:102160007B681B889BB223F001039AB27B681A80BC
:1021700007F10C07BD4680BC704700BF80B483B038
:1021800000AF78600B46FB70FB78002B08D07B68B3
:102190001B889BB243F480739AB27B681A8007E075
:1021A0007B681B889BB223F480739AB27B681A8089
:1021B00007F10C07BD4680BC704700BF80B483B0F8
:1021C00000AF78600B46FB70FB78002B08D07B6873
:1021D0001B889BB243F400739AB27B681A8007E0B5
:1021E0007B681B889BB223F400739AB27B681A80C9
:1021F00007F10C07BD4680BC704700BF80B483B0B8
:1022000000AF786013460A46FA70BB70BB78002BAB
:1022100004D0FB7843F00103FB7003E0FB7823F06C
:102220000103FB70FB789AB27B681A8207F10C07F6
:10223000BD4680BC704700BF80B483B000AF7860FB
:102240000B46FB70FB78002B08D07B681B889BB289
:1022500043F480639AB27B681A8007E07B681B882E
:102260009BB223F480639AB27B681A8007F10C0753
:10227000BD4680BC704700BF80B483B000AF7860BB
:102280000B46FB70FB789AB27B681A8207F10C0749
:10229000BD4680BC704700BF80B483B000AF78609B
:1022A0007B681B8A9BB2DBB2184607F10C07BD4660
:1022B00080BC704780B487B000AF786039604FF061
:1022C00000033B614FF00003FB604FF00003BB6075
:1022D0004FF00003FB757B689B8A9BB2FB607B68B9
:1022E0001B8B9BB2BB60BB684FEA0343BB60FA68C1
:1022F000BB68134323F07F433B613A693B681A4054
:102300003B689A4203D14FF00103FB7502E04FF0A6
:102310000003FB75FB7D184607F11C07BD4680BC1A
:10232000704700BF80B487B000AF786039604FF06D
:102330000003FB754FF000033B614FF00003FB60AF
:102340007B68FB603B684FEA13733B613B6823F09B
:102350007F433B603B69002B04D0FB6803F114030F
:10236000FB6007E03B684FEA13433B60FB6803F107
:102370001803FB60FB681A683B681340002B03D00E
:102380004FF00103FB7502E04FF00003FB75FB7D8E
:10239000184607F11C07BD4680BC704780B485B065
:1023A00000AF78604FF00003FB604FF47053C4F24D
:1023B0000103FB607B689B79002B78D04FF470534E
:1023C000C4F201034FF47052C4F2010211687A683A
:1023D00012686FEA02020A401A604FF47053C4F2A6
:1023E00001034FF47052C4F2010251687A68126816
:1023F0006FEA02020A405A607B681B79FA68D318B8
:10240000FB60FB68FA6811687A6812680A431A6010
:102410004FF47053C4F201034FF47052C4F201023E
:1024200091687A6812686FEA02020A409A604FF473
:102430007053C4F201034FF47052C4F20102D16828
:102440007A6812686FEA02020A40DA607B685B7998
:10245000102B1AD14FF47053C4F201034FF4705291
:10246000C4F2010291687A6812680A439A604FF4D4
:102470007053C4F201034FF47052C4F20102D168E8
:102480007A6812680A43DA601FE04FF47053C4F2AE
:102490000103FB607B685B79FA68D318FB60FB681B
:1024A000FA6811687A6812680A431A600DE07B685E
:1024B0001B79FA68D318FB60FB68FA6811687A68C0
:1024C00012686FEA02020A401A6007F11407BD465B
:1024D00080BC704780B485B000AF78604FF00003D7
:1024E000FB734FF00003BB604FF47053C4F2010361
:1024F0001A687B681340BB604FF47053C4F2010349
:102500005A697B681340002B06D0BB68002B03D0B0
:102510004FF00103FB7302E04FF00003FB73FB7B02
:10252000184607F11407BD4680BC704780B483B0DD
:1025300000AF78604FF47053C4F201037A685A61B7
:1025400007F10C07BD4680BC704700BF80B483B064
:1025500000AF78604FF46D43CEF200037A6842F02A
:10256000BF6242F40032DA6007F10C07BD4680BC5E
:10257000704700BF80B485B000AF78604FF00003B3
:10258000FB734FF00003BB734FF00F037B737B684B
:10259000DB78002B45D04FF46D43CEF20003DB68AF
:1025A0006FEA030303F4E0634FEA1323FB73FB7B3F
:1025B000C3F10403BB737A7BFB7B42FA03F37B73A7
:1025C0007B685B781A46BB7B02FA03F3FB737B687C
:1025D0009A787B7B1340DAB2FB7B1343FB73FB7B64
:1025E0004FEA0313FB734FF46143CEF200037A68A2
:1025F00012789B18FA7B83F800234FF46143CEF2E4
:1026000000037A6812784FEA5212D2B279680978D8
:1026100001F01F014FF0010000FA01F143F8221010
:1026200014E04FF46143CEF200037A6812784FEA67
:102630005212D2B27968097801F01F014FF00100FF
:1026400000FA01F102F1200243F8221007F1140709
:10265000BD4680BC704700BF80B483B000AF7860D7
:1026600039604FF46D43CEF200033A6822F06042C5
:1026700022F07F0279680A439A6007F10C07BD4691
:1026800080BC704780B500AF4FF0010000F036F815
:102690004FF0000000F048F84FF0000000F05AF84A
:1026A0004FF0000000F06CF880BD00BF80B500AFB7
:1026B00000F00AF80346342B02D14FF0010301E089
:1026C0004FF00003184680BD80B584B002AF4FF0D4
:1026D0000003FB7107F1070300934FF0D0004FF0A8
:1026E00075014FF006024FF0060300F04DF9FB793B
:1026F000184607F10807BD4680BD00BF80B584B00D
:1027000002AF0346FB71FB7900934FF0D0004FF00E
:102710006B014FF002024FF0030300F0ADF807F138
:102720000807BD4680BD00BF80B584B002AF034638
:10273000FB71FB7900934FF0D0004FF01B014FF07D
:1027400004024FF0020300F097F807F10807BD46B6
:1027500080BD00BF80B584B002AF0346FB71FB793A
:1027600000934FF0D0004FF01C014FF004024FF0E7
:10277000020300F081F807F10807BD4680BD00BFE5
:1027800080B582B000AF0346FB71FB794FF0D000FB
:102790004FF06B014FF0060200F0B8F807F10807A0
:1027A000BD4680BD80B588B000AF786007F10C03EE
:1027B0004FF0D00019464FF03B024FF00E0300F0EF
:1027C000E9F94FF00003FB614FF00003FB6121E0EA
:1027D000FB694FEA43037A68D318FA694FEA420269
:1027E00007F12000821812F8142C4FEA022291B24D
:1027F000FA694FEA420202F1010207F12000821851
:1028000012F8142C8A1892B292B21A80FB6903F162
:102810000103FB61FB69022BDADD4FF00403FB616E
:1028200023E0FB6903F1FF334FEA43037A68D318CF
:10283000FA694FEA420207F120018A1812F8142CB3
:102840004FEA022291B2FA694FEA420202F1010212
:1028500007F12000821812F8142C8A1892B292B252
:102860001A80FB6903F10103FB61FB69062BD8DDCC
:1028700007F12007BD4680BD80B584B000AFF87178
:10288000B9717A713B71F97907F10E02BB7908468B
:1028900011461A464FF0010300F07CF93B794FF0E6
:1028A000010202FA03F303F1FF3279793B79CB1A83
:1028B00003F1010302FA03F3FB733A7E79793B7962
:1028C000CB1A03F1010302FA03F33B763A7EFB7B5A
:1028D00013403B76FB7B6FEA0303DAB2BB7BDBB2D0
:1028E0001340DBB2DBB2BB73BA7B3B7E1343DBB27C
:1028F000BB73F97907F10E02BB79084611461A46F7
:1029000000F0D8F807F11007BD4680BD80B584B04F
:1029100000AFF871B9717A713B71F97907F10F0263
:10292000BB79084611461A464FF0010300F032F910
:102930003B79002B0BD07B794FF0010202FA03F3B5
:10294000DAB2FB7BDBB21343DBB2DBB20DE07B79A7
:102950004FF0010202FA03F3DBB26FEA0303DAB2CB
:10296000FB7BDBB21340DBB2DBB2FB73F97907F11F
:102970000F02BB79084611461A4600F09BF807F192
:102980001007BD4680BD00BF80B584B000AFF871B0
:10299000B9717A713B71F97907F10E02BB7908467A
:1029A00011461A464FF0010300F0F4F83B794FF05E
:1029B000010202FA03F303F1FF3279793B79CB1A72
:1029C00003F1010302FA03F3FB73BA7BFB7B1340B1
:1029D000DBB2BB73BB7B1A4679793B79CB1A03F127
:1029E000010342FA03F3DBB2BB73BA7BBB691A7013
:1029F00007F11007BD4680BD80B586B000AF4FF42B
:102A000080004FF00101FEF753F94FF002004FF044
:102A10000101FEF777F94FF440633B604FF002038A
:102A20007B714FF002033B713B464FF48060C4F270
:102A300002001946FEF7C4FC4FF48060C4F20200A5
:102A40004FF00A014FF00402FEF7A8FD4FF480603A
:102A5000C4F202004FF00B014FF00402FEF79EFD9E
:102A60004FF00003BB814BF6FF73FB814FF0D003A7
:102A70003B824FF480637B824FF48043BB8248F2F9
:102A8000A063C0F20103BB6007F108034FF4B0403C
:102A9000C4F200001946FFF77BFA4FF4B040C4F2CD
:102AA00000004FF00101FFF749FB07F11807BD4691
:102AB00080BD00BF80B582B000AF396013460246CA
:102AC000FA71BB714FF4B040C4F200004FF0010145
:102AD000FFF754FB00BF4FF4B040C4F200004FF0CA
:102AE0000101C0F20301FFF7E5FB0346002BF2D022
:102AF000FB794FF4B040C4F2000019464FF00002D9
:102B0000FFF77CFB00BF4FF4B040C4F200004FF071
:102B10008201C0F20701FFF7CDFB0346002BF2D084
:102B2000BB794FF4B040C4F200001946FFF7A4FB94
:102B300000BF4FF4B040C4F200004FF08401C0F277
:102B40000701FFF7B7FB0346002BF2D03B681B7869
:102B50004FF4B040C4F200001946FFF78DFB00BFF0
:102B60004FF4B040C4F200004FF08401C0F20701FE
:102B7000FFF7A0FB0346002BF2D04FF4B040C4F2A5
:102B800000004FF00101FFF719FB07F10807BD46F0
:102B900080BD00BF80B582B000AF39600146F971D9
:102BA000BA71BB8000BF4FF4B040C4F200004FF4D4
:102BB0000031FFF7B7FB0346002BF4D14FF4B040D0
:102BC000C4F200004FF00101FFF7D8FA00BF4FF444
:102BD000B040C4F200004FF00101C0F20301FFF762
:102BE00069FB0346002BF2D0FB794FF4B040C4F2EE
:102BF000000019464FF00002FFF700FB00BF4FF442
:102C0000B040C4F200004FF08201C0F20701FFF7AC
:102C100051FB0346002BF2D04FF4B040C4F2000049
:102C20004FF00101FFF78AFABB794FF4B040C4F2CC
:102C300000001946FFF720FB00BF4FF4B040C4F27C
:102C400000004FF08401C0F20701FFF733FB034699
:102C5000002BF2D04FF4B040C4F200004FF001015D
:102C6000FFF78CFA00BF4FF4B040C4F200004FF001
:102C70000101C0F20301FFF71DFB0346002BF2D058
:102C8000FB794FF4B040C4F2000019464FF0010246
:102C9000FFF7B4FA00BF4FF4B040C4F200004FF0A9
:102CA0000201C0F20301FFF705FB0346002BF2D03F
:102CB00031E0BB88012B0FD14FF4B040C4F20000CB
:102CC0004FF00001FFF7B8FA4FF4B040C4F2000033
:102CD0004FF00101FFF772FA4FF4B040C4F2000068
:102CE0004FF04001C0F20301FFF7E4FA0346002B66
:102CF00011D04FF4B040C4F20000FFF7CDFA034604
:102D00001A463B681A703B6803F101033B60BB88BD
:102D100003F1FF33BB80BB88002BCAD14FF4B04016
:102D2000C4F200004FF00101FFF786FA07F108072F
:102D3000BD4680BD0000000080B586B000AF786061
:102D40007B681B693B617B6893ED047A7B68D3EDFC
:102D5000067A77EE277AC7ED037A7B68FA689A617C
:102D60007B6893ED047A7B68D3ED037A77EE677A1C
:102D700017EE900A00F09EFD02460B4610461946DB
:102D800027A3D3E9002300F013FF02460B461046A9
:102D9000194600F0F5FF0346BB607B6893ED007AAF
:102DA000D7ED047A27EE277A7B68D3ED016AD7ED59
:102DB000037A66EEA77A37EE277A7B68D3ED026A4C
:102DC000D7ED027A66EEA77A77EE277AC7ED057A15
:102DD0007B681A697B68DA607B6893ED077AD7EDC8
:102DE000057AB4EEE77AF1EE10FA03D57B68DB6979
:102DF0007B610CE07B6893ED087AD7ED057AB4EE41
:102E0000E77AF1EE10FA02DD7B681B6A7B617B6971
:102E1000184607F11807BD4680BD00BFAFF300801C
:102E20007B14AE47E17AA43F80B483B000AF7860F2
:102E30007B684FF000021A607B684FF000025A6016
:102E40007B684FF000029A607B684FF00002DA6006
:102E50007B684FF000021A617B684FF00002C4F2F9
:102E6000B4225A617B684FF000029A617B684FF48C
:102E70007E42C4F27F72DA617B684FF47E42CCF20C
:102E80007F721A6207F10C07BD4680BC704700BF15
:102E900080B485B000AF786039604FF00003FB81EB
:102EA0007B681B88FB817A684FF00003C4F2010342
:102EB0009A421FD07A684FF48063C4F201039A42A9
:102EC00018D07B68B3F1804F14D07A684FF48063D8
:102ED000C4F200039A420DD07A684FF40063C4F242
:102EE00000039A4206D07A684FF44063C4F20003AC
:102EF0009A4208D1FB8923F07003FB813B685A8812
:102F0000FB891343FB817A684FF48053C4F20003BA
:102F10009A420FD07A684FF4A053C4F200039A4249
:102F200008D0FB8923F44073FB813B681A89FB8935
:102F30001343FB817B68FA891A803B685A687B6877
:102F4000DA623B681A887B681A857A684FF000035A
:102F5000C4F201039A4206D07A684FF48063C4F247
:102F600001039A4204D13B689B7A1A467B681A8611
:102F70007B684FF001029A8207F11407BD4680BCBE
:102F8000704700BF80B483B000AF78600B46FB7021
:102F9000FB78002B08D07B681B889BB243F00103B1
:102FA0009AB27B681A8007E07B681B889BB223F08B
:102FB00001039AB27B681A8007F10C07BD4680BCFA
:102FC000704700BF80B485B000AF786039604FF0C3
:102FD00000037B814FF00003FB814FF00003BB81B6
:102FE0007B681B8C9BB223F480739AB27B681A8433
:102FF0007B681B8CFB817B689B88BB817B689B8B80
:103000007B817B8923F070037B817B8923F0030321
:103010007B813B681A887B8913437B81FB8923F47E
:103020000073FB813B689B894FEA03239AB2FB89BB
:103030001343FB813B685B884FEA03239AB2FB8909
:103040001343FB817A684FF00003C4F201039A42F4
:1030500006D07A684FF48063C4F201039A422FD1FC
:10306000FB8923F40063FB813B68DB894FEA032380
:103070009AB2FB891343FB81FB8923F48063FB81B4
:103080003B689B884FEA03239AB2FB891343FB8179
:10309000BB8923F48053BB81BB8923F40053BB81DC
:1030A0003B681B8A4FEA03139AB2BB891343BB8167
:1030B0003B685B8A4FEA03139AB2BB891343BB8117
:1030C0007B68BA899A807B687A899A833B689A6818
:1030D0007B68DA637B68FA891A8407F11407BD46B6
:1030E00080BC704780B485B000AF786039604FF025
:1030F0000003BB814FF000037B814FF00003FB8195
:103100007B681B8C9BB223F480539AB27B681A8431
:103110007B681B8C7B817B689B88FB817B689B8B9E
:10312000BB81BB8923F4E043BB81BB8923F440739B
:10313000BB813B681B884FEA03239AB2BB891343C8
:10314000BB817B8923F400537B813B689B894FEAD9
:1031500003339AB27B8913437B813B685B884FEAD8
:1031600003339AB27B8913437B817A684FF0000363
:10317000C4F201039A4206D07A684FF48063C4F225
:1031800001039A420BD1FB8923F48043FB813B6806
:103190001B8A4FEA83139AB2FB891343FB817B6836
:1031A000FA899A807B68BA899A833B689A687B68B7
:1031B0001A647B687A891A8407F11407BD4680BCBB
:1031C000704700BF80B485B000AF78600B467B804D
:1031D0004FF00003FB817B689B8BFB81FB8923F015
:1031E0000803FB81FA897B881343FB817B68FA899A
:1031F0009A8307F11407BD4680BC704780B485B040
:1032000000AF78600B467B804FF00003FB817B684A
:103210009B8BFB81FB8923F40063FB817B884FEA56
:1032200003239AB2FB891343FB817B68FA899A8353
:1032300007F11407BD4680BC704700BF00F000B81E
:10324000F8B521F00044B4F1FF4F034617DC20F03D
:103250000045B5F1FF4F064611DCB1F17E5F42D06B
:103260008F1707F0020040EAD37775B9022F35D0E7
:10327000032F08D140F6DB73CCF2490303E0184674
:1032800000F0D4FD03461846F8BDD4B1B4F1FF4FA9
:103290002DD0B5F1FF4F14D02C1BE4153C2C18DCBD
:1032A000002952DB184600F07DFF00F09BF900F08A
:1032B0006DF8012F46D0022F35D0002F25D10346BF
:1032C000E1E7002E40F6DB731CDBC3F6C97318463A
:1032D000F8BD40F6DB70C3F6C970EAE740F6DB7371
:1032E000C4F24903CFE7BDE8F84000F04FB8B5F1AC
:1032F000FF4F2FD0022FF1D0032FBBD0012F34D09E
:103300000023C0E7CBF6C973BDE74BF62E51C3F2DD
:10331000BB3100F08BFD40F6DB71C4F2490100F0D7
:1033200083FD0346AFE74BF62E51C3F2BB3100F0ED
:103330007DFD014640F6DB70C4F2490000F074FDEB
:103340000346A0E700F100439DE714F13C0FA9DA22
:103350000020AEE7022F13D0032F0CD0012F40F630
:10336000DB7305D0C3F649738DE74FF000438AE75E
:10337000CBF6497387E74CF6E433CCF2160382E7C9
:103380004CF6E433C4F216037DE700BF2DE9F041AB
:1033900020F00045B5F1A14F044606460DDBB5F11E
:1033A000FF4F00F39C80002840F6DB7440F3D4808C
:1033B000C3F6C9742046BDE8F0814FF6FF73C3F62B
:1033C000DF639D4200F3A280B5F1445FC0F28E80BE
:1033D0004FF0FF372146204600F030FE0146804680
:1033E00000F02CFE46F6D711C3F68541054600F0E5
:1033F00025FE4DF65921C3F64B5100F017FD294625
:1034000000F01CFE46F63531C3F6885100F00EFD83
:10341000294600F013FE42F66E61C3F6BA5100F081
:1034200005FD294600F00AFE44F62511C3F6126197
:1034300000F0FCFC294600F001FE4AF6AB21C3F681
:10344000AA6100F0F3FC414600F0F8FD4AF22121A8
:103450008046CBF61551284600F0F0FD4FF26B1177
:10346000C3F66E5100F0E0FC294600F0E7FD48F29B
:103470009571C3F69D5100F0D7FC294600F0DEFDA2
:1034800048F63861C3F6E35100F0CEFC294600F05F
:10349000D5FD4CF6CD41C3F64C6100F0C5FC294684
:1034A00000F0CCFD7B1C0146404658D000F0BEFC2D
:1034B000214600F0C3FD494B53F8271000F0B4FC3F
:1034C000214600F0B1FC0146454850F8270000F0C5
:1034D000ABFC002E3DDB04462046BDE8F0810146F2
:1034E00000F0A4FC04462046BDE8F0814FF2CA215A
:1034F000C7F2491100F09AFC4FF07E5100F05AFFDC
:1035000000283FF465AF2046BDE8F08100F06AF87E
:103510004FF6FF71C3F697718D4204464FF6FF7266
:1035200028DCC3F62F72954246DC014600F07EFC93
:103530004FF07E5100F078FC4FF080410546204668
:1035400000F074FC0146284600F02CFE00270446DB
:1035500040E700F100442DE7CBF6C9742AE700F0FC
:1035600065FC214600F06AFD0146204600F05CFC47
:1035700004461FE7C4F21B02954214DC4FF07F5152
:1035800000F052FC4FF07F510546204600F056FDFA
:103590004FF07E5100F04AFC0146284600F002FE42
:1035A0000227044616E700202146CBF6807000F083
:1035B000F9FD032704460DE74FF07E5100F034FC7F
:1035C0004FF07E510746204600F030FC0146384659
:1035D00000F0E8FD01270446FCE600BF60A90008F2
:1035E00070A9000820F00040704700BF81F0004142
:1035F00002E000BF83F0004330B54FEA41044FEAD8
:10360000430594EA050F08BF90EA020F1FBF54EA72
:10361000000C55EA020C7FEA645C7FEA655C00F00E
:10362000E2804FEA5454D4EB5555B8BF6D420CDDDF
:103630002C4480EA020281EA030382EA000083EA62
:10364000010180EA020281EA0303362D88BF30BD02
:1036500011F0004F4FEA01314FF4801C4CEA113158
:1036600002D0404261EB410113F0004F4FEA0333B7
:103670004CEA133302D0524263EB430394EA050F42
:1036800000F0A780A4F10104D5F1200E0DDB02FAB1
:103690000EFC22FA05F2801841F1000103FA0EF245
:1036A000801843FA05F359410EE0A5F120050EF10B
:1036B000200E012A03FA0EFC28BF4CF0020C43FA3C
:1036C00005F3C01851EBE37101F0004507D54FF049
:1036D000000EDCF1000C7EEB00006EEB0101B1F599
:1036E000801F1BD3B1F5001F0CD349085FEA3000DF
:1036F0004FEA3C0C04F101044FEA445212F5800FEA
:1037000080F09A80BCF1004F08BF5FEA500C50F186
:10371000000041EB045141EA050130BD5FEA4C0C69
:10372000404141EB010111F4801FA4F10104E9D1F2
:1037300091F0000F04BF01460020B1FA81F308BFE9
:103740002033A3F10B03B3F120020CDA0C3208DDB5
:1037500002F1140CC2F10C0201FA0CF021FA02F190
:103760000CE002F11402D8BFC2F1200C01FA02F100
:1037700020FA0CFCDCBF41EA0C019040E41AA2BF25
:1037800001EB0451294330BD6FEA04041F3C1CDAED
:103790000C340EDC04F11404C4F1200220FA04F00D
:1037A00001FA02F340EA030021FA04F345EA0301B7
:1037B00030BDC4F10C04C4F1200220FA02F001FA79
:1037C00004F340EA0300294630BD21FA04F02946FB
:1037D00030BD94F0000F83F4801306BF81F4801194
:1037E0000134013D4EE77FEA645C18BF7FEA655C07
:1037F00029D094EA050F08BF90EA020F05D054EAD9
:10380000000C04BF1946104630BD91EA030F1EBFDD
:103810000021002030BD5FEA545C05D140004941E1
:1038200028BF41F0004130BD14F580043CBF01F5D4
:10383000801130BD01F0004545F0FE4141F47001BA
:103840004FF0000030BD7FEA645C1ABF1946104695
:103850007FEA655C1CBF0B46024650EA013406BF96
:1038600052EA033591EA030F41F4002130BD00BF55
:1038700090F0000F04BF0021704730B54FF4806412
:1038800004F132044FF000054FF0000150E700BF93
:1038900090F0000F04BF0021704730B54FF48064F2
:1038A00004F1320410F0004548BF40424FF00001DF
:1038B0003EE700BF42004FEAE2014FEA31014FEA22
:1038C00002701FBF12F07F4393F07F4F81F0605171
:1038D000704792F0000F14BF93F07F4F704730B5E0
:1038E0004FF4607401F0004521F0004120E700BF73
:1038F00050EA010208BF704730B54FF000050AE0FA
:1039000050EA010208BF704730B511F0004502D5FA
:10391000404261EB41014FF4806404F132045FEAFC
:10392000915C3FF4DCAE4FF003025FEADC0C18BFA1
:1039300003325FEADC0C18BF033202EBDC02C2F197
:10394000200300FA03FC20FA02F001FA03FE40EA29
:103950000E0021FA02F11444C1E600BF70B54FF029
:10396000FF0C4CF4E06C1CEA11541DBF1CEA13550B
:1039700094EA0C0F95EA0C0F00F0DEF82C4481EA73
:10398000030621EA4C5123EA4C5350EA013518BF93
:1039900052EA033541F4801143F4801338D0A0FB80
:1039A00002CE4FF00005E1FB02E506F00042E0FB2D
:1039B00003E54FF00006E1FB03569CF0000F18BF33
:1039C0004EF0010EA4F1FF04B6F5007F64F54074DB
:1039D00004D25FEA4E0E6D4146EB060642EAC6216E
:1039E00041EA55514FEAC52040EA5E504FEACE2EDB
:1039F000B4F1FD0C88BFBCF5E06F1ED8BEF1004FDE
:103A000008BF5FEA500E50F1000041EB045170BD59
:103A100006F0004646EA010140EA020081EA03019D
:103A2000B4EB5C04C2BFD4EB0C0541EA045170BD99
:103A300041F480114FF0000E013C00F3AB8014F113
:103A4000360FDEBF002001F0004170BDC4F100045C
:103A5000203C35DA0C341BDC04F11404C4F12005DD
:103A600000FA05F320FA04F001FA05F240EA020038
:103A700001F0004221F0004110EBD37021FA04F66E
:103A800042EB06015EEA430E08BF20EAD37070BD28
:103A9000C4F10C04C4F1200500FA04F320FA05F087
:103AA00001FA04F240EA020001F0004110EBD37089
:103AB00041F100015EEA430E08BF20EAD37070BDF9
:103AC000C4F1200500FA05F24EEA020E20FA04F3D2
:103AD00001FA05F243EA020321FA04F001F0004181
:103AE00021FA04F220EA020000EBD3705EEA430EF2
:103AF00008BF20EAD37070BD94F0000F0FD101F021
:103B00000046400041EB010111F4801F08BF013C59
:103B1000F7D041EA060195F0000F18BF704703F097
:103B20000046520043EB030313F4801F08BF013D1E
:103B3000F7D043EA0603704794EA0C0F0CEA1355DA
:103B400018BF95EA0C0F0CD050EA410618BF52EA94
:103B50004306D1D181EA030101F000414FF000009A
:103B600070BD50EA410606BF1046194652EA4306A8
:103B700019D094EA0C0F02D150EA013613D195EA1C
:103B80000C0F05D152EA03361CBF104619460AD164
:103B900081EA030101F0004141F0FE4141F470016E
:103BA0004FF0000070BD41F0FE4141F4780170BD5E
:103BB00070B54FF0FF0C4CF4E06C1CEA11541DBFC3
:103BC0001CEA135594EA0C0F95EA0C0F00F0A7F8C5
:103BD000A4EB050481EA030E52EA03354FEA0131F2
:103BE00000F088804FEA03334FF0805545EA131305
:103BF00043EA12634FEA022245EA111545EA1065CD
:103C00004FEA00260EF000419D4208BF964244F163
:103C1000FD0404F5407402D25B084FEA3202B61A82
:103C200065EB03055B084FEA32024FF480104FF456
:103C3000002CB6EB020E75EB030E22BFB61A7546CA
:103C400040EA0C005B084FEA3202B6EB020E75EB5D
:103C5000030E22BFB61A754640EA5C005B084FEAC5
:103C60003202B6EB020E75EB030E22BFB61A754692
:103C700040EA9C005B084FEA3202B6EB020E75EB9D
:103C8000030E22BFB61A754640EADC0055EA060E5E
:103C900018D04FEA051545EA16754FEA06164FEAA1
:103CA000C30343EA52734FEAC2025FEA1C1CC0D14D
:103CB00011F4801F0BD141EA00014FF000004FF0DA
:103CC000004CB6E711F4801F04BF01430020B4F19B
:103CD000FD0C88BFBCF5E06F3FF6AFAEB5EB030C53
:103CE00004BFB6EB020C5FEA500C50F1000041EB50
:103CF000045170BD0EF0004E4EEA113114EB5C041D
:103D0000C2BFD4EB0C0541EA045170BD41F48011EF
:103D10004FF0000E013C90E645EA060E8DE60CEAF7
:103D2000135594EA0C0F08BF95EA0C0F3FF43BAF14
:103D300094EA0C0F0AD150EA01347FF434AF95EACB
:103D40000C0F7FF425AF104619462CE795EA0C0FAF
:103D500006D152EA03353FF4FDAE1046194622E77C
:103D600050EA410618BF52EA43067FF4C5AE50EA56
:103D700041047FF40DAF52EA43057FF4EBAE12E746
:103D80004FEA4102B2F1E04324BFB3F5001CDCF17D
:103D9000FE5C0DD901F0004C4FEAC0024CEA5070B5
:103DA000B2F1004F40EB830008BF20F001007047E4
:103DB00011F0804F21D113F13872BCBF01F00040E7
:103DC000704741F480114FEA5252C2F11802C2F119
:103DD000200C10FA0CF320FA02F018BF40F001009A
:103DE0004FEAC1234FEAD32303FA0CFC40EA0C004C
:103DF00023FA02F34FEA4303CCE77FEA625307D189
:103E000050EA01331EBF4FF0FE4040F440007047BF
:103E100001F0004040F0FE4040F40000704700BF59
:103E200080F0004002E000BF81F0004142001FBF6F
:103E30005FEA410392EA030F7FEA226C7FEA236C78
:103E40006AD04FEA1262D2EB1363C1BFD21841406D
:103E500048404140B8BF5B42192B88BF704710F003
:103E6000004F40F4000020F07F4018BF404211F0A6
:103E7000004F41F4000121F07F4118BF494292EA0E
:103E8000030F3FD0A2F1010241FA03FC10EB0C003A
:103E9000C3F1200301FA03F100F0004302D54942C7
:103EA00060EB4000B0F5000F13D3B0F1807F06D374
:103EB00040084FEA310102F10102FE2A51D2B1F16C
:103EC000004F40EBC25008BF20F0010040EA030061
:103ED0007047490040EB000010F4000FA2F101020E
:103EE000EDD1B0FA80FCACF1080CB2EB0C0200FA98
:103EF0000CF0AABF00EBC25052421843BCBFD040E6
:103F00001843704792F0000F81F4000106BF80F45F
:103F100000000132013BB5E74FEA41037FEA226C22
:103F200018BF7FEA236C21D092EA030F04D092F0ED
:103F3000000F08BF0846704790EA010F1CBF002021
:103F4000704712F07F4F04D1400028BF40F000407E
:103F5000704712F100723CBF00F50000704700F09E
:103F6000004343F0FE4040F4000070477FEA2262C5
:103F700016BF08467FEA23630146420206BF5FEA96
:103F8000412390EA010F40F4800070474FF0000396
:103F900004E000BF10F0004348BF40425FEA000C5D
:103FA00008BF704743F0964301464FF000001CE005
:103FB00050EA010208BF70474FF000030AE000BF5B
:103FC00050EA010208BF704711F0004302D5404299
:103FD00061EB41015FEA010C02BF8446014600200B
:103FE00043F0B64308BFA3F18053A3F50003BCFA26
:103FF0008CF2083AA3EBC25310DB01FA02FC6344D3
:1040000000FA02FCC2F12002BCF1004F20FA02F2D9
:1040100043EB020008BF20F00100704702F12002CC
:1040200001FA02FCC2F1200250EA4C0021FA02F22D
:1040300043EB020008BF20EADC7070474FF0FF0C32
:104040001CEAD0521EBF1CEAD15392EA0C0F93EA2D
:104050000C0F6FD01A4480EA010C400218BF5FEACF
:1040600041211ED04FF0006343EA501043EA511142
:10407000A0FB01310CF00040B1F5000F3EBF49003C
:1040800041EAD3715B0040EA010062F17F02FD2A40
:104090001DD8B3F1004F40EBC25008BF20F0010023
:1040A000704790F0000F0CF0004C08BF49024CEA3A
:1040B000502040EA51207F3AC2BFD2F1FF0340EACC
:1040C000C250704740F400004FF00003013A5DDC3D
:1040D00012F1190FDCBF00F000407047C2F100027E
:1040E000410021FA02F1C2F1200200FA02FC5FEA6B
:1040F000310040F1000053EA4C0308BF20EADC70B5
:10410000704792F0000F00F0004C02BF400010F426
:10411000000F013AF9D040EA0C0093F0000F01F0D3
:10412000004C02BF490011F4000F013BF9D041EAF5
:104130000C018FE70CEAD15392EA0C0F18BF93EAF7
:104140000C0F0AD030F0004C18BF31F0004CD8D121
:1041500080EA010000F00040704790F0000F17BFA8
:1041600090F0004F084691F0000F91F0004F14D0EE
:1041700092EA0C0F01D142020FD193EA0C0F03D146
:104180004B0218BF084608D180EA010000F0004049
:1041900040F0FE4040F40000704740F0FE4040F424
:1041A000400070474FF0FF0C1CEAD0521EBF1CEAC3
:1041B000D15392EA0C0F93EA0C0F69D0A2EB0302E1
:1041C00080EA010C49024FEA402037D04FF080537B
:1041D00043EA111143EA10130CF000408B4238BF40
:1041E0005B0042F17D024FF4000C8B4224BF5B1A4E
:1041F00040EA0C00B3EB510F24BFA3EB510340EA9C
:104200005C00B3EB910F24BFA3EB910340EA9C0049
:10421000B3EBD10F24BFA3EBD10340EADC001B01B9
:1042200018BF5FEA1C1CE0D1FD2A3FF650AF8B425D
:1042300040EBC25008BF20F0010070470CF0004C6A
:104240004CEA50207F32C2BFD2F1FF0340EAC25095
:10425000704740F400004FF00003013A37E792F056
:10426000000F00F0004C02BF400010F4000F013AB4
:10427000F9D040EA0C0093F0000F01F0004C02BFAF
:10428000490011F4000F013BF9D041EA0C0195E718
:104290000CEAD15392EA0C0F08D142027FF47DAFB1
:1042A00093EA0C0F7FF470AF084676E793EA0C0FA1
:1042B00004D14B023FF44CAF08466EE730F0004C9F
:1042C00018BF31F0004CCAD130F000427FF45CAF2F
:1042D00031F000437FF43CAF5FE700BF4FF0FF3C9D
:1042E00006E000BF4FF0010C02E000BF4FF0010CF0
:1042F0004DF804CD4FEA40024FEA41037FEA226CB9
:1043000018BF7FEA236C11D001B052EA530C18BFDA
:1043100090EA010F58BFB2EB030088BFC81738BF3F
:104320006FEAE17018BF40F0010070477FEA226C2D
:1043300002D15FEA402C05D17FEA236CE4D15FEA29
:10434000412CE1D05DF8040B704700BF844608465D
:104350006146FFE70FB5FFF7C9FF002848BF10F11E
:10436000000F0FBD4DF808EDFFF7F4FF0CBF012063
:1043700000205DF808FB00BF4DF808EDFFF7EAFFED
:1043800034BF012000205DF808FB00BF4DF808EDA8
:10439000FFF7E0FF94BF012000205DF808FB00BF9D
:1043A0004DF808EDFFF7D2FF94BF012000205DF823
:1043B00008FB00BF4DF808EDFFF7C8FF34BF012030
:1043C00000205DF808FB00BF0FB400B540F260426A
:1043D00083B0C2F2000204AB106853F8042B81686A
:1043E000019300F0F9F803B05DF804EB04B07047F6
:1043F00030B5054689B008460C4600F0BDF8144BB0
:10440000049402461868134C8368059299890694AF
:10441000013201F40050039204AA0124019200B277
:1044200002220794029230B9586E41F4005120F4F0
:10443000005299815A66284601AAA96803F092FCA5
:1044400000280CBF0A204FF0FF3009B030BD00BF7C
:104450006004002084A9000840F26043C2F2000317
:1044600001461868FFF7C4BF2DE9F843DFF804815F
:10447000D8F800500446894616461F4615B1AB6B66
:10448000002B4ED0022E2ED8002F2CDB2146D8F840
:10449000000003F045FAA38903F08001002208B26E
:1044A0006260A26118BB4FF67C751D40022EA5818B
:1044B00029D0B9F1000F3ED0012E36D0D8F8003007
:1044C0002B4A05F0080108B2DA63C4F80090C4F87A
:1044D0001090676148B115F0030F18BF0027A7605F
:1044E0000020BDE8F8834FF0FF30BDE8F883214D90
:1044F0002169286803F06CFBA3894FF67C751D4089
:10450000022EA581D5D1002004F1430345F0020518
:1045100000210122A581A160236023616261BDE8C1
:10452000F883284603F0DEFAACE745F0010578424F
:10453000A581A061C2E7002F08BF4FF4806738460D
:1045400003F07CFE814628B1A18941F0800295B23A
:10455000A581B1E74FF4806003F070FE814618B981
:10456000A5894FF0FF30CFE74FF48067ECE700BF3D
:10457000897A00086004002020F0030110F0030095
:10458000C0F1000051F8043B00F1040C4FEACC0CE0
:104590006FF000021CBF22FA0CF213434FF0010C23
:1045A0004CEA0C2C4CEA0C4CA3EB0C0222EA030262
:1045B00012EACC1204BF51F8043B0430F4D013F0DB
:1045C000FF0F1FBF013013F47F4F013013F47F0F33
:1045D00018BF0130704700BF2DE9F04FC5B01D4630
:1045E0000A9114460B9003F0AFFD00681490FFF79A
:1045F000C3FF002116900020CDE918010B991095FA
:1046000019B18B6B002B00F009810A9A938903F48E
:10461000005001B239B90A98426E43F4005322F4B3
:1046200000518381416603F0080002B2002A00F0C5
:10463000BE800A990869002800F0B98003F01A02C8
:104640000A2A00F0C080002134ABDFF87095119188
:1046500008932793299128911A911B910E91A346B3
:104660009A469BF80040002C00F0DC80252C00F0DE
:10467000D9800BF1010501E0252A04D02C46013533
:104680002278002AF8D1CBEB04058DB1289B29981C
:10469000CAF800B05A1C4119072ACAF804502991D7
:1046A00028920AF1080A00F3AF800E9841190E9182
:1046B0002378002B00F0948000264FF0FF3E94F802
:1046C00001800D968DF87B60099604F1010B202185
:1046D0002B2276460BF1010BA8F12003582B00F298
:1046E000DB82DFE813F0EB02D902D902F502D9022E
:1046F000D902D902D902D902D9022203A100D902D2
:104700005D00A600D902C1002E032E032E032E0346
:104710002E032E032E032E032E03D902D902D90213
:10472000D902D902D902D902D902D902D902860105
:10473000C800D902C800D902D902D902D9027F0122
:10474000D902D902CB01D902D902D902D902D902A0
:10475000E501D902D902FB01D902D902D902D90255
:10476000D902D902D902D902D902D902C402A802B7
:10477000C800C800C800BD02A802D902D90256026A
:10478000D9026D027B028F022002D9022702D902D0
:10479000FC02D902D9020E030D98109340420D90ED
:1047A000099B43F0040009909BF8008092E70B9866
:1047B0000A9901F0B1FD00BB0A9B9B8903F01A0224
:1047C0000A2A7FF440AF0A99B1F90E000028FFF6DB
:1047D0003AAF0B9822462B4601F062FD0E900FE097
:1047E000299820B10B980A9927AA05F00FFA0A997F
:1047F0008A8902F0400318B210B14FF0FF310E91D8
:104800000E9845B0BDE8F08F0B980A9927AA05F0DD
:10481000FDF90028EBD10DF1D00A46E7084603F078
:1048200061F9F2E65C4643E78DF87B209BF8008057
:1048300050E7584610F8018BB8F12A0F01F0F584C3
:10484000A8F130030026092B01F27D8410F8018BBA
:1048500006EB860603EB4606A8F13003092B8346D8
:10486000F4D946EAE67637E7099840F080030993E1
:104870009BF800802EE7109DCDF84C80EA1D22F0B9
:10488000070404F108011091B64626686468CDF863
:104890001CE030462146CDE918012146304605F09E
:1048A00025F90128DDF81CC03046214641F0AC80D6
:1048B0000022002305F0CCFC002841F082839DF803
:1048C0007B30BA4C099DBA4E1398032200210C92FA
:1048D00012914728CCBFB046A04625F080020321A4
:1048E000002409920F91159413B10C98441C0C9458
:1048F000099911F0020502D00C9A901C0C90099CA9
:1049000014F0840640F0CD820D9F0C9BFF1A002FFF
:1049100040F3C782102F41F3B0822998A54A289B03
:10492000CAF80020102417920219581CA7F1110C84
:104930000728CAF80440CCF3001C299228900AF1F9
:10494000080A00F3D285103F102F40F31D82BCF1FE
:10495000000F12D001304AF688111032C0F6000163
:1049600007288AE81200299228900AF1080A00F321
:10497000CE85103F102F40F307821C951D960B9D8E
:104980000A9E12E0481C4AF688111032C0F6000157
:1049900007288AE812000AF1080A2992289000F3F1
:1049A000E181103F102F40F3ED81411C4AF6881041
:1049B0001032C0F6000007298AE81100A7F110079D
:1049C0000AF1080A29922891DCDD2846314627AAF7
:1049D00005F01CF900287FF40AAF299A28990DF1F7
:1049E000D00ACFE7099B43F0080009909BF80080AC
:1049F00070E6099BCDF84C80B64643F01006099648
:104A00000998860640F11E81109AD41D24F00700F3
:104A1000D0E900230830109014461D46002A73F197
:104A20000000C0F2E6870123BEF1000F03DB099E00
:104A300026F08002099254EA050240F03B83BEF161
:104A4000000F40F03783002B40F03985099DE907BE
:104A500040F1358544AC302004F8410D089B191B0A
:104A60000F91A0460F9D9DF87B30CDF848E075452D
:104A7000B8BF754600260C95159635E7099ACDF80E
:104A80004C8042F010040994099B13F02003B646B1
:104A900000F0AC80109BDC1D24F00701D1E900453B
:104AA00001F108061096002300208DF87B00BBE77B
:104AB000099CCDF84C8044F01005099509988506AD
:104AC000B64640F11381109DE81D20F0070101F169
:104AD00008061096D1E900450123E5E7099D36480F
:104AE000CDF84C80A906B6461A9040F11381109C6F
:104AF000E31D23F0070505F10800D5E900451090F6
:104B00000999CE0740F1E18454EA050300F0DD8401
:104B1000139A41F00203302609938DF87C608DF8DA
:104B20007D200223C0E7099B43F0200009909BF8F9
:104B30000080CFE5109DCDF84C80B44600268DF85E
:104B40007B60D5F800802C1DB8F1000F01F02582A4
:104B5000BCF1000F4046C1F25A8162463146CDF8A1
:104B60001CC003F021FEDDF81CC0002801F0D98232
:104B7000C8EB000363450F93129641F3D6802CEAED
:104B8000EC700C909DF87B301094CDF83CC01596DD
:104B9000AAE69BF80080B8F16C0F5B4601F01E811D
:104BA000099840F01003099394E500BF98A9000804
:104BB0009CA9000888A90008A8A90008DCA9000889
:104BC000099CA10640F1D087109A0E98109C13689A
:104BD000C117221D18605960109242E5099BCDF85B
:104BE0004C8013F02003B6467FF454AF099D15F0B6
:104BF000100000F0AB8710980568021D2C4610923B
:104C0000002551E7109C109A09992568B646161D93
:104C1000B54A10964FF0780841F0020330202C4638
:104C200009938DF87D8000258DF87C001A9202236F
:104C3000CDF84C8038E70998CDF84C80B64686060A
:104C40003FF5E2AE099DED0640F19E87109805689C
:104C50002C461099E5170E1D22462B461096DDE6D0
:104C6000099B43F0400009909BF8008032E5109DBD
:104C7000109A2E68CDF84C8001240021131D8DF868
:104C80007B100C9410938DF8A8600F940DF1A80878
:104C90000023129315932BE64046CDF84C80002854
:104CA0003FF49EAD0125002401268DF8A8800C95C7
:104CB0008DF87B400F960DF1A808E9E79DF87B3051
:104CC000002B40F081878DF87B109BF8008001E578
:104CD000099B43F0010009909BF80080FAE40998D1
:104CE000CDF84C808506B6463FF5EDAE0999CC0669
:104CF00040F15E87109A131D10931468002501235C
:104D0000D2E6099D784CCDF84C80A906B6461A9497
:104D10003FF5EDAE099EF20640F13F87109E3168E7
:104D2000321D0C4600251092EAE61098109B006890
:104D3000043300280D90FFF62FAD9BF800801093F0
:104D4000C8E458460023A8F1300510F8018BA8F1FB
:104D5000300403EB8303092C05EB43038346F2D9AC
:104D60000D93B9E42846314627AA04F04FFF0028E6
:104D70007FF43DAD103F102F299A28980DF1D00AED
:104D80003FF713AE1C9D1D9ED419431C179A072B89
:104D90008AE88400299428930AF1080A40F3828063
:104DA0000B980A9927AA04F031FF00287FF41FAD61
:104DB0009DF87B10299C0DF1D00A002976D17DB198
:104DC000289A501C023402211FAB0728CAF8003071
:104DD000CAF80410299428900AF1080A00F33383D2
:104DE000802E00F02882129D0F982D1A002D40F37E
:104DF000A880102D40F3EC86289ACAF8009010275E
:104E00000132A5F11103E419072ACAF80470374EDC
:104E100029942892C3F300130AF1080A00F3F782D9
:104E2000103D102D76DD7BB101321034072ACAF80F
:104E30000090CAF80470299428920AF1080A00F335
:104E4000F582103D102D65DD53462146C24634469D
:104E5000DDF828800B9E0CE0421CC3F800905F60D8
:104E600010310833072A2892299141DC103D102D7A
:104E70004CDD501CC3F800905F60103108330728E8
:104E800029912890A5F11005E6DD3046414627AA74
:104E900004F0BCFE00287FF4AAAC2999289834AB12
:104EA000DAE7299C9DF87B10002988D0289A501CAD
:104EB000013401210DF17B030728CAF80030CAF83C
:104EC0000410299428900AF1080A7FF778AF0B980C
:104ED0000A9927AA04F09AFE00287FF488AC299C3E
:104EE0000DF1D00A6BE700BFBCA90008DCA90008DF
:104EF0003046414627AA04F089FE00287FF477ACAB
:104F0000103D102D2999289A34ABB2DCD0462646A4
:104F10009A460C46501C64190728CAF80060CAF863
:104F20000450299428900AF1080A0ADD0B980A997E
:104F300027AA04F06BFE00287FF459AC299C0DF1E0
:104F4000D00A0999CA0500F1DE8028990F9A0F98B6
:104F5000CAF80080A4184B1CCAF80400072B299437
:104F600028930AF1080A00F33C82099B5B077ED56F
:104F70000D9D0C9AAD1A002D79DD102D62DD28995A
:104F800010274B1C4AF68816C0F60006A5F1110E34
:104F9000E419072BCAF80060CAF80470CEF30018B1
:104FA000299428930AF1080A00F3C483103D102DB8
:104FB0004ADDB8F1000F11D001334AF688101034E1
:104FC000C0F60000072B8AE88100299428930AF193
:104FD000080A00F3BC83103D102D35DD2246DDF8B4
:104FE0002C8034460A9E10E001334AF688111032B4
:104FF000C0F60001072B8AE882000AF1080A28930C
:10500000299245DC103D102D51DD01334AF6881000
:105010001032C0F60000072B8AE88100A5F11005C8
:105020000AF1080A29922893DEDD4046314627AA74
:1050300004F0ECFD00287FF4DAAB299A289B0DF1EF
:10504000D00AD1E7289BAC4E581C2C190728CAF867
:105050000060CAF804502994289008DD0B980A993A
:1050600027AA04F0D3FD00287FF4C1AB299C0E9938
:105070000C9A0D9B9A42ACBF8918C9180E91002C4E
:1050800040F0BB81002428940DF1D00AFFF7E9BA63
:105090004046314627AA04F0B9FD00287FF4A7ABAB
:1050A000103D102D299A289B0DF1D00AADDC264623
:1050B0001446C9E7012B00F0F381022B00F0CF81E9
:1050C0000DF1CF060722E70804EA020047EA457718
:1050D000EB0830303C461D46C0B254EA0501B046EC
:1050E000307006F1FF36EED1099CE407454605D540
:1050F000302803D03021B04605F8011C089AC8EBCF
:1051000002030F93AEE4139A652A40F32381DDE98D
:1051100018010022002305F091F8002800F0058214
:105120002898764A431C01340121072BCAF8002035
:10513000CAF80410299428930AF1080A00F34E854E
:105140002098119B984203DB099AD3077FF50DAF96
:10515000289B16981499CAF804005A1C2418072A88
:10516000CAF80010299428920AF1080A00F3408630
:10517000119D013D002D7FF7F8AE102D40F3D08238
:105180002899119FCAF8009010260131123FA419E6
:105190000729CAF80460DFF8688129942891C7F3C9
:1051A00000170AF1080A00F3B286103D102D40F3F3
:1051B000BA8287B1013110340729CAF80090CAF8C1
:1051C0000460299428910AF1080A00F3AE86103D84
:1051D000102D40F3A88222460B9F0A9C10E0411C30
:1051E00010320729CAF80090CAF804600AF1080AC8
:1051F0002891299200F36C81103D102D40F3EC842E
:10520000481C10320728CAF80090CAF80460A5F1BB
:1052100010050AF1080A29922890E0DD3846214657
:1052200027AA04F0F3FC00287FF4E1AA299A289821
:105230000DF1D00AD3E70D9D0C9AAD1A002D7FF722
:10524000D2AD102D40F34B87289B2D4ECAF800900D
:10525000013317961026A5F11107A419072BCAF8D8
:105260000460C7F30017299428930AF1080A00F391
:105270006483103D102D55DD7FB101331034072BB1
:10528000CAF80090CAF80460299428930AF1080A21
:1052900000F38083103D102D44DD22460B9F0A9CB5
:1052A0000EE04B1C1032072BCAF80090CAF80460BD
:1052B0000AF1080A2893299224DC103D102D30DDD4
:1052C000591C10320729CAF80090CAF80460A5F1E9
:1052D00010050AF1080A29922891E2DD3846214694
:1052E00027AA04F093FC00287FF481AA299A289920
:1052F0000DF1D00AD5E700BF88A90008D8A9000899
:10530000DCA900083846214627AA04F07FFC0028C3
:105310007FF46DAA103D102D299A289B0DF1D00A1B
:10532000CEDC1446591C1798641907298AE8210015
:10533000299428910AF1080A7FF755AD0B980A992C
:1053400027AA04F063FC00287FF451AA299C0DF1E0
:10535000D00A48E5119D012D40F3FC82289ACAF835
:105360000080551C01340123072DCAF804300AF1CE
:10537000080A2994289500F31A83169B149801357E
:10538000E418072D8AE809000AF1080A29942895EB
:1053900000F31A83DDE918010022002304F04EFF18
:1053A000002840F04B81119808F10102431E8AE861
:1053B0000C00E4180135072D299428950AF1080AF4
:1053C00000F3DB821B990135641823AA072DCAF864
:1053D0000020CAF804100AF1080A299428957FF7DA
:1053E000C4AD0B980A9927AA04F010FC00287FF49A
:1053F000FEA90DF1D00A299CB7E50B980A9927AAB6
:1054000004F004FC00283FF43DAEFFF7F0B90B9820
:105410000A99079327AA04F0F9FB079B00287FF459
:10542000E6A9299C289A0DF1D00AF9E40B980A996B
:1054300027AA04F0EBFB00287FF4D9A9299C289A1D
:105440000DF1D00AFDE40B980A9927AA04F0DEFBBF
:1054500000287FF4CCA9299C0DF1D00AC0E41A9849
:10546000CDF830E00DF1CF010F26002704EA060247
:105470008318240944EA057C2A0988466446197879
:10548000154654EA050288F8001008F1FF31EDD105
:10549000089DDDF830E0C8EB05060F96FFF7E2BA8D
:1054A000002D08BF0A2C80F05F8144AB303403F834
:1054B000414D089AD11A0F919846FFF7D3BACDF80B
:1054C0003CE00DF1D008FFF7CDBA0223FFF7ECBAAC
:1054D0003846214627AA04F099FB00287FF487A9C3
:1054E000299A28990DF1D00A86E60B980A99CDF8E9
:1054F0001CC027AA04F08AFBDDF81CC000287FF43A
:1055000076A9299A28980DF1D00AFFF71CBA0B98B2
:105510000A9927AA04F07AFB00287FF468A9299A3F
:1055200028980DF1D00AFFF724BA209E002E40F3F0
:105530006283119D159B11989D42A8BF1D4608EBE3
:105540000001002D0F910DDD289ACAF80080531C30
:105550006419072BCAF80450299428930AF1080A01
:1055600000F3C884159825EAE575451B002D40F326
:105570003681102D40F31A81289B8B4FCAF800907A
:1055800010260133A5F11102A419072BCAF80460F3
:10559000129729942893C2F300170AF1080A00F31E
:1055A0009B84103D102D40F3048187B101331034EA
:1055B000072BCAF80090CAF80460299428930AF1CE
:1055C000080A00F3C084103D102D40F3F2802146FC
:1055D00052460B9F0A9C0DE0431CC2F80090566097
:1055E00010310832072B289329911BDC103D102D18
:1055F00040F35784581CC2F80090566010310832AE
:10560000072829912890A5F11005E5DD38462146A7
:1056100027AA04F0FBFA00287FF4E9A82999289822
:1056200034AAD9E73846214627AA04F0EFFA002821
:105630007FF4DDA82999289B34AAD7E7119E013E63
:10564000002E7FF7BFAE102E40F3CB811199564A42
:10565000CAF8009010270135A1F11208E419072DAE
:10566000CAF804700F9229942895C8F300180AF11B
:10567000080A00F30884103E102E40F3B481B8F1FC
:10568000000F10D001351034072DCAF80090CAF869
:105690000470299428950AF1080A00F30F84103E3B
:1056A000102E40F3A0812346DDF82C800A9C0FE0E9
:1056B00001351033072DCAF80090CAF804700AF1BA
:1056C000080A299328951EDC103E102E40F39D8376
:1056D00001351033072DCAF80090CAF80470A6F1FE
:1056E00010060AF1080A29932895E1DD4046214673
:1056F00027AA04F08BFA00287FF479A8299B289D1B
:105700000DF1D00AD4E74046214627AA04F07EFADC
:1057100000287FF46CA8299B289D0DF1D00AD3E7BF
:105720002899DFF8848064194B1CCAF80080CAF8F5
:10573000045013E40B980A9927AA04F067FA00288A
:105740007FF455A8299C289B0DF1D00A2EE40B98D4
:105750000A9927AA04F05AFA00287FF448A8299C3D
:10576000289B0DF1D00A36E40DF1CF06774620468E
:1057700029460A22002304F0BBFD30323270204655
:1057800029460A22002304F0B3FD04460D4654EADC
:105790000501B04606F1FF36E9D10898C8EB0004D0
:1057A000BE460F94FFF75EB9DCA900089549289B17
:1057B0001291591C1298641907298AE8210029942A
:1057C00028910AF1080A0ADD0B980A9927AA04F021
:1057D0001DFA00287FF40BA8299C0DF1D00A209B0C
:1057E0001198159F834247447CDB099AD10779D4ED
:1057F0000F9E119AF61BD21AB242B8BF1646002E5F
:105800000DDD2899CAF80070481CA4190728CAF8A9
:105810000460299428900AF1080A00F3A28326EA7A
:10582000E671551A002D7FF7A0AB102D7FF778AFEA
:105830002898CAF800901026411CA5F11107A41958
:105840000729CAF80460DFF8BC8129942891C7F3BE
:1058500000170AF1080A00F39383103D102D7FF71B
:1058600062AF87B1013110340729CAF80090CAF835
:105870000460299428910AF1080A00F3AF83103DCF
:10588000102D7FF750AF22460B9F0A9C0FE0591C4A
:1058900010320729CAF80090CAF804600AF1080A11
:1058A000289129923CDC103D102D40F395814B1C32
:1058B0001032072BCAF80090CAF80460A5F1100551
:1058C0000AF1080A29922893E1DD3846214627AAE1
:1058D00004F09CF900287EF48AAF299A289B0DF1E8
:1058E000D00AD4E7289A14991698CAF800102418F8
:1058F000511C16980729CAF80400299428910AF126
:10590000080A7FF775AF0B980A9927AA04F07EF969
:1059100000287EF46CAF209B299C0DF1D00A67E72C
:105920003846214627AA04F071F900287EF45FAFBB
:10593000299A28990DF1D00AB5E70B980A9927AA58
:1059400004F064F900287EF452AF299C289B0DF1E5
:10595000D00A8EE4099BDA073FF500AD2898CAF813
:105960000080451C01340121072DCAF804100AF1FA
:10597000080A299428957FF725AD0B980A9927AA3C
:1059800004F044F900287EF432AF0DF1D00A299CCE
:10599000289D17E50B980A9927AA04F037F90028E3
:1059A0007EF425AF299C289B0DF1D00A72E40B9858
:1059B0000A9927AA04F02AF900287EF418AF299C36
:1059C000289D0DF1D00AD8E40B980A9927AA04F073
:1059D0001DF900287EF40BAF299C289D0DF1D00AFB
:1059E000D8E408480F900F9BA41901358AE84800B5
:1059F000E1E42D21644265EB45058DF87B10012320
:105A0000FFF712B8DCA90008CDF81CC004F06EF84E
:105A1000DDF81CC0002800F07281BCF1FF3F00F0EF
:105A2000BC83139F672F00F08883472F00F0858386
:105A3000099A002C42F480711791C0F296830020DD
:105A40001290139F662F00F04F83462F00F04C8377
:105A5000652F00F09F83452F00F09C83674602214D
:105A60008DE8820022A821A920AD32460490234669
:105A7000029503910B98CDF81CC000F025FE139AF7
:105A8000DDF81CC0672A804601D0472A03D1099B54
:105A9000D80740F185831399462908EB070500F0E4
:105AA00039833046214600220023CDF81CC004F083
:105AB000C5FBDDF81CC0E8B9229EB54240F2E48384
:105AC0003346302403F8014BF1436818AB4222936C
:105AD00000F001020DD022B10133AB427470229369
