:020000040800F2
:10000000A8100020FD050008A10D0008AD0D000896
:10001000B50D0008BD0D0008C50D0008000000006A
:10002000000000000000000000000000CD0D0008EE
:10003000D90D000800000000E50D0008F10D0008D2
:100040007D0600087D0600087D0600087D06000884
:100050007D0600087D060008FD0E00087D060008EC
:100060007D0600087D0600087D0600087D06000864
:100070007D0600087D0600087D0600087D06000854
:100080007D0600087D0600087D0600087D06000844
:100090007D0600087D0600087D0600087D06000834
:1000A0007D0600087D0600087D0600087D06000824
:1000B0007D0600087D0600087D0600087D06000814
:1000C0007D0600087D0600087D0600087D06000804
:1000D0007D060008FD0D00087D0600087D0600086D
:1000E0007D0600087D0600087D0600087D060008E4
:1000F0007D0600087D0600087D0600087D060008D4
:100100007D0600087D0600087D0600087D060008C3
:100110007D0600087D0600087D0600087D060008B3
:100120007D0600087D0600087D0600087D060008A3
:100130007D0600087D0600087D0600087D06000893
:100140007D0600087D0600087D0600087D06000883
:100150007D0600087D0600087D0600087D06000873
:100160007D0600087D0600087D0600087D06000863
:100170007D0600087D0600087D0600087D06000853
:100180007D0600087D06000890B484B000AF0246EA
:100190000B46FA71BB714FF00003FB60BB7903F0B3
:1001A00003034FEA83034FF00F0202FA03F3FB60ED
:1001B0004FF46053C4F20103BA794FEA9202D2B20B
:1001C00010464FF46052C4F20102B9794FEA91012E
:1001D000C9B201F1020152F82110FA686FEA020275
:1001E000114000F1020243F822104FF46053C4F2B0
:1001F0000103BA794FEA9202D2B210464FF460522C
:10020000C4F20102B9794FEA9101C9B201F10201C8
:1002100052F82110FC79BA7902F003024FEA820207
:1002200004FA02F2114300F1020243F8221007F12E
:100230001007BD4690BC704780B582B000AF7860B3
:10024000396014E000BF7B681B889BB203F0400359
:10025000002BF8D03B681B78DBB27868194600F0B9
:1002600005F93B681B783B6803F101033B603B6881
:100270001B78DBB2002BE5D107F10807BD4680BD36
:1002800080B58AB000AF786039604FF000037B62C0
:100290004FF000033B624FF00003FB614FF000039F
:1002A000BB617B681B8A9BB27B627B6A23F44053F1
:1002B0007B623B68DB887A6A13437B627B6A9AB213
:1002C0007B681A827B689B899BB27B627B6A23F482
:1002D000B05323F00C037B623B689A883B681B8910
:1002E00013439AB23B685B8913439BB27A6A134308
:1002F0007B627B6A9AB27B689A817B689B8A9BB29D
:100300007B627B6A23F440737B623B689B897A6AD9
:1003100013437B627B6A9AB27B689A8207F1080377
:10032000184600F091FB7A684FF48053C4F2010341
:100330009A4206D07A684FF4A053C4F201039A425D
:1003400002D17B693B6201E03B693B627B689B8930
:100350009BB29BB21BB2002B0FDA3A6A13464FEAEC
:1003600083039B184FEA83029A183B681B684FEA85
:100370004303B2FBF3F3FB610EE03A6A13464FEA24
:1003800083039B184FEA83029A183B681B684FEA65
:100390008303B2FBF3F3FB61FA6948F21F53C5F222
:1003A000EB13A3FB02134FEA53134FEA03137B62D1
:1003B0007B6A4FEA13134FF0640202FB03F3FA69FE
:1003C000D31ABB617B689B899BB29BB21BB2002B8B
:1003D00012DABB694FEAC30303F1320248F21F533A
:1003E000C5F2EB13A3FB02134FEA531303F0070309
:1003F0007A6A13437B6211E0BB694FEA031303F18E
:10040000320248F21F53C5F2EB13A3FB02134FEA6B
:10041000531303F00F037A6A13437B627B6A9AB229
:100420007B681A8107F12807BD4680BD80B483B080
:1004300000AF78600B46FB70FB78002B08D07B6820
:100440009B899BB243F400539AB27B689A8107E080
:100450007B689B899BB223F400539AB27B689A8194
:1004600007F10C07BD4680BC704700BF80B483B065
:1004700000AF78600B467B807B884FEAC3534FEA1E
:10048000D3539AB27B689A8007F10C07BD4680BCB3
:10049000704700BF80B487B000AF786013460A464B
:1004A0007A807B704FF000033B614FF00003FB60EC
:1004B0004FF00003BB604FF000037B617B687B6102
:1004C0007B88DBB24FEA5313DBB23B617B8803F0DE
:1004D0001F03FB60FB684FF0010202FA03F3BB60ED
:1004E0003B69012B04D17B6903F10C037B610BE0B9
:1004F0003B69022B04D17B6903F110037B6103E0AC
:100500007B6903F114037B617B78002B06D07B6948
:100510007A691168BA680A431A6007E07B697A69E8
:100520001168BA686FEA02020A401A6007F11C07F4
:10053000BD4680BC704700BF80B487B000AF786014
:100540000B467B804FF00003FB604FF000037B61A4
:100550004FF00003BB604FF00003FB747B88DBB2FD
:100560004FEA5313DBB2BB607B8803F01F037B6150
:100570007B694FF0010202FA03F37B61BB68012B38
:1005800006D17B689B899BB27A6913407B610FE03F
:10059000BB68022B06D17B681B8A9BB27A69134029
:1005A0007B6105E07B689B8A9BB27A6913407B6123
:1005B0007B884FEA13239BB2FB60FB684FF001027C
:1005C00002FA03F3FB607B681B889BB2FA68134056
:1005D000FB607B69002B06D0FB68002B03D04FF03B
:1005E0000103FB7402E04FF00003FB74FB7C184630
:1005F00007F11C07BD4680BC704700BF80B582B0C4
:1006000000AF44F24003C0F600037B6040F20003F9
:10061000C2F200033B600BE07B681A683B681A601B
:100620003B6803F104033B607B6803F104037B60D8
:100630003A6840F66403C2F200039A42ECD30C48D5
:100640000C494FF000028842B8BF40F8042BFFF677
:10065000FAAFDFF82400016841F47001016000F096
:1006600015FF00F00FF807F10807BD4680BD000038
:1006700064080020A408002088ED00E080B400AFEA
:10068000FEE700BF80B586B000AF40F25043C2F233
:1006900000031B689B6818464FF000014FF00202F0
:1006A0004FF0000302F02AFD4FF000037B614FF092
:1006B00000037B6103E07B6903F101037B617A69DD
:1006C00048F29F63C0F201039A42F4D93B464FF0CF
:1006D00000021A6003F104034FF000021A6003F1F4
:1006E00004034FF000021A6003F1040301F018F94B
:1006F00000F024FE01F04AF800F054FC4FF4805062
:10070000C4F2010043F6A071C0F60001FFF794FDAA
:1007100001F0AAFE01F0EEFC01F000FD0346012B02
:100720000AD14FF48050C4F2010043F6C471C0F600
:100730000001FFF781FD09E04FF48050C4F2010091
:1007400043F6F471C0F60001FFF776FD6FF0040088
:1007500043F2A071C0F2A00100F05CFE3B461846D7
:1007600001F058FD42F6E163C4F265233B613B882A
:100770001BB206EE903AB8EEE67ABB881BB206EEE4
:10078000903AF8EEE67A17EE100A17EE901A02F099
:1007900009F807EE100AD7ED047A67EE277AC7ED5D
:1007A000037AFEE780B400AF4FF46053C4F2020353
:1007B0004FF46052C4F20202126842F001021A6061
:1007C0004FF46053C4F202034FF000029A604FF4FA
:1007D0006053C4F202034FF46052C4F20202126882
:1007E00022F0847222F480321A604FF46053C4F213
:1007F000020343F21002C2F200425A604FF4605307
:10080000C4F202034FF46052C4F20202126822F4EE
:1008100080221A604FF46053C4F202034FF00002CA
:10082000DA60BD4680BC704780B483B000AF034639
:10083000FB7143F60203C4F202034FF000021A7088
:1008400043F60203C4F20203FA791A7007F10C07A7
:10085000BD4680BC704700BF80B582B000AF4FF08E
:1008600000033B604FF00003FB714FF00003BB71CE
:100870004FF0310000F04CFA0346BB713B6803F1C6
:1008800001033B603B68B3F5A06F02D0BB79002B3E
:10089000EED04FF0310000F03BFA0346002B03D0BE
:1008A0004FF00103FB7102E04FF00003FB71FB7995
:1008B000184607F10807BD4680BD00BF80B485B06B
:1008C00000AFF860B9607A603B604FF46053C4F2E7
:1008D00002037A684FEA8211BA6811433A684FEA14
:1008E000520202F1FF324FEA02421143FA68114309
:1008F000BA694FEA02620A435A6007F11407BD461B
:1009000080BC704780B483B000AF0346FB714FF0EA
:100910006003C4F24723FA791A6007F10C07BD4659
:1009200080BC704780B485B000AF78604FF00003A2
:10093000FB604FF46053C4F202039B68FB60FB68EA
:1009400023F00303FB60FA687B681343FB604FF4FA
:100950006053C4F20203FA689A6007F11407BD46B7
:1009600080BC704780B400AF4FF46053C4F2020300
:100970009B68DBB203F00C03DBB21846BD4680BCBB
:10098000704700BF80B485B000AF78604FF00003BF
:10099000FB604FF46053C4F202039B68FB60FB688A
:1009A00023F0F003FB60FA687B681343FB604FF4AD
:1009B0006053C4F20203FA689A6007F11407BD4657
:1009C00080BC704780B485B000AF78604FF0000302
:1009D000FB604FF46053C4F202039B68FB60FB684A
:1009E00023F4E053FB60FA687B681343FB604FF429
:1009F0006053C4F20203FA689A6007F11407BD4617
:100A000080BC704780B485B000AF78604FF00003C1
:100A1000FB604FF46053C4F202039B68FB60FB6809
:100A200023F46043FB607B684FEAC303FA68134317
:100A3000FB604FF46053C4F20203FA689A6007F156
:100A40001407BD4680BC704780B489B000AF7860A1
:100A50004FF00003BB614FF000037B614FF00003D8
:100A6000FB614FF002033B614FF00003FB604FF06E
:100A70000203BB604FF46053C4F202039B6803F0AF
:100A80000C03BB61BB69042B0AD0082B0FD0002BD1
:100A900060D17A684FF41053C0F2F403136060E041
:100AA0007A684FF49053C0F27A03136059E04FF420
:100AB0006053C4F202035B6803F480034FEA93536C
:100AC000FB604FF46053C4F202035B6803F03F0322
:100AD000BB60FB68002B14D04FF49053C0F27A0334
:100AE000BA68B3FBF2F24FF46053C4F202035968E0
:100AF00047F6C0730B404FEA931303FB02F3FB610D
:100B000013E04FF41053C0F2F403BA68B3FBF2F2EF
:100B10004FF46053C4F20203596847F6C0730B40A8
:100B20004FEA931303FB02F3FB614FF46053C4F2EB
:100B300002035B6803F440334FEA134303F10103FC
:100B40004FEA43033B61FA693B69B2FBF3F27B680E
:100B50001A6006E07A684FF41053C0F2F403136091
:100B600000BF4FF46053C4F202039B6803F0F0032C
:100B7000BB61BB694FEA1313BB6140F20003C2F2D1
:100B80000003BA699B181B78DBB27B617B681A682B
:100B90007B6922FA03F27B685A604FF46053C4F217
:100BA00002039B6803F4E053BB61BB694FEA9323E4
:100BB000BB6140F20003C2F20003BA699B181B78C4
:100BC000DBB27B617B685A687B6922FA03F27B683F
:100BD0009A604FF46053C4F202039B6803F46043CD
:100BE000BB61BB694FEA5333BB6140F20003C2F201
:100BF0000003BA699B181B78DBB27B617B685A687B
:100C00007B6922FA03F27B68DA6007F12407BD46AC
:100C100080BC704780B483B000AF78600B46FB7037
:100C2000FB78002B0CD04FF46053C4F202034FF456
:100C30006052C4F20202116B7A680A431A630DE033
:100C40004FF46053C4F202034FF46052C4F2020244
:100C5000116B7A686FEA02020A401A6307F10C0707
:100C6000BD4680BC704700BF80B483B000AF7860E1
:100C70000B46FB70FB78002B0CD04FF46053C4F292
:100C800002034FF46052C4F20202116C7A680A4304
:100C90001A640DE04FF46053C4F202034FF4605243
:100CA000C4F20202116C7A686FEA02020A401A6406
:100CB00007F10C07BD4680BC704700BF80B483B00D
:100CC00000AF78600B46FB70FB78002B0CD04FF424
:100CD0006053C4F202034FF46052C4F20202516C3A
:100CE0007A680A435A640DE04FF46053C4F2020379
:100CF0004FF46052C4F20202516C7A686FEA020249
:100D00000A405A6407F10C07BD4680BC704700BF1B
:100D100080B487B000AF0346FB714FF00003FB6067
:100D20004FF000037B614FF00003FB74FB794FEA47
:100D30005313DBB2FB60FB68012B06D14FF4605309
:100D4000C4F202031B687B610FE0FB68022B06D133
:100D50004FF46053C4F202031B6F7B6105E04FF454
:100D60006053C4F202035B6F7B61FB7903F01F03E6
:100D7000FB60FB687A6922FA03F303F00103002B9E
:100D800003D04FF00103FB7402E04FF00003FB744B
:100D9000FB7C184607F11C07BD4680BC704700BFAE
:100DA00080B400AFBD4680BC704700BF80B400AFC8
:100DB000FEE700BF80B400AFFEE700BF80B400AF25
:100DC000FEE700BF80B400AFFEE700BF80B400AF15
:100DD000BD4680BC704700BF80B400AFBD4680BC3C
:100DE000704700BF80B400AFBD4680BC704700BFF5
:100DF00080B400AFBD4680BC704700BF80B582B0F4
:100E000000AF4FF48050C4F2010040F22551FFF7CB
:100E100093FB0346002B6CD04FF48053C4F20103C4
:100E20009B889BB2FB71FB79212B3BD040F664037E
:100E3000C2F200031B78132B34D840F66403C2F2CD
:100E400000031B781A4640F21003C2F20003F9793E
:100E5000995440F66403C2F200031B7803F10103C6
:100E6000DAB240F66403C2F200031A7041E040F6C1
:100E70006403C2F200031B781A4640F21003C2F268
:100E800000034FF02001995440F66403C2F20003BE
:100E90001B7803F10103DAB240F66403C2F20003E7
:100EA0001A7000E000BF40F66403C2F200031B7832
:100EB000142BDCD940F21003C2F200034FF00A02F7
:100EC0001A7540F21003C2F200034FF00D025A757A
:100ED00040F66403C2F200034FF000021A704FF4B0
:100EE0008050C4F2010040F21001C2F20001FFF78D
:100EF000A3F907F10807BD4680BD00BF80B586B0E5
:100F000000AF4FF00000C4F202004FF0010100F00A
:100F10001FF90346FB744FF47A737B6103E07B692E
:100F200003F1FF337B617B69002BF8D14FF00000A8
:100F3000C4F202004FF0010100F00AF90346BB744D
:100F40004FF0010000F0FEFF0346002B26D0FA7C94
:100F5000BB7C9A4222D1FB7C002B1FD14FF4406016
:100F6000C4F202004FF4805100F01EF944F2140361
:100F7000C0F6000307F1040293E8030082E80300CF
:100F800007F10403FB604FF48050C4F20100F968DC
:100F9000FFF752F94FF0010001F000F807F11807D0
:100FA000BD4680BD80B584B000AF4FF496433B6032
:100FB0004FF00003BB804FF00003FB804FF00003B5
:100FC0003B814FF00003BB814FF00C037B813B461C
:100FD0004FF48050C4F201001946FFF751F94FF465
:100FE0008050C4F201004FF00101FFF71FFA4FF4E7
:100FF0008050C4F2010040F225514FF00102FFF78A
:1010000049FA07F11007BD4680BD00BF80B487B024
:1010100000AF786039604FF000037B614FF0000350
:101020003B614FF00003FB604FF000037B6186E003
:101030007B694FF0010202FA03F33B613B681A68D7
:101040003B691340FB60FA683B699A4273D17B6845
:101050001A687B694FEA43034FF0030101FA03F377
:101060006FEA03031A407B681A607B681A683B6862
:101070001B7919467B694FEA430301FA03F31A43CC
:101080007B681A603B681B79012B03D03B681B7996
:10109000022B34D17B689A687B694FEA43034FF097
:1010A000030101FA03F36FEA03031A407B689A60B5
:1010B0007B689A683B685B7919467B694FEA430312
:1010C00001FA03F31A437B689A607B685A687B696C
:1010D0009BB24FF0010101FA03F36FEA03031A40D8
:1010E0007B685A607B685A683B689B7919467B69C4
:1010F0009BB201FA03F39BB21A437B685A607B6888
:10110000DA687B699BB24FEA43034FF0030101FAAF
:1011100003F36FEA03031A407B68DA607B68DA68DE
:101120003B68DB7919467B694FEA430301FA03F315
:101130001A437B68DA607B6903F101037B617B6999
:101140000F2B7FF675AF07F11C07BD4680BC7047BB
:1011500080B485B000AF78600B467B804FF0000311
:10116000FB737B681A697B881340002B03D04FF018
:101170000103FB7302E04FF00003FB73FB7B184697
:1011800007F11407BD4680BC704700BF80B483B030
:1011900000AF78600B467B807B687A881A8307F102
:1011A0000C07BD4680BC704780B483B000AF786048
:1011B0000B467B807B685A697B885A407B685A6102
:1011C00007F10C07BD4680BC704700BF80B485B0F6
:1011D00000AF786013460A467A807B704FF00003B8
:1011E000FB604FF00003BB607A787B8803F0070355
:1011F0004FEA830302FA03F3FB607B884FEAD303D1
:101200009BB21A467B884FEAD3039BB219467B6890
:1012100001F1080153F821107B8803F007034FEA1E
:1012200083034FF00F0000FA03F36FEA0303194042
:101230007B6802F1080243F822107B884FEAD3034F
:101240009BB21A467B6802F1080253F82220FB6821
:101250001343BB607B884FEAD3039BB21A467B687B
:1012600002F10802B96843F8221007F11407BD46DD
:1012700080BC704780B483B000AF78604FF4705387
:10128000C4F202037A68D2B21A7007F10C07BD46A5
:1012900080BC704780B483B000AF0346FB71FB791C
:1012A000002B0CD04FF47053C4F202034FF4705271
:1012B000C4F20202126842F480721A600BE04FF42A
:1012C0007053C4F202034FF47052C4F20202126867
:1012D00022F480721A6007F10C07BD4680BC70478B
:1012E00080B483B000AF03463960FB7197F90730D3
:1012F000002B10DA4FF46D43CEF20003FA7902F0BE
:101300000F02A2F104013A68D2B24FEA0212D2B23D
:101310005B181A760DE04FF46143CEF2000397F9A3
:1013200007103A68D2B24FEA0212D2B25B1883F8C1
:10133000002307F10C07BD4680BC704780B582B022
:1013400000AF4FF000604FF0000100F0BDFE3B46E3
:101350007B60786800F008F8786800F025F807F1FD
:101360000807BD4680BD00BF80B582B000AF786081
:101370004FF4C06000F022FE7B684FF025021A7027
:101380007B684FF000025A707B684FF000029A7041
:101390007B684FF00102DA70786800F023FE07F1F5
:1013A0000807BD4680BD00BF80B584B000AF78603F
:1013B0004FF4C06000F002FE4FF000004FF000015B
:1013C000FEF7E2FE4FF00103BB604FF000033B73FA
:1013D0004FF00C037B734FF00103BB7307F108035D
:1013E000184600F013FD7B684FF006021A707B6808
:1013F0004FF001025A707B684FF001029A707B68CF
:101400004FF00102DA70786800F0ECFD07F1100788
:10141000BD4680BD80B584B000AF786039603A6861
:101420006FF07F439A422CD84EF21003CEF20003A5
:101430003A6822F07F4202F1FF325A604FF0FF30EB
:101440004FF00001FFF74CFF4EF21003CEF2000305
:101450004FF000029A604FF00303FB607B68042B9F
:1014600004D1FB6843F00403FB6003E0FB6863F016
:101470000403FB604EF21003CEF20003FA681A6018
:1014800000E000BF07F11007BD4680BD80B500AF8A
:101490004FF46D43CEF200034FF46D42CEF20002E2
:1014A000D2F8882042F47002C3F888204FF46053C9
:1014B000C4F202034FF46052C4F20202126842F016
:1014C00001021A604FF46053C4F202034FF00002AD
:1014D0009A604FF46053C4F202034FF46052C4F2B6
:1014E0000202126822F0847222F480321A604FF4F1
:1014F0006053C4F2020343F21002C2F200425A6087
:101500004FF46053C4F202034FF46052C4F202027B
:10151000126822F480221A604FF46053C4F202036E
:101520004FF00002DA6000F009F84FF46D43CEF29C
:1015300000034FF000629A6080BD00BF80B483B0AA
:1015400000AF4FF000037B604FF000033B604FF4AF
:101550006053C4F202034FF46052C4F202021268F4
:1015600042F480321A604FF46053C4F202031B68E5
:1015700003F400333B607B6803F101037B603B684D
:10158000002B03D17B68B3F5A06FECD14FF460530F
:10159000C4F202031B6803F40033002B03D04FF0A6
:1015A00001033B6002E04FF000033B603B68012B0E
:1015B00040F082804FF46053C4F202034FF4605253
:1015C000C4F20202126C42F080521A644FF4E043FB
:1015D000C4F200034FF4E042C4F20002126842F485
:1015E00080421A604FF46053C4F202034FF4605219
:1015F000C4F2020292689A604FF46053C4F202038C
:101600004FF46052C4F20202926842F400429A60BF
:101610004FF46053C4F202034FF46052C4F202026A
:10162000926842F4A0529A604FF46053C4F20203ED
:1016300045F20842C0F240725A604FF46053C4F25F
:1016400002034FF46052C4F20202126842F0807248
:101650001A6000BF4FF46053C4F202031B6803F02A
:101660000073002BF6D04FF47053C4F2020340F223
:1016700005621A604FF46053C4F202034FF46052E3
:10168000C4F20202926822F003029A604FF460539F
:10169000C4F202034FF46052C4F20202926842F0B4
:1016A00002029A6000BF4FF46053C4F202039B68C9
:1016B00003F00C03082BF6D107F10C07BD4680BCE4
:1016C000704700BF80B485B000AF786040F6680313
:1016D000C2F200031B68002B08D140F66803C2F277
:1016E000000341F2A802C2F200021A6040F6680349
:1016F000C2F200031B68FB6040F66803C2F20003FD
:101700001A687B68D21840F66803C2F200031A60B8
:10171000FB68184607F11407BD4680BC704700BF40
:1017200080B483B000AF78604FF0FF33184607F104
:101730000C07BD4680BC704780B485B000AFF86030
:10174000B9607A604FF00003184607F11407BD46F0
:1017500080BC704780B485B000AFF860B9607A6033
:101760004FF00003184607F11407BD4680BC7047D0
:1017700080B485B000AFF860B9607A607B681846C5
:1017800007F11407BD4680BC704700BF80B584B028
:1017900000AF07F10403FB60F86800F00BF8F8688D
:1017A00000F02CF8F86800F09FF807F11007BD462C
:1017B00080BD00BF80B582B000AF78607B684FF419
:1017C00070421A607B684FF002025A717B684FF0DA
:1017D00001021A717B684FF000029A717B684FF02A
:1017E0000102DA714FF44060C4F202007968FFF739
:1017F0000DFC07F10807BD4680BD00BF80B582B073
:1018000000AF78607B684FF040021A607B684FF051
:1018100002025A717B684FF002021A717B684FF026
:1018200000029A717B684FF00102DA714FF4806018
:10183000C4F202007968FFF7E9FB7B684FF0800291
:101840001A607B684FF002025A717B684FF0020207
:101850001A717B684FF000029A717B684FF00102A9
:10186000DA714FF48060C4F202007968FFF7CEFBB2
:101870007B684FF480721A607B684FF002025A71E5
:101880007B684FF001021A717B684FF000029A7179
:101890007B684FF00102DA714FF00000C4F20200E1
:1018A0007968FFF7B3FB4FF48060C4F202004FF099
:1018B00006014FF00702FFF789FC4FF48060C4F285
:1018C00002004FF007014FF00702FFF77FFC4FF0D7
:1018D0000000C4F202004FF48071FFF757FC07F1DB
:1018E0000807BD4680BD00BF80B582B000AF7860FC
:1018F0007B684FF000021A717B684FF00002DA71CA
:101900007B684FF001021A604FF00000C4F2020041
:101910007968FFF77BFB07F10807BD4680BD00BF74
:1019200080B584B002AFFEF73DFF4FF00100FEF737
:101930007BFFFEF791FF0346FB71FB79012B38D14A
:101940004FF00100FFF7A6FC4FF00500FFF792FCF7
:101950004FF00000FFF716F84FF48050FFF752F8F1
:101960004FF4A050FFF72EF84FF0070300934FF409
:1019700080004FF008014FF4A8724FF00203FEF709
:101980009DFF4FF00100FEF7BDFF00BF4FF0390093
:10199000FFF7BEF90346002BF8D04FF00200FEF728
:1019A000C1FF00BFFEF7DEFF0346082BFAD100F0AF
:1019B00005F807F10807BD4680BD00BF80B500AF40
:1019C0004FF008004FF00101FFF724F94FF001003C
:1019D0004FF00101FFF71EF94FF010004FF0010129
:1019E000FFF76CF94FF480404FF00101FFF766F903
:1019F0004FF002004FF00101FFF70CF980BD00BF6E
:101A000080B58AB000AF786039604FF00003FB8486
:101A10004FF000037B844FF00403BB844FF49053DA
:101A2000C0F27A03FB617B689B88FB84FB8C23F00C
:101A30003F03FB8407F10C031846FFF705F87B69A9
:101A4000FB61FA694DF68363C4F21B33A3FB0213F7
:101A50004FEA93437B84FA8C7B8C1343FB847B6833
:101A6000FA8C9A807B681B889BB223F001039AB2A0
:101A70007B681A804FF00003FB843B681A6848F2C9
:101A8000A063C0F201039A4218D83B681B684FEA72
:101A90004303FA69B2FBF3F3BB84BB8C032B02D87C
:101AA0004FF00403BB84FA8CBB8C1343FB847B8C08
:101AB00003F101039AB27B681A844BE03B68DA8831
:101AC0004BF6FF739A420AD13B681A6813464FEAF5
:101AD00043039B18FA69B2FBF3F3BB8410E03B6845
:101AE0001A6813464FEA83039B184FEA83029B1838
:101AF000FA69B2FBF3F3BB84BB8C43F48043BB8431
:101B0000BB8C4FEA03534FEA1353002B03D1BB8C1A
:101B100043F00103BB84BA8CFB8C13439BB26FEA86
:101B200043436FEA5343FB847B8C4FF4967202FB72
:101B300003F244F6D353C1F2620383FB02134FEA6C
:101B4000A3114FEAE273CB1A9BB203F101039AB2DD
:101B50007B681A847B68FA8C9A837B681B889BB2AB
:101B600043F001039AB27B681A807B681B88FB8470
:101B7000FB8C23F4816323F00203FB843B689A8887
:101B80003B685B8913439AB2FB8C1343FB847B68ED
:101B9000FA8C1A803B689A893B681B8913439AB276
:101BA0007B681A8107F12807BD4680BD80B483B0E9
:101BB00000AF78600B46FB70FB78002B08D07B6889
:101BC0001B889BB243F001039AB27B681A8007E03E
:101BD0007B681B889BB223F001039AB27B681A8052
:101BE00007F10C07BD4680BC704700BF80B483B0CE
:101BF00000AF78600B46FB70FB78002B08D07B6849
:101C00001B889BB243F480739AB27B681A8007E00A
:101C10007B681B889BB223F480739AB27B681A801E
:101C200007F10C07BD4680BC704700BF80B483B08D
:101C300000AF78600B46FB70FB78002B08D07B6808
:101C40001B889BB243F400739AB27B681A8007E04A
:101C50007B681B889BB223F400739AB27B681A805E
:101C600007F10C07BD4680BC704700BF80B483B04D
:101C700000AF786013460A46FA70BB70BB78002B41
:101C800004D0FB7843F00103FB7003E0FB7823F002
:101C90000103FB70FB789AB27B681A8207F10C078C
:101CA000BD4680BC704700BF80B483B000AF786091
:101CB0000B46FB70FB78002B08D07B681B889BB21F
:101CC00043F480639AB27B681A8007E07B681B88C4
:101CD0009BB223F480639AB27B681A8007F10C07E9
:101CE000BD4680BC704700BF80B483B000AF786051
:101CF0000B46FB70FB789AB27B681A8207F10C07DF
:101D0000BD4680BC704700BF80B483B000AF786030
:101D10007B681B8A9BB2DBB2184607F10C07BD46F5
:101D200080BC704780B487B000AF786039604FF0F6
:101D300000033B614FF00003FB604FF00003BB600A
:101D40004FF00003FB757B689B8A9BB2FB607B684E
:101D50001B8B9BB2BB60BB684FEA0343BB60FA6856
:101D6000BB68134323F07F433B613A693B681A40E9
:101D70003B689A4203D14FF00103FB7502E04FF03C
:101D80000003FB75FB7D184607F11C07BD4680BCB0
:101D9000704700BF80B487B000AF786039604FF003
:101DA0000003FB754FF000033B614FF00003FB6045
:101DB0007B68FB603B684FEA13733B613B6823F031
:101DC0007F433B603B69002B04D0FB6803F11403A5
:101DD000FB6007E03B684FEA13433B60FB6803F19D
:101DE0001803FB60FB681A683B681340002B03D0A4
:101DF0004FF00103FB7502E04FF00003FB75FB7D24
:101E0000184607F11C07BD4680BC704780B485B0FA
:101E100000AF78604FF00003FB604FF47053C4F2E2
:101E20000103FB607B689B79002B78D04FF47053E3
:101E3000C4F201034FF47052C4F2010211687A68CF
:101E400012686FEA02020A401A604FF47053C4F23B
:101E500001034FF47052C4F2010251687A681268AB
:101E60006FEA02020A405A607B681B79FA68D3184D
:101E7000FB60FB68FA6811687A6812680A431A60A6
:101E80004FF47053C4F201034FF47052C4F20102D4
:101E900091687A6812686FEA02020A409A604FF409
:101EA0007053C4F201034FF47052C4F20102D168BE
:101EB0007A6812686FEA02020A40DA607B685B792E
:101EC000102B1AD14FF47053C4F201034FF4705227
:101ED000C4F2010291687A6812680A439A604FF46A
:101EE0007053C4F201034FF47052C4F20102D1687E
:101EF0007A6812680A43DA601FE04FF47053C4F244
:101F00000103FB607B685B79FA68D318FB60FB68B0
:101F1000FA6811687A6812680A431A600DE07B68F3
:101F20001B79FA68D318FB60FB68FA6811687A6855
:101F300012686FEA02020A401A6007F11407BD46F0
:101F400080BC704780B485B000AF78604FF000036C
:101F5000FB734FF00003BB604FF47053C4F20103F6
:101F60001A687B681340BB604FF47053C4F20103DE
:101F70005A697B681340002B06D0BB68002B03D046
:101F80004FF00103FB7302E04FF00003FB73FB7B98
:101F9000184607F11407BD4680BC704780B483B073
:101FA00000AF78604FF47053C4F201037A685A614D
:101FB00007F10C07BD4680BC704700BF80B483B0FA
:101FC00000AF78604FF46D43CEF200037A6842F0C0
:101FD000BF6242F40032DA6007F10C07BD4680BCF4
:101FE000704700BF80B485B000AF78604FF0000349
:101FF000FB734FF00003BB734FF00F037B737B68E1
:10200000DB78002B45D04FF46D43CEF20003DB6844
:102010006FEA030303F4E0634FEA1323FB73FB7BD4
:10202000C3F10403BB737A7BFB7B42FA03F37B733C
:102030007B685B781A46BB7B02FA03F3FB737B6811
:102040009A787B7B1340DAB2FB7B1343FB73FB7BF9
:102050004FEA0313FB734FF46143CEF200037A6837
:1020600012789B18FA7B83F800234FF46143CEF279
:1020700000037A6812784FEA5212D2B2796809786E
:1020800001F01F014FF0010000FA01F143F82210A6
:1020900014E04FF46143CEF200037A6812784FEAFD
:1020A0005212D2B27968097801F01F014FF0010095
:1020B00000FA01F102F1200243F8221007F114079F
:1020C000BD4680BC704700BF80B483B000AF78606D
:1020D00039604FF46D43CEF200033A6822F060425B
:1020E00022F07F0279680A439A6007F10C07BD4627
:1020F00080BC704780B500AF4FF0010000F036F8AB
:102100004FF0000000F048F84FF0000000F05AF8DF
:102110004FF0000000F06CF880BD00BF80B500AF4C
:1021200000F00AF80346342B02D14FF0010301E01E
:102130004FF00003184680BD80B584B002AF4FF069
:102140000003FB7107F1070300934FF0D0004FF03D
:1021500075014FF006024FF0060300F04DF9FB79D0
:10216000184607F10807BD4680BD00BF80B584B0A2
:1021700002AF0346FB71FB7900934FF0D0004FF0A4
:102180006B014FF002024FF0030300F0ADF807F1CE
:102190000807BD4680BD00BF80B584B002AF0346CE
:1021A000FB71FB7900934FF0D0004FF01B014FF013
:1021B00004024FF0020300F097F807F10807BD464C
:1021C00080BD00BF80B584B002AF0346FB71FB79D0
:1021D00000934FF0D0004FF01C014FF004024FF07D
:1021E000020300F081F807F10807BD4680BD00BF7B
:1021F00080B582B000AF0346FB71FB794FF0D00091
:102200004FF06B014FF0060200F0B8F807F1080735
:10221000BD4680BD80B588B000AF786007F10C0383
:102220004FF0D00019464FF03B024FF00E0300F084
:10223000E9F94FF00003FB614FF00003FB6121E07F
:10224000FB694FEA43037A68D318FA694FEA4202FE
:1022500007F12000821812F8142C4FEA022291B2E2
:10226000FA694FEA420202F1010207F120008218E6
:1022700012F8142C8A1892B292B21A80FB6903F1F8
:102280000103FB61FB69022BDADD4FF00403FB6104
:1022900023E0FB6903F1FF334FEA43037A68D31865
:1022A000FA694FEA420207F120018A1812F8142C49
:1022B0004FEA022291B2FA694FEA420202F10102A8
:1022C00007F12000821812F8142C8A1892B292B2E8
:1022D0001A80FB6903F10103FB61FB69062BD8DD62
:1022E00007F12007BD4680BD80B584B000AFF8710E
:1022F000B9717A713B71F97907F10E02BB79084621
:1023000011461A464FF0010300F07CF93B794FF07B
:10231000010202FA03F303F1FF3279793B79CB1A18
:1023200003F1010302FA03F3FB733A7E79793B79F7
:10233000CB1A03F1010302FA03F33B763A7EFB7BEF
:1023400013403B76FB7B6FEA0303DAB2BB7BDBB265
:102350001340DBB2DBB2BB73BA7B3B7E1343DBB211
:10236000BB73F97907F10E02BB79084611461A468C
:1023700000F0D8F807F11007BD4680BD80B584B0E5
:1023800000AFF871B9717A713B71F97907F10F02F9
:10239000BB79084611461A464FF0010300F032F9A6
:1023A0003B79002B0BD07B794FF0010202FA03F34B
:1023B000DAB2FB7BDBB21343DBB2DBB20DE07B793D
:1023C0004FF0010202FA03F3DBB26FEA0303DAB261
:1023D000FB7BDBB21340DBB2DBB2FB73F97907F1B5
:1023E0000F02BB79084611461A4600F09BF807F128
:1023F0001007BD4680BD00BF80B584B000AFF87146
:10240000B9717A713B71F97907F10E02BB7908460F
:1024100011461A464FF0010300F0F4F83B794FF0F3
:10242000010202FA03F303F1FF3279793B79CB1A07
:1024300003F1010302FA03F3FB73BA7BFB7B134046
:10244000DBB2BB73BB7B1A4679793B79CB1A03F1BC
:10245000010342FA03F3DBB2BB73BA7BBB691A70A8
:1024600007F11007BD4680BD80B586B000AF4FF4C0
:1024700080004FF00101FEF7F7FB4FF002004FF034
:102480000101FEF71BFC4FF440633B604FF0020379
:102490007B714FF002033B713B464FF48060C4F206
:1024A00002001946FEF7B2FD4FF48060C4F202004C
:1024B0004FF00A014FF00402FEF788FE4FF48060EF
:1024C000C4F202004FF00B014FF00402FEF77EFE53
:1024D0004FF00003BB814BF6FF73FB814FF0D0033D
:1024E0003B824FF480637B824FF48043BB8248F28F
:1024F000A063C0F20103BB6007F108034FF4B040D2
:10250000C4F200001946FFF77BFA4FF4B040C4F262
:1025100000004FF00101FFF749FB07F11807BD4626
:1025200080BD00BF80B582B000AF3960134602465F
:10253000FA71BB714FF4B040C4F200004FF00101DA
:10254000FFF754FB00BF4FF4B040C4F200004FF05F
:102550000101C0F20301FFF7E5FB0346002BF2D0B7
:10256000FB794FF4B040C4F2000019464FF000026E
:10257000FFF77CFB00BF4FF4B040C4F200004FF007
:102580008201C0F20701FFF7CDFB0346002BF2D01A
:10259000BB794FF4B040C4F200001946FFF7A4FB2A
:1025A00000BF4FF4B040C4F200004FF08401C0F20D
:1025B0000701FFF7B7FB0346002BF2D03B681B78FF
:1025C0004FF4B040C4F200001946FFF78DFB00BF86
:1025D0004FF4B040C4F200004FF08401C0F2070194
:1025E000FFF7A0FB0346002BF2D04FF4B040C4F23B
:1025F00000004FF00101FFF719FB07F10807BD4686
:1026000080BD00BF80B582B000AF39600146F9716E
:10261000BA71BB8000BF4FF4B040C4F200004FF469
:102620000031FFF7B7FB0346002BF4D14FF4B04065
:10263000C4F200004FF00101FFF7D8FA00BF4FF4D9
:10264000B040C4F200004FF00101C0F20301FFF7F7
:1026500069FB0346002BF2D0FB794FF4B040C4F283
:10266000000019464FF00002FFF700FB00BF4FF4D7
:10267000B040C4F200004FF08201C0F20701FFF742
:1026800051FB0346002BF2D04FF4B040C4F20000DF
:102690004FF00101FFF78AFABB794FF4B040C4F262
:1026A00000001946FFF720FB00BF4FF4B040C4F212
:1026B00000004FF08401C0F20701FFF733FB03462F
:1026C000002BF2D04FF4B040C4F200004FF00101F3
:1026D000FFF78CFA00BF4FF4B040C4F200004FF097
:1026E0000101C0F20301FFF71DFB0346002BF2D0EE
:1026F000FB794FF4B040C4F2000019464FF00102DC
:10270000FFF7B4FA00BF4FF4B040C4F200004FF03E
:102710000201C0F20301FFF705FB0346002BF2D0D4
:1027200031E0BB88012B0FD14FF4B040C4F2000060
:102730004FF00001FFF7B8FA4FF4B040C4F20000C8
:102740004FF00101FFF772FA4FF4B040C4F20000FD
:102750004FF04001C0F20301FFF7E4FA0346002BFB
:1027600011D04FF4B040C4F20000FFF7CDFA034699
:102770001A463B681A703B6803F101033B60BB8853
:1027800003F1FF33BB80BB88002BCAD14FF4B040AC
:10279000C4F200004FF00101FFF786FA07F10807C5
:1027A000BD4680BD00F000B8F8B521F00044B4F19A
:1027B000FF4F034617DC20F00045B5F1FF4F0646FA
:1027C00011DCB1F17E5F42D08F1707F0020040EAC2
:1027D000D37775B9022F35D0032F08D140F6DB73BC
:1027E000CCF2490303E0184600F0BAF90346184654
:1027F000F8BDD4B1B4F1FF4F2DD0B5F1FF4F14D0D7
:102800002C1BE4153C2C18DC002952DB184600F088
:1028100063FB00F09BF900F06DF8012F46D0022F0A
:1028200035D0002F25D10346E1E7002E40F6DB73BB
:102830001CDBC3F6C9731846F8BD40F6DB70C3F65F
:10284000C970EAE740F6DB73C4F24903CFE7BDE89D
:10285000F84000F04FB8B5F1FF4F2FD0022FF1D064
:10286000032FBBD0012F34D00023C0E7CBF6C973B0
:10287000BDE74BF62E51C3F2BB3100F071F940F6C3
:10288000DB71C4F2490100F069F90346AFE74BF68A
:102890002E51C3F2BB3100F063F9014640F6DB7004
:1028A000C4F2490000F05AF90346A0E700F10043E2
:1028B0009DE714F13C0FA9DA0020AEE7022F13D0F8
:1028C000032F0CD0012F40F6DB7305D0C3F64973FC
:1028D0008DE74FF000438AE7CBF6497387E74CF664
:1028E000E433CCF2160382E74CF6E433C4F2160369
:1028F0007DE700BF2DE9F04120F00045B5F1A14F83
:10290000044606460DDBB5F1FF4F00F39C8000281E
:1029100040F6DB7440F3D480C3F6C9742046BDE8AA
:10292000F0814FF6FF73C3F6DF639D4200F3A28090
:10293000B5F1445FC0F28E804FF0FF37214620464C
:1029400000F016FA0146804600F012FA46F6D7115A
:10295000C3F68541054600F00BFA4DF65921C3F642
:102960004B5100F0FDF8294600F002FA46F63531E9
:10297000C3F6885100F0F4F8294600F0F9F942F660
:102980006E61C3F6BA5100F0EBF8294600F0F0F999
:1029900044F62511C3F6126100F0E2F8294600F072
:1029A000E7F94AF6AB21C3F6AA6100F0D9F841462F
:1029B00000F0DEF94AF221218046CBF61551284677
:1029C00000F0D6F94FF26B11C3F66E5100F0C6F865
:1029D000294600F0CDF948F29571C3F69D5100F0FB
:1029E000BDF8294600F0C4F948F63861C3F6E35152
:1029F00000F0B4F8294600F0BBF94CF6CD41C3F61F
:102A00004C6100F0ABF8294600F0B2F97B1C01469E
:102A1000404658D000F0A4F8214600F0A9F9494BEF
:102A200053F8271000F09AF8214600F097F8014675
:102A3000454850F8270000F091F8002E3DDB044691
:102A40002046BDE8F081014600F08AF804462046A1
:102A5000BDE8F0814FF2CA21C7F2491100F080F8B9
:102A60004FF07E5100F040FB00283FF465AF204658
:102A7000BDE8F08100F06AF84FF6FF71C3F6977178
:102A80008D4204464FF6FF7228DCC3F62F72954242
:102A900046DC014600F064F84FF07E5100F05EF82D
:102AA0004FF080410546204600F05AF8014628467E
:102AB00000F012FA0027044640E700F100442DE739
:102AC000CBF6C9742AE700F04BF8214600F050F924
:102AD0000146204600F042F804461FE7C4F21B02FC
:102AE000954214DC4FF07F5100F038F84FF07F51E1
:102AF0000546204600F03CF94FF07E5100F030F8DA
:102B00000146284600F0E8F90227044616E70020AF
:102B10002146CBF6807000F0DFF9032704460DE76D
:102B20004FF07E5100F01AF84FF07E5107462046D4
:102B300000F016F80146384600F0CEF901270446A9
:102B4000FCE600BF1C4000082C40000820F00040BC
:102B5000704700BF80F0004002E000BF81F00041FC
:102B600042001FBF5FEA410392EA030F7FEA226C33
:102B70007FEA236C6AD04FEA1262D2EB1363C1BFC3
:102B8000D218414048404140B8BF5B42192B88BF32
:102B9000704710F0004F40F4000020F07F4018BF55
:102BA000404211F0004F41F4000121F07F4118BF75
:102BB000494292EA030F3FD0A2F1010241FA03FC1D
:102BC00010EB0C00C3F1200301FA03F100F0004305
:102BD00002D5494260EB4000B0F5000F13D3B0F1CD
:102BE000807F06D340084FEA310102F10102FE2A3C
:102BF00051D2B1F1004F40EBC25008BF20F00100AC
:102C000040EA03007047490040EB000010F4000F59
:102C1000A2F10102EDD1B0FA80FCACF1080CB2EBEC
:102C20000C0200FA0CF0AABF00EBC250524218434B
:102C3000BCBFD0401843704792F0000F81F40001F0
:102C400006BF80F400000132013BB5E74FEA4103C3
:102C50007FEA226C18BF7FEA236C21D092EA030F2F
:102C600004D092F0000F08BF0846704790EA010FA9
:102C70001CBF0020704712F07F4F04D1400028BFD6
:102C800040F00040704712F100723CBF00F50000B8
:102C9000704700F0004343F0FE4040F400007047EE
:102CA0007FEA226216BF08467FEA2363014642029A
:102CB00006BF5FEA412390EA010F40F480007047AD
:102CC0004FF0000304E000BF10F0004348BF404253
:102CD0005FEA000C08BF704743F0964301464FF08F
:102CE00000001CE050EA010208BF70474FF00003EB
:102CF0000AE000BF50EA010208BF704711F000432C
:102D000002D5404261EB41015FEA010C02BF8446FB
:102D10000146002043F0B64308BFA3F18053A3F55A
:102D20000003BCFA8CF2083AA3EBC25310DB01FAA1
:102D300002FC634400FA02FCC2F12002BCF1004F25
:102D400020FA02F243EB020008BF20F001007047B6
:102D500002F1200201FA02FCC2F1200250EA4C000A
:102D600021FA02F243EB020008BF20EADC70704750
:102D70004FF0FF0C1CEAD0521EBF1CEAD15392EA5E
:102D80000C0F93EA0C0F6FD01A4480EA010C40023A
:102D900018BF5FEA41211ED04FF0006343EA501094
:102DA00043EA5111A0FB01310CF00040B1F5000FD6
:102DB0003EBF490041EAD3715B0040EA010062F185
:102DC0007F02FD2A1DD8B3F1004F40EBC25008BF6F
:102DD00020F00100704790F0000F0CF0004C08BF8D
:102DE00049024CEA502040EA51207F3AC2BFD2F15A
:102DF000FF0340EAC250704740F400004FF0000368
:102E0000013A5DDC12F1190FDCBF00F000407047A1
:102E1000C2F10002410021FA02F1C2F1200200FADF
:102E200002FC5FEA310040F1000053EA4C0308BFA6
:102E300020EADC70704792F0000F00F0004C02BFF7
:102E4000400010F4000F013AF9D040EA0C0093F072
:102E5000000F01F0004C02BF490011F4000F013BCC
:102E6000F9D041EA0C018FE70CEAD15392EA0C0F3A
:102E700018BF93EA0C0F0AD030F0004C18BF31F0A5
:102E8000004CD8D180EA010000F00040704790F07B
:102E9000000F17BF90F0004F084691F0000F91F01F
:102EA000004F14D092EA0C0F01D142020FD193EAE5
:102EB0000C0F03D14B0218BF084608D180EA01006D
:102EC00000F0004040F0FE4040F40000704740F049
:102ED000FE4040F4400070474FF0FF0C1CEAD05217
:102EE0001EBF1CEAD15392EA0C0F93EA0C0F69D073
:102EF000A2EB030280EA010C49024FEA402037D0DE
:102F00004FF0805343EA111143EA10130CF00040D4
:102F10008B4238BF5B0042F17D024FF4000C8B42C4
:102F200024BF5B1A40EA0C00B3EB510F24BFA3EBA4
:102F3000510340EA5C00B3EB910F24BFA3EB910374
:102F400040EA9C00B3EBD10F24BFA3EBD10340EACE
:102F5000DC001B0118BF5FEA1C1CE0D1FD2A3FF614
:102F600050AF8B4240EBC25008BF20F001007047C9
:102F70000CF0004C4CEA50207F32C2BFD2F1FF036C
:102F800040EAC250704740F400004FF00003013A9D
:102F900037E792F0000F00F0004C02BF400010F441
:102FA000000F013AF9D040EA0C0093F0000F01F055
:102FB000004C02BF490011F4000F013BF9D041EA77
:102FC0000C0195E70CEAD15392EA0C0F08D14202AA
:102FD0007FF47DAF93EA0C0F7FF470AF084676E77D
:102FE00093EA0C0F04D14B023FF44CAF08466EE756
:102FF00030F0004C18BF31F0004CCAD130F0004224
:103000007FF45CAF31F000437FF43CAF5FE700BF7B
:103010004FF0FF3C06E000BF4FF0010C02E000BFA4
:103020004FF0010C4DF804CD4FEA40024FEA410346
:103030007FEA226C18BF7FEA236C11D001B052EAFC
:10304000530C18BF90EA010F58BFB2EB030088BFC2
:10305000C81738BF6FEAE17018BF40F00100704731
:103060007FEA226C02D15FEA402C05D17FEA236C13
:10307000E4D15FEA412CE1D05DF8040B704700BF5A
:10308000844608466146FFE70FB5FFF7C9FF0028F1
:1030900048BF10F1000F0FBD4DF808EDFFF7F4FF2A
:1030A0000CBF012000205DF808FB00BF4DF808EDC3
:1030B000FFF7EAFF34BF012000205DF808FB00BFE6
:1030C0004DF808EDFFF7E0FF94BF012000205DF808
:1030D00008FB00BF4DF808EDFFF7D2FF94BF0120B9
:1030E00000205DF808FB00BF4DF808EDFFF7C8FFB2
:1030F00034BF012000205DF808FB00BF2DE9F84334
:10310000DFF80481D8F800500446894616461F4669
:1031100015B1AB6B002B4ED0022E2ED8002F2CDB1E
:103120002146D8F8000000F071F8A38903F080016F
:10313000002208B26260A26118BB4FF67C751D4088
:10314000022EA58129D0B9F1000F3ED0012E36D034
:10315000D8F800302B4A05F0080108B2DA63C4F849
:103160000090C4F81090676148B115F0030F18BFC4
:103170000027A7600020BDE8F8834FF0FF30BDE8CE
:10318000F883214D2169286800F098F9A3894FF64A
:103190007C751D40022EA581D5D1002004F143038A
:1031A00045F0020500210122A581A1602360236171
:1031B0006261BDE8F883284600F00AF9ACE745F003
:1031C00001057842A581A061C2E7002F08BF4FF436
:1031D0008067384600F098FA814628B1A18941F00D
:1031E000800295B2A581B1E74FF4806000F08CFABF
:1031F000814618B9A5894FF0FF30CFE74FF48067BB
:10320000ECE700BF75330008500400202DE9F041C1
:103210000D46804610B1836B002B62D0A889E0B1C7
:1032200000F0080211B2D9B12E69B6B183072C683B
:1032300008BF6B692E6018BF0023A41BAB600AE0B7
:10324000324623466F6AE9694046B8470028C0EB1A
:103250000404064452DD002CF2DC0020BDE8F081BD
:103260006A6840F40061002AA9814FDDAC6A002C35
:10327000F3D000F4805632B20020D8F80060C8F8CD
:103280000000002A30D02A6D01F0040001B229B1FB
:1032900068682B6B121A0BB1E96B521A0023404677
:1032A000E969A047421C35D0AB892A6903F48051F3
:1032B00023F40063AB8109B2002385E80C000029E8
:1032C00044D1296BC8F800600029C6D005F1400040
:1032D000814202D0404600F0F1F800202863BDE8AA
:1032E000F08100F075F899E7E96901234046A047AD
:1032F000411C02462CD0A989AC6AC5E7AA8942F0D4
:103300004003AB814FF0FF30BDE8F081EB6B002B49
:10331000ACDCA2E7D8F8003063B11D2B01D0162B2E
:1033200021D1A8892B6920F400620021AA8169605B
:103330002B60C6E7AA8929696B6002F480531BB22F
:1033400022F40062AA812960002BBAD02865B8E770
:10335000D8F800100029CED01D2901D01629CDD1D2
:10336000C8F8006079E7AA8942F04001A981BDE868
:10337000F08100BF43F64171C0F6000100F068B96A
:10338000002310B504468181C281036043608360DD
:1033900043660361436183611946082200F15C00C2
:1033A00000F068FC43F6CD5043F6F15143F6356228
:1033B00043F65963C0F60000C0F60001C0F60002F3
:1033C000C0F60003E46120626162A262E36210BDA4
:1033D000836B70B5044603B170BD0F4AC4F8E03288
:1033E000E26301251A4604F53B7603230421C4F861
:1033F000E4324068A563C4F8E862FFF7C1FFA06843
:1034000009212A46FFF7BCFFE06812210222BDE82D
:103410007040FFF7B5BF00BF75330008704700BFAD
:10342000704700BFF8B5224D0F46044600F0B8FCC7
:10343000AB685E6826F0030606F6EF70C11B0A0B48
:10344000571E3F03B7F5805F07DB0021204600F0E1
:10345000ABFCAB689919884204D0204600F0A2FC6E
:103460000020F8BD7942204600F09EFC01300DD0CE
:10347000104BA8681A68F61B46F00106D71B466079
:1034800020461F6000F08EFC0120F8BD0021204680
:1034900000F08AFCAB68C21A0F2ADEDD0649096813
:1034A000401A044942F0010208605A60D5E700BFA3
:1034B0005404002078080020600800202DE9F04125
:1034C0000D460646002955D000F06AFC55F8041C4C
:1034D000DFF86CC1A5F1080421F00103E218DCF863
:1034E00008005768904227F0030765D011F00101EA
:1034F000576032D00021D0194068C00706D4DB19CC
:10350000906800294AD0D268C260906043F0010000
:103510006060E350E1B9B3F5007F2DD35A0A042A65
:1035200066D89809383042000CEB820E4449DEF828
:103530000820724562D0506820F003018B4202D20D
:1035400092689645F7D1D068E060A260D46084604C
:103550003046BDE8F04100F025BC55F8085C641B1E
:103560000CF10808A06840452B443FD0E568C560D1
:10357000A860C0E7BDE8F081DD080CEBC502DCF80F
:1035800004009168E260AB10012505FA03F31843CB
:10359000A160CCF804009460CC60D9E7294DA84222
:1035A000B1D143F00102CCF81440CCF81040E060F7
:1035B000A0606260E350CBE7FF18CB0707D455F853
:1035C000081C641A7F18E368A068C36098601E4AEC
:1035D000CCF80840116847F001038F426360B7D30D
:1035E0001A4A30461168FFF71DFFB1E7012182E753
:1035F000142A0CD802F15B00420095E74B6880105A
:10360000012505FA00F003434B6010469CE7542A5D
:1036100003D8180B6E30420086E7B2F5AA7F03D8B4
:10362000D80B773042007FE740F254518A4203D8EA
:10363000980C7C30420077E7FC227E2074E700BFC4
:10364000540400205C0400205C0800207408002062
:103650002DE9F04780468946FFF7E0FE18F53878F7
:103660004FD04FF0000AD8F80450D8F80840013D78
:103670003DD4B4F90C3005F001063BB1B4F90E00AD
:10368000431C03D02046C8474AEA000A68346F1E2C
:103690006DB376B1B4F90C1039B1B4F90E20531CE6
:1036A00003D02046C8474AEA000A013F68347B1C21
:1036B0001DD0B4F90C6004F168053EB1B4F90E30C8
:1036C0000133204602D0C8474AEA000AB5F90C4047
:1036D0007E1E3CB1B5F90E707B1C284602D0C8474F
:1036E0004AEA000A05F16804771E002EE1D1D8F8F5
:1036F0000080B8F1000FB6D1FFF792FE5046BDE84A
:10370000F087C246F8E700BF40F25043C2F2000320
:103710000146186800F000B82DE9F04F01F10B05E3
:10372000162D83B0064627D935F0070527D4A942C0
:1037300025D8304600F034FBB5F5FC7F23D2BA4FD4
:103740004FEAD50C07EBCC02D468944200F0DE813E
:103750006368E268A16823F003002318CA60586810
:10376000916040F001025A60304600F01BFB0834C3
:10377000204603B0BDE8F08F1025A942D9D90C240A
:1037800034600024F4E75FEA552C00F08B80BCF134
:10379000040F00F255814FEA951707F1380E4FEAF2
:1037A0004E01A14F07EB8101CC68A14205D10CE08D
:1037B000002A7CDAE468A14207D0636823F00300A2
:1037C000421B0F2AF4DD0EF1FF3E0EF1010C964B69
:1037D0003C6903F1080E744500F07581616821F0C1
:1037E00003014A1B0F2A00F35B81002AC3F814E08F
:1037F000C3F810E069DAB1F5007F80F02F81CA08C4
:1038000003EBC2014FF00109921009FA02F95A685C
:103810008868E16049EA0209A060C3F804908C60FE
:10382000C46001204FEAAC0400FA04F0484556D8C1
:1038300019EA000F07D12CF0030C400019EA000F21
:103840000CF1040CF9D007EBCC094C46E046E368D8
:103850009C4207D13AE1002A80F26281DB689C42F7
:1038600000F03481596821F003014A1B0F2AF2DD70
:103870001C465919D86854F808CF8A5045F00105FC
:1038800042F00102CCF80C00C0F808C05D6079611C
:103890003961C1F80CE0C1F808E04A60304600F038
:1038A00081FA65E74FEAD50E4FEA4E0179E7221813
:1038B000E3685068A16840F001005060CB609960F7
:1038C000304600F06FFA083452E7611830464B6812
:1038D00043F001024A6000F065FA083448E7BC682A
:1038E000606820F00309A94504D3C5EB09030F2B39
:1038F00000F38D804D4A4E4B11681868013104EB7E
:10390000090B05EB000300F05A8103F580500F30DE
:1039100020F47F6121F00F0C614630468DE80410E1
:1039200000F042FAB0F1FF3F80469DE8041000F03D
:103930005281834500F20F81DFF800A1DAF80030F0
:10394000C3456344CAF8003000F04A81126801326E
:1039500000F05781CBEB080B5B44CAF8003018F03D
:10396000070100F00B81C1F10800C1F580538044CC
:1039700003F1080208EB0C010805030DC3EB020B71
:103980003046594600F010FA431C00F04681C8EB5F
:1039900000020BEB020141F00100DAF80030C7F839
:1039A00008805B44BC42CAF80030C8F8040015D057
:1039B000B9F10F0F40F2F2806168A9F10C0222F018
:1039C0000702A01801F0010C42EA0C0E05210F2A93
:1039D000C4F804E04160816000F21781154ABC68B8
:1039E0001068834288BF1360134A11688B4288BFF6
:1039F0001360636823F00300A842C5EB000301D302
:103A00000F2B04DC304600F0CDF90024B0E662193B
:103A100043F0010145F00105656030465160BA6030
:103A200000F0C0F90834A3E6540400206008002028
:103A300074080020700800206C080020780800201E
:103A4000BCF1140F7BD9BCF1540F00F28D804FEA0A
:103A5000153404F16E0E4FEA4E01A2E6480A04281E
:103A600072D9142800F2AE8000F15B094FEA4902D6
:103A700007EB8200DFF8F0818368834200F08180E9
:103A80005A6822F00302914202D29B689842F7D111
:103A9000DA68D7F80490E260A360DC609460C0E666
:103AA000611942F0010045F0010565605961196135
:103AB0004860C1F80CE0C1F808E08A50304600F0D8
:103AC00071F9083454E6D3F80490AAE608F1010825
:103AD000083418F0030F7FF4BAAE49461CF0030F08
:103AE000A1F108040CF1FF3C00F0B0800968A1428C
:103AF000F4D07C684000A0423FF6F1AE00283FF4CD
:103B0000EEAE044200F0A780C4469CE604F1080330
:103B10006469A34208BF0CF1020C3FF458AE17E6EB
:103B200059181C464868DB6854F8082F40F001001B
:103B30004860D3609A60304600F034F918E60CF122
:103B40005B0E4FEA4E012CE64FEA911808F1380956
:103B50004FEA49028CE7BC423FF4EEAE424CA46807
:103B6000626822F0030047E7BCF5AA7F1CD84FEA41
:103B7000D53202F1770E4FEA4E0112E64FF4805231
:103B8000F8E6D8F804004FEAA902012101FA02F28E
:103B900042EA0009C8F804901A467CE70122C8F8F6
:103BA00004204446002027E740F254539C4524D883
:103BB0004FEA954000F17C0E4FEA4E01F1E503F12A
:103BC000100CA9E654282CD84FEA113202F16E09E4
:103BD0004FEA49024CE7BC68616821F003000BE73B
:103BE0004FEA0B50010D00297FF4B0AEB8680CEB22
:103BF000090141F001044460F0E6FC214FF07E0E23
:103C0000CFE51A48C0F80080A9E604F10801184C75
:103C10003046FFF753FC2368E0E601204FF0000B2D
:103C2000BBE6B0F5AA7F06D84FEAD13303F1770996
:103C30004FEA49021CE740F2545398420FD84FEA2A
:103C4000914000F17C094FEA490211E77C6824EABF
:103C500000047C604EE7400008F1040851E7FC22B4
:103C60004FF07E0904E700BF5404002060080020E4
:103C700078080020F0B48407034600F08E80541EBC
:103C8000002A00F08880E507CEB211D41A46671EDC
:103C900002F8016B1346154692070FD0002C7AD01C
:103CA00003F8016B9A073C461D4607D0013CEDE73F
:103CB000034603F8016B9A071D46F7D1032C52D92E
:103CC000CEB246EA06270F2C47EA07432DD9A4F1C6
:103CD000100217460F2FC2F300162B606B60AB600B
:103CE000EB6005F1100216D93EB1103F136053602E
:103CF0009360D36010320F2F0DD9203F02F11006D0
:103D0000136053609360D360136153619361D36117
:103D100020320F2FF1D8A4F1100222F00F0204F08C
:103D20000F041032032C15441DD9271F3E462A4686
:103D3000032E42F8043BC7F380070DD927B1043E98
:103D4000032E42F8043B07D91746083E47F8043BC8
:103D500053603A1D032EF7D8231F23F00302131DCF
:103D600004F00304ED18B4B12B46C9B203F8011BEB
:103D70002C19ED436219A34202F001050BD01DB1CD
:103D800003F8011BA34206D01A4602F8011B597022
:103D9000531CA342F8D1F0BC7047054614468DE78A
:103DA000704700BF704700BF38B5074C0023054679
:103DB00008462360FDF786FC431C00D038BD21680F
:103DC0000029FBD0296038BDA008002010B50C46A2
:103DD000B1F90E1000F0D0F8002803DB226D1318A3
:103DE000236510BDA38923F48051A18110BD00BFBC
:103DF0002DE9F0410C46898901F4807C0FFA8CFC96
:103E0000074616461D46BCF1000F06D0B4F90E1049
:103E10000022022300F09CF8A18921F48050B4F91B
:103E20000E10A081324638462B46BDE8F04100F026
:103E300017B800BF10B50C46B1F90E1000F088F8A5
:103E4000421CA38904D043F480512065A18110BD98
:103E500023F48052A28110BDB1F90E1000F014B805
:103E600038B5084C0546084611461A46002323601B
:103E7000FDF77EFC431C00D038BD21680029FBD033
:103E8000296038BDA008002038B5074C002305463E
:103E900008462360FDF744FC431C00D038BD216870
:103EA0000029FBD0296038BDA008002070B50C4661
:103EB0000546002934D0FFF7B1FA15B1AB6B002BE2
:103EC00031D0B4F90C603EB328462146FFF79EF985
:103ED000E26A06463AB12846E169904736EA20068A
:103EE00028BF4FF0FF36A08900F080010BB213BB52
:103EF000216B41B104F14002914202D02846FFF704
:103F0000DDFA00202063616C21B12846FFF7D6FA64
:103F1000002161640023A381FFF782FA304670BD5F
:103F20000E46304670BD2846FFF752FAB4F90C60D1
:103F3000002EC9D1F0E728462169FFF7BFFAD7E77D
:103F400040F25043C2F2000301461868FFF7AEBFCB
:103F500038B5084C0546084611461A46002323602A
:103F6000FDF7EAFB431C00D038BD21680029FBD0D7
:103F7000296038BDA008002038B5084C0546084621
:103F800011461A4600232360FDF7E4FB431C00D0D2
:103F900038BD21680029FBD0296038BDA008002069
:103FA000555341525420425420696E697469616CC2
:103FB000697A6174696F6E20636F6D706C6574658A
:103FC000210D0A0049324320494D5520636F6E6E22
:103FD000656374696F6E20696E697469616C697A72
:103FE0006174696F6E20636F6D706C657465210D0F
:103FF0000A00000049324320696E697469616C6986
:104000007A6174696F6E206661696C6564210D0A5E
:10401000000000004B6C696B210D0A006937AC3160
:1040200068212233B40F14336821A2333863ED3E84
:10403000DA0F493F5E987B3FDA0FC93F430000002B
:10404000000000000102030401020304060708093E
:104050002000000000000000000000000000000040
:104060000000000000000000000000001403002019
:104070007C030020E403002000000000000000009A
:104080000000000000000000000000000000000030
:104090000000000000000000000000003C4000089C
:1040A0000000000000000000000000000000000010
:1040B0000000000000000000000000000000000000
:1040C00000000000000000000000000000000000F0
:1040D00000000000000000000000000000000000E0
:1040E00000000000000000000000000000000000D0
:1040F00000000000000000000000000000000000C0
:1041000000000000000000000000000000000000AF
:1041100001000000000000000E33CDAB34126DE64C
:10412000ECDE05000B0000000000000000000000B5
:10413000000000000000000000000000000000007F
:10414000000000000000000000000000000000006F
:10415000000000000000000000000000000000005F
:10416000000000000000000000000000000000004F
:10449000280000200000000000000000540400205C
:1044A000540400205C0400205C040020640400200C
:1044B000640400206C0400206C04002074040020BC
:1044C000740400207C0400207C040020840400206C
:1044D000840400208C0400208C040020940400201C
:1044E000940400209C0400209C040020A4040020CC
:1044F000A4040020AC040020AC040020B40400207C
:10450000B4040020BC040020BC040020C40400202B
:10451000C4040020CC040020CC040020D4040020DB
:10452000D4040020DC040020DC040020E40400208B
:10453000E4040020EC040020EC040020F40400203B
:10454000F4040020FC040020FC04002004050020EA
:10455000040500200C0500200C0500201405002097
:10456000140500201C0500201C0500202405002047
:10457000240500202C0500202C05002034050020F7
:10458000340500203C0500203C05002044050020A7
:10459000440500204C0500204C0500205405002057
:1045A000540500205C0500205C0500206405002007
:1045B000640500206C0500206C05002074050020B7
:1045C000740500207C0500207C0500208405002067
:1045D000840500208C0500208C0500209405002017
:1045E000940500209C0500209C050020A4050020C7
:1045F000A4050020AC050020AC050020B405002077
:10460000B4050020BC050020BC050020C405002026
:10461000C4050020CC050020CC050020D4050020D6
:10462000D4050020DC050020DC050020E405002086
:10463000E4050020EC050020EC050020F405002036
:10464000F4050020FC050020FC05002004060020E5
:10465000040600200C0600200C0600201406002092
:10466000140600201C0600201C0600202406002042
:10467000240600202C0600202C06002034060020F2
:10468000340600203C0600203C06002044060020A2
:10469000440600204C0600204C0600205406002052
:1046A000540600205C0600205C0600206406002002
:1046B000640600206C0600206C06002074060020B2
:1046C000740600207C0600207C0600208406002062
:1046D000840600208C0600208C0600209406002012
:1046E000940600209C0600209C060020A4060020C2
:1046F000A4060020AC060020AC060020B406002072
:10470000B4060020BC060020BC060020C406002021
:10471000C4060020CC060020CC060020D4060020D1
:10472000D4060020DC060020DC060020E406002081
:10473000E4060020EC060020EC060020F406002031
:10474000F4060020FC060020FC06002004070020E0
:10475000040700200C0700200C070020140700208D
:10476000140700201C0700201C070020240700203D
:10477000240700202C0700202C07002034070020ED
:10478000340700203C0700203C070020440700209D
:10479000440700204C0700204C070020540700204D
:1047A000540700205C0700205C07002064070020FD
:1047B000640700206C0700206C07002074070020AD
:1047C000740700207C0700207C070020840700205D
:1047D000840700208C0700208C070020940700200D
:1047E000940700209C0700209C070020A4070020BD
:1047F000A4070020AC070020AC070020B40700206D
:10480000B4070020BC070020BC070020C40700201C
:10481000C4070020CC070020CC070020D4070020CC
:10482000D4070020DC070020DC070020E40700207C
:10483000E4070020EC070020EC070020F40700202C
:10484000F4070020FC070020FC07002004080020DB
:10485000040800200C0800200C0800201408002088
:10486000140800201C0800201C0800202408002038
:10487000240800202C0800202C08002034080020E8
:10488000340800203C0800203C0800204408002098
:10489000440800204C0800204C08002000000200C2
:0448A000FFFFFFFF18
:0400000508000000EF
:00000001FF
