:020000040800F2
:10000000E0100020FD050008FD0D0008090E0008A5
:10001000110E0008190E0008210E00080000000053
:10002000000000000000000000000000290E000891
:10003000350E000800000000410E00084D0E0008BB
:100040007D0600087D0600087D0600087D06000884
:100050007D0600087D060008590F00087D0600088F
:100060007D0600087D0600087D0600087D06000864
:100070007D0600087D0600087D0600087D06000854
:100080007D0600087D0600087D0600087D06000844
:100090007D0600087D0600087D0600087D06000834
:1000A0007D0600087D0600087D0600087D06000824
:1000B0007D0600087D0600087D0600087D06000814
:1000C0007D0600087D0600087D0600087D06000804
:1000D0007D060008590E00087D0600087D06000810
:1000E0007D0600087D0600087D0600087D060008E4
:1000F0007D0600087D0600087D0600087D060008D4
:100100007D0600087D0600087D0600087D060008C3
:100110007D0600087D0600087D0600087D060008B3
:100120007D0600087D0600087D0600087D060008A3
:100130007D0600087D0600087D0600087D06000893
:100140007D0600087D0600087D0600087D06000883
:100150007D0600087D0600087D0600087D06000873
:100160007D0600087D0600087D0600087D06000863
:100170007D0600087D0600087D0600087D06000853
:100180007D0600087D06000890B484B000AF0246EA
:100190000B46FA71BB714FF00003FB60BB7903F0B3
:1001A00003034FEA83034FF00F0202FA03F3FB60ED
:1001B0004FF46053C4F20103BA794FEA9202D2B20B
:1001C00010464FF46052C4F20102B9794FEA91012E
:1001D000C9B201F1020152F82110FA686FEA020275
:1001E000114000F1020243F822104FF46053C4F2B0
:1001F0000103BA794FEA9202D2B210464FF460522C
:10020000C4F20102B9794FEA9101C9B201F10201C8
:1002100052F82110FC79BA7902F003024FEA820207
:1002200004FA02F2114300F1020243F8221007F12E
:100230001007BD4690BC704780B582B000AF7860B3
:10024000396014E000BF7B681B889BB203F0400359
:10025000002BF8D03B681B78DBB27868194600F0B9
:1002600005F93B681B783B6803F101033B603B6881
:100270001B78DBB2002BE5D107F10807BD4680BD36
:1002800080B58AB000AF786039604FF000037B62C0
:100290004FF000033B624FF00003FB614FF000039F
:1002A000BB617B681B8A9BB27B627B6A23F44053F1
:1002B0007B623B68DB887A6A13437B627B6A9AB213
:1002C0007B681A827B689B899BB27B627B6A23F482
:1002D000B05323F00C037B623B689A883B681B8910
:1002E00013439AB23B685B8913439BB27A6A134308
:1002F0007B627B6A9AB27B689A817B689B8A9BB29D
:100300007B627B6A23F440737B623B689B897A6AD9
:1003100013437B627B6A9AB27B689A8207F1080377
:10032000184600F0BFFB7A684FF48053C4F2010313
:100330009A4206D07A684FF4A053C4F201039A425D
:1003400002D17B693B6201E03B693B627B689B8930
:100350009BB29BB21BB2002B0FDA3A6A13464FEAEC
:1003600083039B184FEA83029A183B681B684FEA85
:100370004303B2FBF3F3FB610EE03A6A13464FEA24
:1003800083039B184FEA83029A183B681B684FEA65
:100390008303B2FBF3F3FB61FA6948F21F53C5F222
:1003A000EB13A3FB02134FEA53134FEA03137B62D1
:1003B0007B6A4FEA13134FF0640202FB03F3FA69FE
:1003C000D31ABB617B689B899BB29BB21BB2002B8B
:1003D00012DABB694FEAC30303F1320248F21F533A
:1003E000C5F2EB13A3FB02134FEA531303F0070309
:1003F0007A6A13437B6211E0BB694FEA031303F18E
:10040000320248F21F53C5F2EB13A3FB02134FEA6B
:10041000531303F00F037A6A13437B627B6A9AB229
:100420007B681A8107F12807BD4680BD80B483B080
:1004300000AF78600B46FB70FB78002B08D07B6820
:100440009B899BB243F400539AB27B689A8107E080
:100450007B689B899BB223F400539AB27B689A8194
:1004600007F10C07BD4680BC704700BF80B483B065
:1004700000AF78600B467B807B884FEAC3534FEA1E
:10048000D3539AB27B689A8007F10C07BD4680BCB3
:10049000704700BF80B487B000AF786013460A464B
:1004A0007A807B704FF000033B614FF00003FB60EC
:1004B0004FF00003BB604FF000037B617B687B6102
:1004C0007B88DBB24FEA5313DBB23B617B8803F0DE
:1004D0001F03FB60FB684FF0010202FA03F3BB60ED
:1004E0003B69012B04D17B6903F10C037B610BE0B9
:1004F0003B69022B04D17B6903F110037B6103E0AC
:100500007B6903F114037B617B78002B06D07B6948
:100510007A691168BA680A431A6007E07B697A69E8
:100520001168BA686FEA02020A401A6007F11C07F4
:10053000BD4680BC704700BF80B487B000AF786014
:100540000B467B804FF00003FB604FF000037B61A4
:100550004FF00003BB604FF00003FB747B88DBB2FD
:100560004FEA5313DBB2BB607B8803F01F037B6150
:100570007B694FF0010202FA03F37B61BB68012B38
:1005800006D17B689B899BB27A6913407B610FE03F
:10059000BB68022B06D17B681B8A9BB27A69134029
:1005A0007B6105E07B689B8A9BB27A6913407B6123
:1005B0007B884FEA13239BB2FB60FB684FF001027C
:1005C00002FA03F3FB607B681B889BB2FA68134056
:1005D000FB607B69002B06D0FB68002B03D04FF03B
:1005E0000103FB7402E04FF00003FB74FB7C184630
:1005F00007F11C07BD4680BC704700BF80B582B0C4
:1006000000AF49F2D043C0F600037B6040F2000324
:10061000C2F200033B600BE07B681A683B681A601B
:100620003B6803F104033B607B6803F104037B60D8
:100630003A6840F69C03C2F200039A42ECD30C489D
:100640000C494FF000028842B8BF40F8042BFFF677
:10065000FAAFDFF82400016841F47001016000F096
:10066000D9FE00F00FF807F10807BD4680BD000075
:100670009C080020DC08002088ED00E080B400AF7A
:10068000FEE700BF80B58CB000AF4FF00003FB6207
:100690004FF00003FB6203E0FB6A03F10103FB621E
:1006A000FA6A48F29F63C0F201039A42F4D907F153
:1006B0001C034FF000021A6003F104034FF0000224
:1006C0001A6003F104034FF000021A6003F10403FF
:1006D00001F0EAF800F032FE01F01CF800F090FCA6
:1006E0004FF48050C4F2010049F2A021C0F600018D
:1006F000FFF7A2FD01F07CFE01F0C0FC01F0D2FC8E
:100700000346012B0AD14FF48050C4F2010049F294
:10071000C421C0F60001FFF78FFD09E04FF48050BF
:10072000C4F2010049F2F021C0F60001FFF784FD98
:1007300007F11C03184601F031FD42F6E163C4F2F3
:100740006523BB62BB8B1BB206EE903AB8EEE67A2D
:100750003B8C1BB206EE903AF8EEE67A17EE100AE2
:1007600017EE901A01F0E2FF07EE100AD7ED0A7AB1
:1007700067EE277AC7ED067A07F104034FF000020F
:100780001A6003F104034FF000021A6003F104033E
:100790004FF000021A6003F104034FF000021A60E8
:1007A00003F104034FF000021A6003F104034FF059
:1007B00061033B7140F25043C2F200031B689B6827
:1007C00018464FF000014FF002024FF0000302F014
:1007D00059FC07F1040207F11803104649F21031E1
:1007E000C0F600011A4602F0D5FC07F104034FF4ED
:1007F0008050C4F201001946FFF71EFDFEE700BF5E
:1008000080B400AF4FF46053C4F202034FF460525F
:10081000C4F20202126842F001021A604FF46053FF
:10082000C4F202034FF000029A604FF46053C4F226
:1008300002034FF46052C4F20202126822F0847282
:1008400022F480321A604FF46053C4F2020343F280
:100850001002C2F200425A604FF46053C4F2020325
:100860004FF46052C4F20202126822F480221A602D
:100870004FF46053C4F202034FF00002DA60BD4649
:1008800080BC704780B483B000AF0346FB7143F671
:100890000203C4F202034FF000021A7043F602038F
:1008A000C4F20203FA791A7007F10C07BD4680BC46
:1008B000704700BF80B582B000AF4FF000033B60CF
:1008C0004FF00003FB714FF00003BB714FF031009C
:1008D00000F04CFA0346BB713B6803F101033B6037
:1008E0003B68B3F5A06F02D0BB79002BEED04FF080
:1008F000310000F03BFA0346002B03D04FF0010318
:10090000FB7102E04FF00003FB71FB79184607F121
:100910000807BD4680BD00BF80B485B000AFF86059
:10092000B9607A603B604FF46053C4F202037A68A6
:100930004FEA8211BA6811433A684FEA520202F153
:10094000FF324FEA02421143FA681143BA694FEA93
:1009500002620A435A6007F11407BD4680BC704723
:1009600080B483B000AF0346FB714FF06003C4F264
:100970004723FA791A6007F10C07BD4680BC70471F
:1009800080B485B000AF78604FF00003FB604FF497
:100990006053C4F202039B68FB60FB6823F003030F
:1009A000FB60FA687B681343FB604FF46053C4F24A
:1009B0000203FA689A6007F11407BD4680BC7047CD
:1009C00080B400AF4FF46053C4F202039B68DBB203
:1009D00003F00C03DBB21846BD4680BC704700BF75
:1009E00080B485B000AF78604FF00003FB604FF437
:1009F0006053C4F202039B68FB60FB6823F0F003C2
:100A0000FB60FA687B681343FB604FF46053C4F2E9
:100A10000203FA689A6007F11407BD4680BC70476C
:100A200080B485B000AF78604FF00003FB604FF4F6
:100A30006053C4F202039B68FB60FB6823F4E0533D
:100A4000FB60FA687B681343FB604FF46053C4F2A9
:100A50000203FA689A6007F11407BD4680BC70472C
:100A600080B485B000AF78604FF00003FB604FF4B6
:100A70006053C4F202039B68FB60FB6823F460438D
:100A8000FB607B684FEAC303FA681343FB604FF4D3
:100A90006053C4F20203FA689A6007F11407BD4676
:100AA00080BC704780B489B000AF78604FF000031D
:100AB000BB614FF000037B614FF00003FB614FF01F
:100AC00002033B614FF00003FB604FF00203BB6089
:100AD0004FF46053C4F202039B6803F00C03BB6144
:100AE000BB69042B0AD0082B0FD0002B60D17A6889
:100AF0004FF41053C0F2F403136060E07A684FF4CF
:100B00009053C0F27A03136059E04FF46053C4F27B
:100B100002035B6803F480034FEA9353FB604FF4D6
:100B20006053C4F202035B6803F03F03BB60FB68E1
:100B3000002B14D04FF49053C0F27A03BA68B3FB81
:100B4000F2F24FF46053C4F20203596847F6C073DF
:100B50000B404FEA931303FB02F3FB6113E04FF4E6
:100B60001053C0F2F403BA68B3FBF2F24FF46053CF
:100B7000C4F20203596847F6C0730B404FEA93135F
:100B800003FB02F3FB614FF46053C4F202035B68A2
:100B900003F440334FEA134303F101034FEA4303E5
:100BA0003B61FA693B69B2FBF3F27B681A6006E0CD
:100BB0007A684FF41053C0F2F403136000BF4FF48F
:100BC0006053C4F202039B6803F0F003BB61BB698E
:100BD0004FEA1313BB6140F20003C2F20003BA698B
:100BE0009B181B78DBB27B617B681A687B6922FAF1
:100BF00003F27B685A604FF46053C4F202039B68AF
:100C000003F4E053BB61BB694FEA9323BB6140F23D
:100C10000003C2F20003BA699B181B78DBB27B6148
:100C20007B685A687B6922FA03F27B689A604FF40A
:100C30006053C4F202039B6803F46043BB61BB6969
:100C40004FEA5333BB6140F20003C2F20003BA69BA
:100C50009B181B78DBB27B617B685A687B6922FA40
:100C600003F27B68DA6007F12407BD4680BC704759
:100C700080B483B000AF78600B46FB70FB78002B2C
:100C80000CD04FF46053C4F202034FF46052C4F22C
:100C90000202116B7A680A431A630DE04FF4605345
:100CA000C4F202034FF46052C4F20202116B7A687C
:100CB0006FEA02020A401A6307F10C07BD4680BCC6
:100CC000704700BF80B483B000AF78600B46FB7004
:100CD000FB78002B0CD04FF46053C4F202034FF4A6
:100CE0006052C4F20202116C7A680A431A640DE081
:100CF0004FF46053C4F202034FF46052C4F2020294
:100D0000116C7A686FEA02020A401A6407F10C0754
:100D1000BD4680BC704700BF80B483B000AF786030
:100D20000B46FB70FB78002B0CD04FF46053C4F2E1
:100D300002034FF46052C4F20202516C7A680A4313
:100D40005A640DE04FF46053C4F202034FF4605252
:100D5000C4F20202516C7A686FEA02020A405A64D5
:100D600007F10C07BD4680BC704700BF80B487B058
:100D700000AF0346FB714FF00003FB604FF0000330
:100D80007B614FF00003FB74FB794FEA5313DBB236
:100D9000FB60FB68012B06D14FF46053C4F20203E1
:100DA0001B687B610FE0FB68022B06D14FF4605398
:100DB000C4F202031B6F7B6105E04FF46053C4F281
:100DC00002035B6F7B61FB7903F01F03FB60FB6831
:100DD0007A6922FA03F303F00103002B03D04FF0EA
:100DE0000103FB7402E04FF00003FB74FB7C184628
:100DF00007F11C07BD4680BC704700BF80B400AF40
:100E0000BD4680BC704700BF80B400AFFEE700BFA6
:100E100080B400AFFEE700BF80B400AFFEE700BFC4
:100E200080B400AFFEE700BF80B400AFBD4680BC19
:100E3000704700BF80B400AFBD4680BC704700BFA4
:100E400080B400AFBD4680BC704700BF80B400AF27
:100E5000BD4680BC704700BF80B582B000AF4FF484
:100E60008050C4F2010040F22551FFF765FB0346B4
:100E7000002B6CD04FF48053C4F201039B889BB2CB
:100E8000FB71FB79212B3BD040F69C03C2F200039F
:100E90001B78132B34D840F69C03C2F200031B7856
:100EA0001A4640F21003C2F20003F979995440F651
:100EB0009C03C2F200031B7803F10103DAB240F68F
:100EC0009C03C2F200031A7041E040F69C03C2F298
:100ED00000031B781A4640F21003C2F200034FF0E1
:100EE0002001995440F69C03C2F200031B7803F1E1
:100EF0000103DAB240F69C03C2F200031A7000E06C
:100F000000BF40F69C03C2F200031B78142BDCD90F
:100F100040F21003C2F200034FF00A021A7540F2C9
:100F20001003C2F200034FF00D025A7540F69C0305
:100F3000C2F200034FF000021A704FF48050C4F266
:100F4000010040F21001C2F20001FFF775F907F14C
:100F50000807BD4680BD00BF80B586B000AF4FF02A
:100F60000000C4F202004FF0010100F01FF9034637
:100F7000FB744FF47A737B6103E07B6903F1FF3309
:100F80007B617B69002BF8D14FF00000C4F20200B6
:100F90004FF0010100F00AF90346BB744FF0010065
:100FA00000F094FF0346002B26D0FA7CBB7C9A42CB
:100FB00022D1FB7C002B1FD14FF44060C4F2020011
:100FC0004FF4805100F01EF949F22033C0F60003BF
:100FD00007F1040293E8030082E8030007F1040329
:100FE000FB604FF48050C4F20100F968FFF724F968
:100FF0004FF0010000F096FF07F11807BD4680BDD5
:1010000080B584B000AF4FF496433B604FF00003CF
:10101000BB804FF00003FB804FF000033B814FF09B
:101020000003BB814FF00C037B813B464FF48050A3
:10103000C4F201001946FFF723F94FF48050C4F2BF
:1010400001004FF00101FFF7F1F94FF48050C4F2B5
:10105000010040F225514FF00102FFF71BFA07F1A2
:101060001007BD4680BD00BF80B487B000AF786078
:1010700039604FF000037B614FF000033B614FF09C
:101080000003FB604FF000037B6186E07B694FF05B
:10109000010202FA03F33B613B681A683B691340A3
:1010A000FB60FA683B699A4273D17B681A687B6976
:1010B0004FEA43034FF0030101FA03F36FEA03031E
:1010C0001A407B681A607B681A683B681B7919466E
:1010D0007B694FEA430301FA03F31A437B681A6002
:1010E0003B681B79012B03D03B681B79022B34D161
:1010F0007B689A687B694FEA43034FF0030101FA6A
:1011000003F36FEA03031A407B689A607B689A686E
:101110003B685B7919467B694FEA430301FA03F3A5
:101120001A437B689A607B685A687B699BB24FF070
:10113000010101FA03F36FEA03031A407B685A6066
:101140007B685A683B689B7919467B699BB201FAB8
:1011500003F39BB21A437B685A607B68DA687B6949
:101160009BB24FEA43034FF0030101FA03F36FEA26
:1011700003031A407B68DA607B68DA683B68DB79D6
:1011800019467B694FEA430301FA03F31A437B686C
:10119000DA607B6903F101037B617B690F2B7FF6CA
:1011A00075AF07F11C07BD4680BC704780B485B0A1
:1011B00000AF78600B467B804FF00003FB737B68C9
:1011C0001A697B881340002B03D04FF00103FB7397
:1011D00002E04FF00003FB73FB7B184607F1140796
:1011E000BD4680BC704700BF80B483B000AF78605C
:1011F0000B467B807B687A881A8307F10C07BD4613
:1012000080BC704780B483B000AF78600B467B80B1
:101210007B685A697B885A407B685A6107F10C07E2
:10122000BD4680BC704700BF80B485B000AF786019
:1012300013460A467A807B704FF00003FB604FF044
:101240000003BB607A787B8803F007034FEA8303CF
:1012500002FA03F3FB607B884FEAD3039BB21A4682
:101260007B884FEAD3039BB219467B6801F10801E2
:1012700053F821107B8803F007034FEA83034FF0F4
:101280000F0000FA03F36FEA030319407B6802F1D1
:10129000080243F822107B884FEAD3039BB21A4618
:1012A0007B6802F1080253F82220FB681343BB60FD
:1012B0007B884FEAD3039BB21A467B6802F108028F
:1012C000B96843F8221007F11407BD4680BC704787
:1012D00080B483B000AF78604FF47053C4F202035F
:1012E0007A68D2B21A7007F10C07BD4680BC70470D
:1012F00080B483B000AF0346FB71FB79002B0CD0A8
:101300004FF47053C4F202034FF47052C4F202025D
:10131000126842F480721A600BE04FF47053C4F20A
:1013200002034FF47052C4F20202126822F4807277
:101330001A6007F10C07BD4680BC704780B582B0CB
:1013400000AF4FF000604FF0000100F081FE3B461F
:101350007B60786800F008F8786800F025F807F1FD
:101360000807BD4680BD00BF80B582B000AF786081
:101370004FF4C06000F0E6FD7B684FF025021A7064
:101380007B684FF000025A707B684FF000029A7041
:101390007B684FF00102DA70786800F0E7FD07F132
:1013A0000807BD4680BD00BF80B584B000AF78603F
:1013B0004FF4C06000F0C6FD4FF000004FF0000198
:1013C000FEF7E2FE4FF00103BB604FF000033B73FA
:1013D0004FF00C037B734FF00103BB7307F108035D
:1013E000184600F0D7FC7B684FF006021A707B6845
:1013F0004FF001025A707B684FF001029A707B68CF
:101400004FF00102DA70786800F0B0FD07F11007C4
:10141000BD4680BD80B500AF4FF46D43CEF20003F2
:101420004FF46D42CEF20002D2F8882042F47002EE
:10143000C3F888204FF46053C4F202034FF46052A3
:10144000C4F20202126842F001021A604FF46053C3
:10145000C4F202034FF000029A604FF46053C4F2EA
:1014600002034FF46052C4F20202126822F0847246
:1014700022F480321A604FF46053C4F2020343F244
:101480001002C2F200425A604FF46053C4F20203E9
:101490004FF46052C4F20202126822F480221A60F1
:1014A0004FF46053C4F202034FF00002DA6000F020
:1014B00009F84FF46D43CEF200034FF000629A60DA
:1014C00080BD00BF80B483B000AF4FF000037B60ED
:1014D0004FF000033B604FF46053C4F202034FF43B
:1014E0006052C4F20202126842F480321A604FF471
:1014F0006053C4F202031B6803F400333B607B6853
:1015000003F101037B603B68002B03D17B68B3F5DB
:10151000A06FECD14FF46053C4F202031B6803F4D4
:101520000033002B03D04FF001033B6002E04FF08B
:1015300000033B603B68012B40F082804FF4605316
:10154000C4F202034FF46052C4F20202126C42F081
:1015500080521A644FF4E043C4F200034FF4E042B7
:10156000C4F20002126842F480421A604FF46053E1
:10157000C4F202034FF46052C4F2020292689A600D
:101580004FF46053C4F202034FF46052C4F20202FB
:10159000926842F400429A604FF46053C4F202032E
:1015A0004FF46052C4F20202926842F4A0529A6070
:1015B0004FF46053C4F2020345F20842C0F2407295
:1015C0005A604FF46053C4F202034FF46052C4F205
:1015D0000202126842F080721A6000BF4FF460533A
:1015E000C4F202031B6803F00073002BF6D04FF423
:1015F0007053C4F2020340F205621A604FF4605364
:10160000C4F202034FF46052C4F20202926822F064
:1016100003029A604FF46053C4F202034FF4605225
:10162000C4F20202926842F002029A6000BF4FF4D4
:101630006053C4F202039B6803F00C03082BF6D13D
:1016400007F10C07BD4680BC704700BF80B485B071
:1016500000AF786040F6A003C2F200031B68002BC5
:1016600008D140F6A003C2F2000341F2E002C2F248
:1016700000021A6040F6A003C2F200031B68FB6080
:1016800040F6A003C2F200031A687B68D21840F645
:10169000A003C2F200031A60FB68184607F11407A2
:1016A000BD4680BC704700BF80B483B000AF786097
:1016B0004FF0FF33184607F10C07BD4680BC70475A
:1016C00080B485B000AFF860B9607A604FF0000375
:1016D000184607F11407BD4680BC704780B485B03A
:1016E00000AFF860B9607A604FF00003184607F168
:1016F0001407BD4680BC704780B485B000AFF86069
:10170000B9607A607B68184607F11407BD4680BC53
:10171000704700BF80B584B000AF07F10403FB60E1
:10172000F86800F00BF8F86800F02CF8F86800F0A2
:101730009FF807F11007BD4680BD00BF80B582B09D
:1017400000AF78607B684FF470421A607B684FF09E
:1017500002025A717B684FF001021A717B684FF0E8
:1017600000029A717B684FF00102DA714FF4406019
:10177000C4F202007968FFF777FC07F10807BD465D
:1017800080BD00BF80B582B000AF78607B684FF04D
:1017900040021A607B684FF002025A717B684FF07A
:1017A00002021A717B684FF000029A717B684FF059
:1017B0000102DA714FF48060C4F202007968FFF729
:1017C00053FC7B684FF080021A607B684FF0020286
:1017D0005A717B684FF002021A717B684FF0000269
:1017E0009A717B684FF00102DA714FF48060C4F2A5
:1017F00002007968FFF738FC7B684FF480721A604A
:101800007B684FF002025A717B684FF001021A7137
:101810007B684FF000029A717B684FF00102DA7129
:101820004FF00000C4F202007968FFF71DFC4FF48E
:101830008060C4F202004FF006014FF00702FFF78C
:10184000F3FC4FF48060C4F202004FF007014FF048
:101850000702FFF7E9FC4FF00000C4F202004FF46A
:101860008071FFF7C1FC07F10807BD4680BD00BFCE
:1018700080B582B000AF78607B684FF000021A71CB
:101880007B684FF00002DA717B684FF001021A604A
:101890004FF00000C4F202007968FFF7E5FB07F1A2
:1018A0000807BD4680BD00BF80B584B002AFFEF71B
:1018B000A7FF4FF00100FEF7E5FFFEF7FBFF034631
:1018C000FB71FB79012B38D14FF00100FFF710FDC0
:1018D0004FF00500FFF7FCFC4FF00000FFF780F829
:1018E0004FF48050FFF7BCF84FF4A050FFF798F882
:1018F0004FF0070300934FF480004FF008014FF4BE
:10190000A8724FF00203FFF707F84FF00100FFF74E
:1019100027F800BF4FF03900FFF728FA0346002BE5
:10192000F8D04FF00200FFF72BF800BFFFF748F8A0
:101930000346082BFAD100F005F807F10807BD4669
:1019400080BD00BF80B500AF4FF008004FF001012F
:10195000FFF78EF94FF001004FF00101FFF788F912
:101960004FF010004FF00101FFF7D6F94FF480401F
:101970004FF00101FFF7D0F94FF002004FF00101E5
:10198000FFF776F980BD00BF80B58AB000AF786000
:1019900039604FF00003FB844FF000037B844FF06D
:1019A0000403BB844FF49053C0F27A03FB617B685D
:1019B0009B88FB84FB8C23F03F03FB8407F10C0323
:1019C0001846FFF76FF87B69FB61FA694DF6836390
:1019D000C4F21B33A3FB02134FEA93437B84FA8CBC
:1019E0007B8C1343FB847B68FA8C9A807B681B8812
:1019F0009BB223F001039AB27B681A804FF0000378
:101A0000FB843B681A6848F2A063C0F201039A4263
:101A100018D83B681B684FEA4303FA69B2FBF3F33B
:101A2000BB84BB8C032B02D84FF00403BB84FA8C1D
:101A3000BB8C1343FB847B8C03F101039AB27B685C
:101A40001A844BE03B68DA884BF6FF739A420AD15E
:101A50003B681A6813464FEA43039B18FA69B2FBC6
:101A6000F3F3BB8410E03B681A6813464FEA830324
:101A70009B184FEA83029B18FA69B2FBF3F3BB840D
:101A8000BB8C43F48043BB84BB8C4FEA03534FEAC7
:101A90001353002B03D1BB8C43F00103BB84BA8CDE
:101AA000FB8C13439BB26FEA43436FEA5343FB84BF
:101AB0007B8C4FF4967202FB03F244F6D353C1F2CF
:101AC000620383FB02134FEAA3114FEAE273CB1ABE
:101AD0009BB203F101039AB27B681A847B68FA8C8B
:101AE0009A837B681B889BB243F001039AB27B68A0
:101AF0001A807B681B88FB84FB8C23F4816323F0B2
:101B00000203FB843B689A883B685B8913439AB263
:101B1000FB8C1343FB847B68FA8C1A803B689A89A0
:101B20003B681B8913439AB27B681A8107F1280727
:101B3000BD4680BD80B483B000AF78600B46FB70BB
:101B4000FB78002B08D07B681B889BB243F0010315
:101B50009AB27B681A8007E07B681B889BB223F0EF
:101B600001039AB27B681A8007F10C07BD4680BC5E
:101B7000704700BF80B483B000AF78600B46FB7045
:101B8000FB78002B08D07B681B889BB243F48073E2
:101B90009AB27B681A8007E07B681B889BB223F4AB
:101BA00080739AB27B681A8007F10C07BD4680BC2F
:101BB000704700BF80B483B000AF78600B46FB7005
:101BC000FB78002B08D07B681B889BB243F4007322
:101BD0009AB27B681A8007E07B681B889BB223F46B
:101BE00000739AB27B681A8007F10C07BD4680BC6F
:101BF000704700BF80B483B000AF786013460A46D8
:101C0000FA70BB70BB78002B04D0FB7843F0010363
:101C1000FB7003E0FB7823F00103FB70FB789AB2C2
:101C20007B681A8207F10C07BD4680BC704700BF75
:101C300080B483B000AF78600B46FB70FB78002B5C
:101C400008D07B681B889BB243F480639AB27B68A0
:101C50001A8007E07B681B889BB223F480639AB2EA
:101C60007B681A8007F10C07BD4680BC704700BF37
:101C700080B483B000AF78600B46FB70FB789AB2FB
:101C80007B681A8207F10C07BD4680BC704700BF15
:101C900080B483B000AF78607B681B8A9BB2DBB2F4
:101CA000184607F10C07BD4680BC704780B487B06A
:101CB00000AF786039604FF000033B614FF00003E4
:101CC000FB604FF00003BB604FF00003FB757B68C7
:101CD0009B8A9BB2FB607B681B8B9BB2BB60BB6823
:101CE0004FEA0343BB60FA68BB68134323F07F43AA
:101CF0003B613A693B681A403B689A4203D14FF016
:101D00000103FB7502E04FF00003FB75FB7D1846F5
:101D100007F11C07BD4680BC704700BF80B487B088
:101D200000AF786039604FF00003FB754FF000039F
:101D30003B614FF00003FB607B68FB603B684FEA50
:101D400013733B613B6823F07F433B603B69002B8F
:101D500004D0FB6803F11403FB6007E03B684FEA23
:101D600013433B60FB6803F11803FB60FB681A68D0
:101D70003B681340002B03D04FF00103FB7502E0DA
:101D80004FF00003FB75FB7D184607F11C07BD46AD
:101D900080BC704780B485B000AF78604FF000031E
:101DA000FB604FF47053C4F20103FB607B689B79C6
:101DB000002B78D04FF47053C4F201034FF47052EB
:101DC000C4F2010211687A6812686FEA02020A40DE
:101DD0001A604FF47053C4F201034FF47052C4F20E
:101DE000010251687A6812686FEA02020A405A607A
:101DF0007B681B79FA68D318FB60FB68FA68116886
:101E00007A6812680A431A604FF47053C4F20103EF
:101E10004FF47052C4F2010291687A6812686FEA56
:101E200002020A409A604FF47053C4F201034FF467
:101E30007052C4F20102D1687A6812686FEA020235
:101E40000A40DA607B685B79102B1AD14FF470532B
:101E5000C4F201034FF47052C4F2010291687A682F
:101E600012680A439A604FF47053C4F201034FF4AE
:101E70007052C4F20102D1687A6812680A43DA60CB
:101E80001FE04FF47053C4F20103FB607B685B7981
:101E9000FA68D318FB60FB68FA6811687A68126800
:101EA0000A431A600DE07B681B79FA68D318FB605F
:101EB000FB68FA6811687A6812686FEA02020A40E1
:101EC0001A6007F11407BD4680BC704780B485B026
:101ED00000AF78604FF00003FB734FF00003BB606E
:101EE0004FF47053C4F201031A687B681340BB605F
:101EF0004FF47053C4F201035A697B681340002BFE
:101F000006D0BB68002B03D04FF00103FB7302E047
:101F10004FF00003FB73FB7B184607F11407BD4627
:101F200080BC704780B483B000AF78604FF47053CA
:101F3000C4F201037A685A6107F10C07BD4680BC00
:101F4000704700BF80B483B000AF78604FF46D433A
:101F5000CEF200037A6842F0BF6242F40032DA60E7
:101F600007F10C07BD4680BC704700BF80B485B048
:101F700000AF78604FF00003FB734FF00003BB73BA
:101F80004FF00F037B737B68DB78002B45D04FF459
:101F90006D43CEF20003DB686FEA030303F4E063F2
:101FA0004FEA1323FB73FB7BC3F10403BB737A7B00
:101FB000FB7B42FA03F37B737B685B781A46BB7B3F
:101FC00002FA03F3FB737B689A787B7B1340DAB2E7
:101FD000FB7B1343FB73FB7B4FEA0313FB734FF451
:101FE0006143CEF200037A6812789B18FA7B83F87B
:101FF00000234FF46143CEF200037A6812784FEA6F
:102000005212D2B27968097801F01F014FF0010035
:1020100000FA01F143F8221014E04FF46143CEF2CC
:1020200000037A6812784FEA5212D2B279680978BE
:1020300001F01F014FF0010000FA01F102F120024E
:1020400043F8221007F11407BD4680BC704700BF5B
:1020500080B483B000AF786039604FF46D43CEF246
:1020600000033A6822F0604222F07F0279680A4356
:102070009A6007F10C07BD4680BC704780B500AF81
:102080004FF0010000F036F84FF0000000F048F883
:102090004FF0000000F05AF84FF0000000F06CF82C
:1020A00080BD00BF80B500AF00F00AF80346342BB6
:1020B00002D14FF0010301E04FF00003184680BD4C
:1020C00080B584B002AF4FF00003FB7107F1070346
:1020D00000934FF0D0004FF075014FF006024FF023
:1020E000060300F04DF9FB79184607F10807BD46D5
:1020F00080BD00BF80B584B002AF0346FB71FB79A1
:1021000000934FF0D0004FF06B014FF002024FF000
:10211000030300F0ADF807F10807BD4680BD00BF1E
:1021200080B584B002AF0346FB71FB7900934FF09A
:10213000D0004FF01B014FF004024FF0020300F0FB
:1021400097F807F10807BD4680BD00BF80B584B091
:1021500002AF0346FB71FB7900934FF0D0004FF0C4
:102160001C014FF004024FF0020300F081F807F168
:102170000807BD4680BD00BF80B582B000AF0346F2
:10218000FB71FB794FF0D0004FF06B014FF006026E
:1021900000F0B8F807F10807BD4680BD80B588B0EB
:1021A00000AF786007F10C034FF0D00019464FF0F4
:1021B0003B024FF00E0300F0E9F94FF00003FB6122
:1021C0004FF00003FB6121E0FB694FEA43037A68AB
:1021D000D318FA694FEA420207F12000821812F878
:1021E000142C4FEA022291B2FA694FEA420202F13C
:1021F000010207F12000821812F8142C8A1892B2FA
:1022000092B21A80FB6903F10103FB61FB69022BA7
:10221000DADD4FF00403FB6123E0FB6903F1FF33D8
:102220004FEA43037A68D318FA694FEA420207F18A
:1022300020018A1812F8142C4FEA022291B2FA698E
:102240004FEA420202F1010207F12000821812F85F
:10225000142C8A1892B292B21A80FB6903F101031E
:10226000FB61FB69062BD8DD07F12007BD4680BD69
:1022700080B584B000AFF871B9717A713B71F979AA
:1022800007F10E02BB79084611461A464FF00103CA
:1022900000F07CF93B794FF0010202FA03F303F1FD
:1022A000FF3279793B79CB1A03F1010302FA03F388
:1022B000FB733A7E79793B79CB1A03F1010302FA79
:1022C00003F33B763A7EFB7B13403B76FB7B6FEA66
:1022D0000303DAB2BB7BDBB21340DBB2DBB2BB730E
:1022E000BA7B3B7E1343DBB2BB73F97907F10E0275
:1022F000BB79084611461A4600F0D8F807F11007D6
:10230000BD4680BD80B584B000AFF871B9717A71F7
:102310003B71F97907F10F02BB79084611461A465D
:102320004FF0010300F032F93B79002B0BD07B79A1
:102330004FF0010202FA03F3DAB2FB7BDBB2134384
:10234000DBB2DBB20DE07B794FF0010202FA03F35E
:10235000DBB26FEA0303DAB2FB7BDBB21340DBB222
:10236000DBB2FB73F97907F10F02BB79084611461E
:102370001A4600F09BF807F11007BD4680BD00BF6C
:1023800080B584B000AFF871B9717A713B71F97999
:1023900007F10E02BB79084611461A464FF00103B9
:1023A00000F0F4F83B794FF0010202FA03F303F175
:1023B000FF3279793B79CB1A03F1010302FA03F377
:1023C000FB73BA7BFB7B1340DBB2BB73BB7B1A4650
:1023D00079793B79CB1A03F1010342FA03F3DBB2BB
:1023E000BB73BA7BBB691A7007F11007BD4680BD8D
:1023F00080B586B000AF4FF480004FF00101FEF7CA
:1024000061FC4FF002004FF00101FEF785FC4FF434
:1024100040633B604FF002037B714FF002033B715E
:102420003B464FF48060C4F202001946FEF71CFEE2
:102430004FF48060C4F202004FF00A014FF0040232
:10244000FEF7F2FE4FF48060C4F202004FF00B0181
:102450004FF00402FEF7E8FE4FF00003BB814BF69D
:10246000FF73FB814FF0D0033B824FF480637B828C
:102470004FF48043BB8248F2A063C0F20103BB600B
:1024800007F108034FF4B040C4F200001946FFF70B
:102490007BFA4FF4B040C4F200004FF00101FFF7A7
:1024A00049FB07F11807BD4680BD00BF80B582B06B
:1024B00000AF396013460246FA71BB714FF4B04069
:1024C000C4F200004FF00101FFF754FB00BF4FF4CE
:1024D000B040C4F200004FF00101C0F20301FFF769
:1024E000E5FB0346002BF2D0FB794FF4B040C4F279
:1024F000000019464FF00002FFF77CFB00BF4FF4CD
:10250000B040C4F200004FF08201C0F20701FFF7B3
:10251000CDFB0346002BF2D0BB794FF4B040C4F2A0
:1025200000001946FFF7A4FB00BF4FF4B040C4F20F
:1025300000004FF08401C0F20701FFF7B7FB03462C
:10254000002BF2D03B681B784FF4B040C4F200007F
:102550001946FFF78DFB00BF4FF4B040C4F20000F6
:102560004FF08401C0F20701FFF7A0FB0346002BE8
:10257000F2D04FF4B040C4F200004FF00101FFF779
:1025800019FB07F10807BD4680BD00BF80B582B0CA
:1025900000AF39600146F971BA71BB8000BF4FF4DA
:1025A000B040C4F200004FF40031FFF7B7FB034620
:1025B000002BF4D14FF4B040C4F200004FF0010101
:1025C000FFF7D8FA00BF4FF4B040C4F200004FF05C
:1025D0000101C0F20301FFF769FB0346002BF2D0B3
:1025E000FB794FF4B040C4F2000019464FF00002EE
:1025F000FFF700FB00BF4FF4B040C4F200004FF003
:102600008201C0F20701FFF751FB0346002BF2D015
:102610004FF4B040C4F200004FF00101FFF78AFA16
:10262000BB794FF4B040C4F200001946FFF720FB1D
:1026300000BF4FF4B040C4F200004FF08401C0F27C
:102640000701FFF733FB0346002BF2D04FF4B040F5
:10265000C4F200004FF00101FFF78CFA00BF4FF405
:10266000B040C4F200004FF00101C0F20301FFF7D7
:102670001DFB0346002BF2D0FB794FF4B040C4F2AF
:10268000000019464FF00102FFF7B4FA00BF4FF403
:10269000B040C4F200004FF00201C0F20301FFF7A6
:1026A00005FB0346002BF2D031E0BB88012B0FD194
:1026B0004FF4B040C4F200004FF00001FFF7B8FA49
:1026C0004FF4B040C4F200004FF00101FFF772FA7E
:1026D0004FF4B040C4F200004FF04001C0F20301DB
:1026E000FFF7E4FA0346002B11D04FF4B040C4F2D8
:1026F0000000FFF7CDFA03461A463B681A703B68A4
:1027000003F101033B60BB8803F1FF33BB80BB884F
:10271000002BCAD14FF4B040C4F200004FF00101C9
:10272000FFF786FA07F10807BD4680BD00F000B844
:10273000F8B521F00044B4F1FF4F034617DC20F058
:102740000045B5F1FF4F064611DCB1F17E5F42D086
:102750008F1707F0020040EAD37775B9022F35D002
:10276000032F08D140F6DB73CCF2490303E018468F
:1027700000F0BAF903461846F8BDD4B1B4F1FF4FE2
:102780002DD0B5F1FF4F14D02C1BE4153C2C18DCD8
:10279000002952DB184600F063FB00F09BF900F0C3
:1027A0006DF8012F46D0022F35D0002F25D10346DA
:1027B000E1E7002E40F6DB731CDBC3F6C973184655
:1027C000F8BD40F6DB70C3F6C970EAE740F6DB738C
:1027D000C4F24903CFE7BDE8F84000F04FB8B5F1C7
:1027E000FF4F2FD0022FF1D0032FBBD0012F34D0B9
:1027F0000023C0E7CBF6C973BDE74BF62E51C3F2F9
:10280000BB3100F071F940F6DB71C4F2490100F010
:1028100069F90346AFE74BF62E51C3F2BB3100F026
:1028200063F9014640F6DB70C4F2490000F05AF942
:102830000346A0E700F100439DE714F13C0FA9DA3D
:102840000020AEE7022F13D0032F0CD0012F40F64B
:10285000DB7305D0C3F649738DE74FF000438AE779
:10286000CBF6497387E74CF6E433CCF2160382E7E4
:102870004CF6E433C4F216037DE700BF2DE9F041C6
:1028800020F00045B5F1A14F044606460DDBB5F139
:10289000FF4F00F39C80002840F6DB7440F3D480A7
:1028A000C3F6C9742046BDE8F0814FF6FF73C3F646
:1028B000DF639D4200F3A280B5F1445FC0F28E80D9
:1028C0004FF0FF372146204600F016FA01468046B9
:1028D00000F012FA46F6D711C3F68541054600F01E
:1028E0000BFA4DF65921C3F64B5100F0FDF829467D
:1028F00000F002FA46F63531C3F6885100F0F4F8DC
:10290000294600F0F9F942F66E61C3F6BA5100F0BB
:10291000EBF8294600F0F0F944F62511C3F61261F0
:1029200000F0E2F8294600F0E7F94AF6AB21C3F6D9
:10293000AA6100F0D9F8414600F0DEF94AF22121FF
:102940008046CBF61551284600F0D6F94FF26B11B0
:10295000C3F66E5100F0C6F8294600F0CDF948F2F2
:102960009571C3F69D5100F0BDF8294600F0C4F9F9
:1029700048F63861C3F6E35100F0B4F8294600F098
:10298000BBF94CF6CD41C3F64C6100F0ABF82946DB
:1029900000F0B2F97B1C0146404658D000F0A4F884
:1029A000214600F0A9F9494B53F8271000F09AF896
:1029B000214600F097F80146454850F8270000F0FE
:1029C00091F8002E3DDB04462046BDE8F08101462B
:1029D00000F08AF804462046BDE8F0814FF2CA2193
:1029E000C7F2491100F080F84FF07E5100F040FB33
:1029F00000283FF465AF2046BDE8F08100F06AF89A
:102A00004FF6FF71C3F697718D4204464FF6FF7281
:102A100028DCC3F62F72954246DC014600F064F8CC
:102A20004FF07E5100F05EF84FF0804105462046A1
:102A300000F05AF80146284600F012FA0027044632
:102A400040E700F100442DE7CBF6C9742AE700F017
:102A50004BF8214600F050F90146204600F042F8BC
:102A600004461FE7C4F21B02954214DC4FF07F516D
:102A700000F038F84FF07F510546204600F03CF951
:102A80004FF07E5100F030F80146284600F0E8F99A
:102A90000227044616E700202146CBF6807000F09E
:102AA000DFF9032704460DE74FF07E5100F01AF8D6
:102AB0004FF07E510746204600F016F80146384692
:102AC00000F0CEF901270446FCE600BF2893000879
:102AD0003893000820F00040704700BF80F00040AD
:102AE00002E000BF81F0004142001FBF5FEA4103E6
:102AF00092EA030F7FEA226C7FEA236C6AD04FEAE6
:102B00001262D2EB1363C1BFD2184140484041402A
:102B1000B8BF5B42192B88BF704710F0004F40F4DC
:102B2000000020F07F4018BF404211F0004F41F4F8
:102B3000000121F07F4118BF494292EA030F3FD0C4
:102B4000A2F1010241FA03FC10EB0C00C3F12003D7
:102B500001FA03F100F0004302D5494260EB400066
:102B6000B0F5000F13D3B0F1807F06D340084FEAD1
:102B7000310102F10102FE2A51D2B1F1004F40EBC6
:102B8000C25008BF20F0010040EA0300704749002E
:102B900040EB000010F4000FA2F10102EDD1B0FAF9
:102BA00080FCACF1080CB2EB0C0200FA0CF0AABFEE
:102BB00000EBC25052421843BCBFD040184370478C
:102BC00092F0000F81F4000106BF80F40000013292
:102BD000013BB5E74FEA41037FEA226C18BF7FEA69
:102BE000236C21D092EA030F04D092F0000F08BFAB
:102BF0000846704790EA010F1CBF0020704712F092
:102C00007F4F04D1400028BF40F00040704712F1D0
:102C100000723CBF00F50000704700F0004343F035
:102C2000FE4040F4000070477FEA226216BF08466B
:102C30007FEA23630146420206BF5FEA412390EA2E
:102C4000010F40F4800070474FF0000304E000BF24
:102C500010F0004348BF40425FEA000C08BF7047D5
:102C600043F0964301464FF000001CE050EA010299
:102C700008BF70474FF000030AE000BF50EA0102AE
:102C800008BF704711F0004302D5404261EB41019B
:102C90005FEA010C02BF84460146002043F0B643C0
:102CA00008BFA3F18053A3F50003BCFA8CF2083AE5
:102CB000A3EBC25310DB01FA02FC634400FA02FCEE
:102CC000C2F12002BCF1004F20FA02F243EB0200F5
:102CD00008BF20F00100704702F1200201FA02FC57
:102CE000C2F1200250EA4C0021FA02F243EB02004A
:102CF00008BF20EADC7070474FF0FF0C1CEAD0528E
:102D00001EBF1CEAD15392EA0C0F93EA0C0F6FD04E
:102D10001A4480EA010C400218BF5FEA41211ED02C
:102D20004FF0006343EA501043EA5111A0FB013118
:102D30000CF00040B1F5000F3EBF490041EAD371ED
:102D40005B0040EA010062F17F02FD2A1DD8B3F169
:102D5000004F40EBC25008BF20F00100704790F0D8
:102D6000000F0CF0004C08BF49024CEA502040EA2A
:102D700051207F3AC2BFD2F1FF0340EAC2507047F0
:102D800040F400004FF00003013A5DDC12F1190F2E
:102D9000DCBF00F000407047C2F10002410021FAA0
:102DA00002F1C2F1200200FA02FC5FEA310040F1B8
:102DB000000053EA4C0308BF20EADC70704792F031
:102DC000000F00F0004C02BF400010F4000F013A69
:102DD000F9D040EA0C0093F0000F01F0004C02BF64
:102DE000490011F4000F013BF9D041EA0C018FE7D3
:102DF0000CEAD15392EA0C0F18BF93EA0C0F0AD0D9
:102E000030F0004C18BF31F0004CD8D180EA0100FE
:102E100000F00040704790F0000F17BF90F0004F97
:102E2000084691F0000F91F0004F14D092EA0C0F79
:102E300001D142020FD193EA0C0F03D14B0218BF0C
:102E4000084608D180EA010000F0004040F0FE4052
:102E500040F40000704740F0FE4040F440007047EE
:102E60004FF0FF0C1CEAD0521EBF1CEAD15392EA6D
:102E70000C0F93EA0C0F69D0A2EB030280EA010C5D
:102E800049024FEA402037D04FF0805343EA1111F6
:102E900043EA10130CF000408B4238BF5B0042F154
:102EA0007D024FF4000C8B4224BF5B1A40EA0C00F9
:102EB000B3EB510F24BFA3EB510340EA5C00B3EB2B
:102EC000910F24BFA3EB910340EA9C00B3EBD10F19
:102ED00024BFA3EBD10340EADC001B0118BF5FEA6B
:102EE0001C1CE0D1FD2A3FF650AF8B4240EBC25094
:102EF00008BF20F0010070470CF0004C4CEA502055
:102F00007F32C2BFD2F1FF0340EAC250704740F4A3
:102F100000004FF00003013A37E792F0000F00F095
:102F2000004C02BF400010F4000F013AF9D040EA13
:102F30000C0093F0000F01F0004C02BF490011F4A7
:102F4000000F013BF9D041EA0C0195E70CEAD1539F
:102F500092EA0C0F08D142027FF47DAF93EA0C0F86
:102F60007FF470AF084676E793EA0C0F04D14B026A
:102F70003FF44CAF08466EE730F0004C18BF31F01C
:102F8000004CCAD130F000427FF45CAF31F0004316
:102F90007FF43CAF5FE700BF4FF0FF3C06E000BFAF
:102FA0004FF0010C02E000BF4FF0010C4DF804CDD2
:102FB0004FEA40024FEA41037FEA226C18BF7FEAE2
:102FC000236C11D001B052EA530C18BF90EA010FE4
:102FD00058BFB2EB030088BFC81738BF6FEAE17073
:102FE00018BF40F0010070477FEA226C02D15FEA0F
:102FF000402C05D17FEA236CE4D15FEA412CE1D07B
:103000005DF8040B704700BF844608466146FFE741
:103010000FB5FFF7C9FF002848BF10F1000F0FBD23
:103020004DF808EDFFF7F4FF0CBF012000205DF81C
:1030300008FB00BF4DF808EDFFF7EAFF34BF0120A1
:1030400000205DF808FB00BF4DF808EDFFF7E0FF3A
:1030500094BF012000205DF808FB00BF4DF808ED8B
:10306000FFF7D2FF94BF012000205DF808FB00BFEE
:103070004DF808EDFFF7C8FF34BF012000205DF8D0
:1030800008FB00BF2DE9F843DFF80481D8F80050B1
:103090000446894616461F4615B1AB6B002B4ED031
:1030A000022E2ED8002F2CDB2146D8F8000003F08A
:1030B000ABF8A38903F08001002208B26260A2612C
:1030C00018BB4FF67C751D40022EA58129D0B9F1A1
:1030D000000F3ED0012E36D0D8F800302B4A05F034
:1030E000080108B2DA63C4F80090C4F81090676170
:1030F00048B115F0030F18BF0027A7600020BDE8F6
:10310000F8834FF0FF30BDE8F883214D216928682E
:1031100003F0D2F9A3894FF67C751D40022EA581DC
:10312000D5D1002004F1430345F00205002101221E
:10313000A581A160236023616261BDE8F883284610
:1031400003F044F9ACE745F001057842A581A061A0
:10315000C2E7002F08BF4FF48067384603F0D8FA63
:10316000814628B1A18941F0800295B2A581B1E7DD
:103170004FF4806003F0CCFA814618B9A5894FF06E
:10318000FF30CFE74FF48067ECE700BF71630008C2
:10319000500400200EB470B59DB021AC40F25043F5
:1031A00054F8042BC2F200036FF000454FF4027193
:1031B0000646ADF814100495079518680296234644
:1031C00002A94FF6FF750696ADF81650019400F06F
:1031D00009F8029B00221A701DB0BDE8704003B0D0
:1031E000704700BF2DE9F04FC3B014460A91109309
:1031F0000C9003F087FA0068139004F0B7FC159068
:103200000A98838903F080010AB200200021CDE9E9
:10321000160122B10A980369002B01F0C482002034
:1032200032ABDFF8FC9411900793259327902690FA
:10323000A246189019900F901E469AF80040002C54
:1032400000F09C81252C00F099810AF1010501E034
:10325000252904D02C46013521780029F8D1CAEB64
:1032600004057DB1269B279AC6F800A0591C501969
:10327000072975602790269100F3648108360F9A1C
:1032800050190F902378002B00F0648100224FF03A
:10329000FF3194F8018009910D9204F1010A8DF833
:1032A0007320089220202B210AF1010AA8F12003A3
:1032B000582B00F2B982DFE813F0FB01B702B70226
:1032C0000502B702B702B702B702B702B702B201EE
:1032D0004E02B7023E010C02B702C502CC02CC027C
:1032E000CC02CC02CC02CC02CC02CC02CC02B70283
:1032F000B702B702B702B702B702B702B702B70206
:10330000B70284008001B7028001B702B702B7029A
:10331000B7024702B702B7026D00B702B702B702A1
:10332000B702B7025900B702B702DD01B702B70210
:10333000B702B702B702B702B702B702B702B702C5
:103340003502880080018001800187028800B70271
:10335000B702AB02B702530271008E02A402B70299
:103360006102B7025D00B702B702BD01089D45F0DA
:1033700010040894089B9D0600F18F810899CC06E3
:1033800041F19280109A1568171D2C461097002560
:10339000012312E0089A42F010050895089F17F0E3
:1033A000200340F0FF80089C14F0100001F06E80B4
:1033B000109F3A1D3C681092002500278DF873700D
:1033C00017E0089D45F010030893089FBF0640F1E1
:1033D000D780109DEB1D23F00700D0E900230830B3
:1033E000109014461D46002A73F10000C0F2338786
:1033F00001230999002903DB089F27F0800008902A
:1034000054EA050240F0F183099A002A40F0ED8366
:10341000002B40F05786089BD90741F10C8042AF42
:10342000302007F8410D079AD41B0E94099C0E9882
:103430009DF873301294A042B8BF204600220B9032
:10344000149213B10B9B591C0B91089B13F00200B3
:10345000099002D00B998C1C0B94089A12F0840BE3
:1034600040F028820D9D0B9BED1A002D40F3228227
:10347000102D41F30682279A269BA449102431601F
:103480001A9111195A1CA5F1110E072A7460CEF376
:1034900000132791269200F370850836103D102DF9
:1034A00040F3FC818BB1013249F2A0331031C0F6F8
:1034B0000003072A86E818002791269200F36C85FE
:1034C0000836103D102D40F3E9813346CDF86CB03D
:1034D0002E46BB460A9D0C9F13E00833013249F289
:1034E000A0301031C0F60000103E072A83E811001A
:1034F0002791269200F3BE81103E0833102E40F330
:10350000C881013249F2A0301031C0F60000072A0C
:1035100083E8110027912692DFDD3846294625AA47
:1035200004F054FBE8B92799269A32ABD6E70D9AF6
:10353000109352420D92089B43F0040208929AF8AD
:103540000080B1E60C980A9925AA04F03FFB40B927
:1035500032AE94E6279B23B10C980A9925AA04F071
:1035600035FB0A9881890F9801F0400213B2002BB5
:1035700018BF4FF0FF3043B0BDE8F08F544681E6EE
:103580000898C50600F15B8608994C0640F15786FD
:10359000109A109FB2F90040381DE51722462B46BD
:1035A000109020E7109BDD1D25F0070101F10800B8
:1035B0001090D1E900450023FFE6109CE11D21F0A9
:1035C000070000F1080710974468D0F800B02146C2
:1035D0005846CDE916012146584604F037FA01282D
:1035E0002146584640F038870022002305F022FB90
:1035F000002841F037829DF8733000270899129710
:1036000003244348434F0B9421F080020E9400247E
:10361000B8F1470FD8BF07460892149411E7109AE3
:10362000109B12680433002A0D9280DB9AF8008008
:10363000109339E6384F1897089FB9061FD5109C8C
:10364000E01D20F00703D3E9004503F108011091C4
:103650000898C70740F1828454EA050200F07E848E
:10366000302240F002078DF874208DF8758008979D
:103670000223A2E6089F294DB9061895DFD4089CBD
:10368000E20600F1F1850898430640F1ED85109BB4
:10369000191D1C8810910025DAE7109CE31D23F00A
:1036A000070101F108001090D1E90045012384E6EB
:1036B0009DF87330002B40F003878DF873009AF863
:1036C0000080F1E5089B43F0010208929AF800801F
:1036D000EAE5544614F8018BB8F12A0F01F0C982CB
:1036E000A8F130030022092B01F2068214F8018BA5
:1036F00002EB820203EB4202A8F13003092BA2463F
:10370000F4D942EAE2720992D0E500BFA093000822
:103710004C93000850930008709300085C930008D5
:1037200090930008109F10993C68012300200A1D07
:103730008DF873000B9310928DF8A0400E9328AF74
:1037400000221292149280E6089A42F0080308932D
:103750009AF80080A8E58DF873109AF80080A3E528
:10376000089CA10640F1B08610990F9A10980B683A
:10377000D417011D1A605C6010915EE5109D002455
:103780008DF873402F680435002F01F0F480099AFA
:10379000002A3846C1F251802146099A03F06EFA98
:1037A000002801F08F8109991294C01B88420E9065
:1037B00040F3E38721EAE17009990B909DF873309B
:1037C00010950E9114943CE6089B43F04002089239
:1037D0009AF8008068E5109D10992868089B0F1DD5
:1037E000AA49109743F002024FF0780804463020AF
:1037F0008DF87580002508928DF8740018910223C9
:10380000DBE5089B43F0200208929AF800804BE524
:103810009AF80080B8F16C0F534600F00087089AC0
:1038200042F0100308933FE5B8F1000F3FF492AE69
:10383000012700240B970E978DF8A0808DF8734018
:1038400028AF7DE7089A42F0800308939AF8008039
:103850002AE552460023A8F1300512F8018BA8F1A1
:10386000300403EB8303092C05EB43039246F2D9A2
:103870000D931BE53846294625AA04F0A7F9002830
:103880007FF46FAE103E102E32AB2799269A3FF789
:1038900038AE5F46DDF86CB035461E46501C1A9BAC
:1038A0004C19072886E828002794269000F30F84F7
:1038B000083600E0279C9DF8731069B1269B581CC0
:1038C000013401210DF173020728326071602794E1
:1038D000269000F3FE820836099B63B12698411CAE
:1038E000023402231DAA07293260736027942691AF
:1038F00000F3FA820836BBF1800F00F02D82129D92
:103900000E9AAD1A002D6FDD102D40F3FA85269921
:103910005F48C6F800904FF0100B4A1CA5F1110C3F
:103920005C44072AC6F804B0099027942692CCF389
:10393000001300F3A9820836103D102D49DD63B154
:1039400001321034072A86E8000A2794269200F3F1
:10395000A9820836103D102D3BDD314620464646F3
:103960003C46DDF828800C9F0DE008310132103014
:10397000103D072A81E8000A2692279017DC103DA7
:103980000831102D21DD01321030072A81E8000AAC
:1039900027902692E9DD3846414625AA04F016F91B
:1039A00000287FF4DEAD2798269A32A9DEE7384654
:1039B000414625AA04F00AF900287FF4D2AD103D53
:1039C000102D32A92798269ADDDCB04627460E46F0
:1039D0000446501C099B6419072886E82800279490
:1039E000269000F36B820836089BDA0500F12881E7
:1039F00026980E9A0E993760431CA418072B716005
:103A00002794269300F3B0800836089A530740F1B4
:103A1000B9800D9D0B982D1A002D40F3B380102D09
:103A200040F3CF87269BDFF86C8049F2A037C0F6C1
:103A300000073760591C1027A5F1110BE41907295D
:103A40007760CBF3001B2794269100F3C6830836DA
:103A5000103D102D40F3B680BBF1000F11D00131A5
:103A600049F2A0301034C0F60000072986E8810032
:103A70002794269100F3D7830836103D102D40F38C
:103A8000A1803246DDF830B00A9E18E0709300083D
:103A900090930008A09300080832411C49F2A0301E
:103AA0001034C0F60000103D072982E881002691FD
:103AB000279477DC103D0832102D40F38280481C9B
:103AC00049F2A0311034C0F60001072882E88200D4
:103AD00027942690E0DD5846314625AA04F076F872
:103AE00000287FF43EAD279C269832AAD5E7119D89
:103AF000012D40F37B84269B37605D1C013401213E
:103B0000072D71602794269500F37B840836159B5A
:103B100013980135E418072D86E8090027942695A7
:103B200000F37C840836DDE916010022002305F04D
:103B300077F8002840F0D782119A0137501E2418D8
:103B400001353760072D70602794269500F3868134
:103B5000083619980135241821AB072D33607060A1
:103B6000279426957FF750AF0C980A9925AA04F060
:103B70002DF800287FF4F5AC089A279C530732AE45
:103B80003FF547AF0F980B990D9A9142ACBF401883
:103B900080180F90002C40F06D810024269432AEE6
:103BA000FFF74BBB5846314625AA04F00FF8002812
:103BB0007FF4D7AC103D102D32AA279C26993FF7F1
:103BC0007EAF16464B1C2C19072BC6F8008075607B
:103BD00027942693D6DD0C980A9925AA03F0F6FFC0
:103BE00000287FF4BEAC279CCCE7012B00F0A88115
:103BF000022B0DF1C70C00F0878107234FEAD40E8A
:103C000004EA03004EEA457BE90830305C460D4685
:103C1000C0B254EA050167468CF800000CF1FF3C85
:103C2000ECD1089AD4073B4605D5302803D0302480
:103C3000674603F8014C079CE21B0E92FFF7F6BBA8
:103C4000B8F1650F7FF753AFDDE9160100220023BD
:103C500004F0E6FF002800F0AC812698A849431C38
:103C600001340122072B316072602794269300F300
:103C70004D8408361E98119B984203DB0899CB07A8
:103C80007FF5C3AE269B1598139A7060591C2418B3
:103C9000072932602794269100F379850836119D13
:103CA000013D002D7FF7B1AE102D40F3888226989C
:103CB000119AC6F800901027411CA2F1120EE419C7
:103CC00007297760DFF83CB227942691CEF30018DD
:103CD00000F310860836103D102D40F37382B8F1C2
:103CE000000F0ED0013110340729C6F8009077601C
:103CF0002794269100F30B860836103D102D40F3D3
:103D000061822046DDF830800A9C10E00836591C9C
:103D10001030103D0729C6F8009077602691279053
:103D200000F31F810836103D102D40F3E8834B1C33
:103D30001030072BC6F80090776027902693E5DDBA
:103D40004046214625AA03F041FF00287FF409AC34
:103D50002798269B32AEDAE70D9D0B982D1A002D81
:103D60007FF7CDAD102D40F3A8862698654AC6F89A
:103D700000904FF0100B0130A5F111035C440728AF
:103D8000C6F804B0099227942690C3F3001300F3F9
:103D900013830836103D102D48DD63B10130103417
:103DA000072886E8000A2794269000F31383083634
:103DB000103D102D3ADD214632460C9C2E4603461E
:103DC0000A9D0DE00832431C1031103E072B82E89B
:103DD000000A2693279117DC103E0832102E21DDB1
:103DE000581C1031072882E8000A27912690E9DD47
:103DF0002046294625AA03F0E9FE00287FF4B1AB4E
:103E00002799269832AADEE72046294625AA03F0FC
:103E1000DDFE00287FF4A5AB103E102E32AA2799B4
:103E2000269BDDDC35460C4616461846411C099B90
:103E30006419072986E828002794269100F3008357
:103E400008365CE52F4A09920135099BE419072DD4
:103E500086E88800279426957FF77AAE0C980A9911
:103E600025AA03F0B3FE00287FF47BAB32AE279C7B
:103E7000269D6EE60C980A9925AA03F0A7FE002855
:103E80003FF48BAEFFF76DBB0C980A99069325AAF9
:103E900003F09CFE069B00287FF463AB32AE279CA8
:103EA000269A49E50C980A9925AA03F08FFE002866
:103EB0007FF457AB32AE279C269A4BE50C980A99B3
:103EC00025AA03F083FE00287FF44BAB279C32AE7B
:103ED0008AE50C980A9925AA03F078FE00287FF459
:103EE00040AB279C32AEF7E40C980A9925AA03F060
:103EF0006DFE00287FF435AB279C32AEFBE400BF9B
:103F00008C93000890930008DDF860E00B960F2179
:103F100004EA01060EEB060027092A0947EA0574A0
:103F20000378154654EA050267468CF800300CF118
:103F3000FF3CEDD107990B9EC81B0E90FFF776BA98
:103F4000002D08BF0A2C80F0548142AF303407F8AE
:103F5000414D079BD91B0E91FFF768BA0223FFF76B
:103F60002CBA4046214625AA03F030FE00287FF4F3
:103F7000F8AA32AE27982699D5E60C980A990693A6
:103F800025AA03F023FE069B00287FF4EAAA32AE9E
:103F90002799269AFFF782BA0C980A9925AA03F066
:103FA00015FE00287FF4DDAA32AE2799269AFFF786
:103FB00088BA1E9D002D40F3B582119D1499119A67
:103FC0008D42A8BF0D46B818002D09900ADD269B2A
:103FD0003760591C6419072975602794269100F3EE
:103FE0007D840836149A25EAE575551B002D40F3AB
:103FF0004F81102D40F3748226999F4BC6F8009094
:104000004FF010080131A5F1110E44440729C6F8FC
:1040100004800E9327942691CEF3001B00F3518465
:104020000836103D102D40F35E82BBF1000F0FD01B
:10403000013110340729C6F80090C6F8048027948F
:10404000269100F371840836103D102D40F34B8209
:104050002046DDF830B00A9C12E006F10802591C37
:104060001030103D0729C2F80090C2F80480269154
:1040700027901BDC02F10806103D102D40F3078449
:104080004B1C1030072BC6F80090C6F80480279010
:104090002693E2DD5846214625AA03F097FD002825
:1040A0007FF45FAA2798269B32AAD8E75846214674
:1040B00025AA03F08BFD00287FF453AA32AE27987F
:1040C0002699D9E7099C32AF0E94FFF7AFB90C9847
:1040D0000A9925AA03F07AFD00287FF442AA279CBA
:1040E00032AEFFF7E8BB119F013F002F7FF731ADE4
:1040F000102F7FF7A7AE11985F4BC6F800904FF0D6
:1041000010080135A0F1120B4444072DC6F80480B5
:10411000099327942695CBF3001B00F3BA83083646
:10412000103F102F7FF790AEBBF1000F0FD001357D
:104130001034072DC6F80090C6F804802794269501
:1041400000F3B3830836103F102F7FF77DAE214672
:10415000DDF830B00A9C10E0083601351031103F10
:10416000072DC6F80090C6F80480279126951ADC22
:104170000836103F102F40F35D8301351031072DB5
:10418000C6F80090C6F8048027912695E4DD5846CD
:10419000214625AA03F01AFD00287FF4E2A92799F9
:1041A000269D32AED9E75846214625AA03F00EFDDA
:1041B00000287FF4D6A932AE2799269DD9E7269903
:1041C000DFF8B4B0013164190729C6F800B0756092
:1041D000279426917FF718ACC6E40C980A9925AA73
:1041E00003F0F4FC00287FF4BCA932AE279C26998A
:1041F0002EE40DF1C70B204629460A22002304F0C5
:1042000069FD30328BF80020204629460A2200231F
:1042100004F060FD04460D4654EA05005F460BF1CC
:10422000FF3BE8D107E50C980A9925AA03F0CEFCDC
:1042300000287FF496A932AE279C26991DE4109998
:104240000C68E51722462B460F1D002A73F100006B
:104250001097BFF6CDA82D22644265EB45058DF879
:1042600073200123FFF7C5B8109A1568171D2C4657
:1042700010970025FFF7ECB9909300080C980A9965
:1042800025AA03F0A3FC00287FF46BA9279C32AE7B
:104290001E9B119A14989342074472DB0899C90730
:1042A0006FD4099D1199ED1BC91AA942B8BF0D46DB
:1042B000002D0ADD269A3760501C641907287560A6
:1042C0002794269000F36F83083625EAE5754D1B89
:1042D000002D7FF79AAB102D7FF771AF269AC6F8A5
:1042E00000901027511CA5F11108E41907297760E7
:1042F000DFF848B327942691C8F3001800F34783EA
:104300000836103D102D7FF75DAFB8F1000F0ED0CD
:10431000013110340729C6F8009077602794269160
:1043200000F3A5830836103D102D7FF74BAF2046D4
:10433000DDF830800A9C0FE00836591C1030103D23
:104340000729C6F8009077602691279028DC083668
:10435000103D102D40F3D3804B1C1030072BC6F8B6
:104360000090776027902693E6DD4046214625AAF7
:1043700003F02CFC00287FF4F4A82798269B32AE8B
:10438000DBE726991398159A3060A41815984A1CF3
:10439000072A70602794269200F3D382083680E7BC
:1043A0004046214625AA03F011FC00287FF4D9A835
:1043B00032AE27982699CBE70C980A99069325AA3E
:1043C00003F004FC069B00287FF4CBA832AE279CA8
:1043D0002698DFE40C980A9925AA03F0F7FB002839
:1043E0007FF4BFA832AE279C2698E1E40899CA075B
:1043F0003FF581AB269A37600134551C0120FFF749
:10440000A1BB0C980A9925AA03F0E0FB00287FF4D1
:10441000A8A8279C269D32AEFFF779BB0C980A9975
:1044200025AA03F0D3FB00287FF49BA8279C269D98
:1044300032AEFFF778BB099932AF0E91FEF7F6BFA7
:104440000C980A9925AA03F0C1FB00287FF489A8DB
:10445000279C32AEFFF753BA03F0F8FA002840F079
:10446000F1800327734A0B97734F129008989DF8B9
:104470007330B8F1470FD8BF1746129A20F0800466
:10448000032108940E911492FEF7DBBF089B13F0F2
:10449000400300F0BB8103461098109D011D2C883D
:1044A00010910025FEF789BF0898400640F1A581CC
:1044B0001099081D0C88109001230025FEF77DBF80
:1044C0009AF80080FEF7F0BE089BDA0640F1A6815C
:1044D000109A0F981368141D10941860FEF7ADBE63
:1044E000564826990E904B1C0E986419072B86E8A7
:1044F0002100279426933FF7C1AE0836C8E604464C
:1045000060E64E4B269A0993FFF763BA0C980A9916
:1045100025AA03F05BFB00287FF423A8279C32AE7A
:10452000FFF7A8BB269A464B501C013401210728EF
:10453000336071602794269000F3448108362DB9CA
:10454000119A1AB90898C0077FF55FAA2698139B9D
:10455000159933606218431C1599072B71602792D7
:10456000269300F3BC8208366D42002D40F37D8116
:10457000102D40F3F28110240133A5F1110C121912
:10458000072BC6F800907460DFF8B0B0279226932E
:10459000CCF3001800F319830836103D102D40F3BA
:1045A000DE81B8F1000F0ED001331032072BC6F8B0
:1045B000009074602792269300F313830836103D11
:1045C000102D40F3CC813046DDF830802E460A9D18
:1045D00010E0083001331032103E072BC0F8009075
:1045E00044602792269300F3FC800830103E102E82
:1045F00040F39D8201331032072BC0F800904460D5
:1046000027922693E5DD4046294625AA03F0DEFAE7
:1046100000287EF4A6AF279A269B32A8DAE7089AEC
:1046200093F8018042F020020AF1010A0892FEF795
:104630003BBE00BF549300085893000890930008B5
:104640008C930008099D6B1C00F0C880B8F1670FBF
:1046500000F05782B8F1470F00F05382089B002CFE
:1046600043F480751A95C0F2598200201290B8F177
:10467000660F00F00882B8F1460F00F00482B8F12E
:10468000650F00F05082B8F1450F00F04C82DDF864
:1046900024C002218DE802101FA820A91EAD03909E
:1046A0005A462346029504910C98CDF818C000F0A4
:1046B0007FFCB8F1670F0746DDF818C002D0B8F1EB
:1046C000470F03D1089AD00740F19782B8F1460FFF
:1046D00007EB0C0500F0EA81584621460022002332
:1046E00004F09EFAE8B9209CA54240F2E7822346F6
:1046F000302103F8011BE243A818AB42209300F0DD
:1047000001020DD022B10133AB426170209307D07A
:104710001C4604F8011B5970631CAB422093F7D16F
:104720001D46ED1BB8F1670F119500F05D81B8F1E2
:10473000470F00F05981B8F1660F40F0BA821E9A17
:10474000002A40F38D82099B002B40F05882089C80
:10475000E30700F1548222EAE2710B910E92149267
:10476000129C002C00F03A811A982D2100248DF81B
:10477000731008901294FEF765BE0E9B109523EA05
:10478000E3720B929DF873301494FEF75ABE0C98A6
:104790000A9925AA03F01AFA00287EF4E2AE279CB3
:1047A00032AEFFF77CBA40210C9801F0B9FF0A99AC
:1047B00008600861002800F075820A9A4026566158
:1047C000FEF72DBD0C980A9925AA03F0FFF90028E1
:1047D0007EF4C7AE1E9D279C32AEB0E60627099731
:1047E0003CE74046294625AA03F0F0F900287EF46C
:1047F000B8AE32A8279A269BF8E6109A1768131DC0
:1048000010933C4600250123FEF7D7BD10990A6896
:104810000F1D144600251097FEF7CFBD089A5306CA
:1048200040F1D480109A0F991468101D10902180C7
:10483000FEF703BD0C46FFF707BB03F097F920EA2C
:10484000E0710E9012940B919DF8733010951494B2
:10485000FEF7F7BD0C980A9925AA03F0B7F90028CE
:104860007EF47FAE279A269B32AE1199376054189A
:104870005A1C072A7160279426927FF7C5A8FFF774
:1048800073B9A3482799269A1A90FFF707B80446E8
:1048900029E60C980A9925AA03F098F900287EF4D5
:1048A00060AE32AE279C269D3AE40C980A9925AA60
:1048B00003F08CF900287EF454AE32AE279C269D7E
:1048C00041E40C980A9925AA03F080F900287EF4A7
:1048D00048AE32AE279C2699FFF7A3BB0C980A99E5
:1048E00025AA03F073F900287EF43BAE279C32AE74
:1048F000FFF778BB0C980A9925AA03F067F90028FE
:104900007EF42FAE32AE279C2699FFF7E4B90C98BF
:104910000A9925AA03F05AF900287EF422AE32AE95
:10492000279C2699FFF7E9B90C980A9925AA03F064
:104930004DF900287EF415AE32AE279C2699FFF77C
:1049400083BB0C980A9925AA03F040F900287EF44D
:1049500008AE1E9B279C32AEA3E4DFF8BCB1013346
:104960005219072BC6F800B07560279226933FF7BF
:1049700071AF083679E7099F1095062F28BF0627E3
:1049800027EAE7740E970B94624FFEF7D9BE0C9896
:104990000A9925AA03F01AF900287EF4E2AD32AE96
:1049A000279C2699ADE40C980A9925AA03F00EF9E4
:1049B00000287EF4D6AD1E9E119B279C991B32AE1B
:1049C00083E42699DFF84881FFF7FCB810980F9B25
:1049D0000168041D10940B60FEF72FBC1A9A9DF815
:1049E00073300892FEF72DBD1E9AD11C104602DBD3
:1049F000099B934228DAA8F10208431E002B1E935C
:104A00008DF88480C0F21C812B228DF88520092B23
:104A100000F39E80303330218DF886108DF887307A
:104A200022AC21AA1198119BA11A4418012B1991AB
:104A30000E9440F30A810E9B5A1C22EAE271002078
:104A40000E920B9114908BE6119CA24272DB089C93
:104A5000E00700F1ED8022EAE2710B910E924FF037
:104A600067087CE62D238DF87330FEF7C6BD0C98E1
:104A70000A9925AA03F0AAF800287EF472AD32AE96
:104A8000279C26994FE4099D032700971EA81FA97C
:104A900020AF23460195029004975A4603910C9843
:104AA00000F086FA099B0746C5189C463A78302ADA
:104AB00000F0AD801E982D180EE617492698099132
:104AC000FFF7B4B9099B099A129023EAE3740B9497
:104AD0009DF8733010950E921490FEF7B2BC0C98AE
:104AE0000A9925AA03F072F800287EF43AAD1E9DBB
:104AF000279A269B32AE37E50022A2460992FEF79E
:104B0000D5BB0998002808BF01200990A6E500BF81
:104B1000A093000884930008909300082D2104F1CD
:104B200000441291A3E5099F07F1010CB1E5354658
:104B3000064614E7002A1199D4BFC2F102000120F1
:104B4000401820EAE0730E900B934FF0670806E6DA
:104B500046F267640DF19201C6F2666484FB032598
:104B6000D817C0EBA50000EB80050A46A3EB450370
:104B700003F130011170511E09280346EEDC303379
:104B80000DF19305D8B28D4202F8010C40F29380EA
:104B9000AC1AE4070DF1850113460DD513468DF8C7
:104BA00086000DF1860113F8010B05E013F8011BD7
:104BB000617013F8010B611C4C1CAB424870F5D1BD
:104BC00042ABC2EB4304F63C2BE70C980A9925AAAA
:104BD00002F0FCFF00287EF4C4AC32AE279A269B7C
:104BE000DBE40C980A9925AA02F0F0FF00287EF475
:104BF000B8AC32AE279A269BE1E4209D91E5099856
:104C0000431CD41824EAE4710E940B91A7E558468E
:104C1000214600220023CDF818C004F001F8DDF889
:104C200018C000287FF446AFCCF101001E9042E787
:104C3000501C20EAE0730E900B934FF067088EE54E
:104C40002D245B428DF88540E1E6089A12F00101BF
:104C50007FF4F1AE0E98149120EAE0740B947FE596
:104C60000999C1B90898C40715D401230B930E9371
:104C700075E5109B9AF801801A68109B0992099AB1
:104C80000433002A1093A246BEF60EAB4FF0FF335A
:104C90000993FEF709BB099CA11C21EAE1700E9162
:104CA0000B905CE50C9A0C2111604FF0FF30FEF781
:104CB00062BC1E98A1E60DF18604B2E6254630E5F9
:104CC0002DE9F04F03690C699C4283B0064600F35E
:104CD0006B81E01C82008F18B5187B6868685A1CCD
:104CE000B0FBF2F501F114030193013C043706F126
:104CF0001408002D00F0BE804A69D8F80030DDF8B5
:104D0000049090B24FEA124C05FB00F005FB0CF248
:104D100002EB104C1FFA8CFE9AB280B2121ACEEB44
:104D2000134303EB224E92B2C9EB070006F11803BE
:104D300042EA0E4901F11802974243F8049CC0F37D
:104D400080004FEA1C4C4FEA2E4E70D328B31068F7
:104D50001B6882B2000C05FB02CC05FB00F000EBE7
:104D60001C401EFA83F21FFA8CFC1FFA80FECCEB6B
:104D70000202CEEB134303EB224E1FFA82FC06F134
:104D80001C0301F11C024CEA0E4C974243F804CC80
:104D90004FEA2E4E4FEA104C49D31046D3F80090FC
:104DA00050F804BB1FFA8BFA4FEA1B4B05FB0ACCE9
:104DB00005FB0BFA0AEB1C4B1FFA8BFA1EFA89FE55
:104DC0001FFA8CFCCCEB0E0ECAEB194C0CEB2E4AE6
:104DD00099461FFA8EFE4EEA0A4C49F804CB5268F7
:104DE0005B681FFA82FE05FB0EFE4FEA124C0EEBCB
:104DF0001B4B05FB0CF202EB1B4C9AB21FFA8CFE0C
:104E000002EB2A421FFA8BFBCBEB0202CEEB1343E1
:104E100003EB224E92B24B4642EA0E49021D9742E4
:104E200043F8049B4FEA1C4C4FEA2E4EB5D2201D8E
:104E300006EB80035A68EAB9181D984519D250F854
:104E4000042CB2B9043BC8EB0300C21C50070DD5BB
:104E5000013C98450DD21A68043B3AB109E0186844
:104E6000043B30B91A68013C043B12B9013C984537
:104E7000F5D33461304602F055FC0028C0F283803F
:104E8000019AD8F8003052F8040B1FFA83F981B266
:104E9000000CC1EB0901C0EB1343DDF8049003EBF8
:104EA0002140434689B241EA0041C9EB070C013574
:104EB0000014974243F8041BCCF380014BD3B9B1E3
:104EC00052F804EB19681FFA8EF91FFA81FAC9EB40
:104ED0000A094FEA1E4C4844CCEB114101EB20413A
:104EE00080B240EA014043F8040B0814974232D3E1
:104EF00082461146D3F800E051F8040B1FFA8EFBEE
:104F00001FFA80F94FEA104CC9EB0B0B0BEB0A00B0
:104F1000CCEB1E4A0AEB20499E4680B240EA09408B
:104F20004EF8040B50685B6882B21FFA83FC000CD9
:104F3000C2EB0C0202EB2942C0EB134303EB22400D
:104F400092B242EA004A73460A1D974243F804AB04
:104F50004FEA204ACDD2211D06EB8103586890B953
:104F60001A1D98450ED252F8041C59B9043BC8EBDF
:104F70000300C21C520713D5013C984502D21868A1
:104F8000043B68B13461284603B0BDE8F08F1A686D
:104F9000043B002AF6D11968013C043B0029F1D1F9
:104FA000013C9845F3D3EDE70020EDE70000000059
:104FB0002DE9F04F016C9FB081462B9C92469B4699
:104FC00051B1436C012202FA03F24B608A6002F095
:104FD00057F80020C9F84000BBF1000839DB002178
:104FE000216000242246C7F6F074C7F6F07208EA82
:104FF0000400904216D0504659460022002303F088
:105000000FFE00282BD02A9D2C9C01202860002C0C
:1050100000F0CF80A2494B1E2160059305981FB078
:10502000BDE8F08F2A9C42F20F722260BAF1000FA5
:1050300000F0A6809B4D05952C9C002CEED0059D84
:10504000EB78002B00F00B82284608302C9C206067
:10505000E4E728F0004801232360C346C1E71DAE02
:105060001CAF52460096019748465B4602F08EFC04
:10507000C8F30A520C90002A40F08C801C9F1D99A6
:105080006FF482637E189E42C0F22D834FF60E4568
:10509000CFF6FF75A91B06F2124208FA01F32AFAAD
:1050A00002F0184303F0DEFA0124A1F1F871013E89
:1050B0000D9400230022C3F6F87303F095F972A350
:1050C000D3E9002303F044FB71A3D3E9002303F0E9
:1050D0008DF9044630460D4603F0D4FA6EA3D3E9A9
:1050E000002303F035FB02460B462046294603F019
:1050F0007DF904460D4603F0C5FD294609900022BE
:105100002046002303F096FD002840F0BF82099856
:10511000162800F2B882644C04EBC005D5E9000102
:1051200052465B4603F0A4FD002800F0E482099992
:1051300000204B1E09931290BE1B013E00F1BD8260
:1051400000240A960E9409990029C0F2AD820A9DA6
:1051500011916B1800210A931091289809282BD8D7
:10516000052841F34680021F28920025289CA31E93
:10517000032B23D8DFE813F03D05290542033A0548
:1051800048484A49C8F31308B8F1000F18BF014650
:10519000059151E72BF07F4727F4700444F07F55C9
:1051A000A2F2FF360022504645F440111C9F0D929A
:1051B0007FE73F4D059531E7002528950024C9F884
:1051C00044404846214601F035FF4FF0FF3305903B
:1051D000C9F8400001200B93139329940F901D9957
:1051E0000029C0F23F81099A0E2A00F33B812E4D1F
:1051F00005EBC203D3E90001CDE906012999002995
:10520000C0F2FA84DDE906235046594603F0CAFB92
:1052100003F038FD064603F035FADDE9062303F016
:1052200097FA02460B465046594603F0DDF80B9BB1
:10523000DDF8148006F13002012B04460D4608F813
:10524000012B00F0918000230022C4F2240303F01C
:105250007FFA0022002304460D4603F0E1FC0028FB
:1052600040F0C080059F059E0B98023706EB000BAF
:10527000C7EB0B01C90700F1C780CDF820B0DDE90D
:1052800006AB4BE0AFF3008061436F63A787D23F6B
:10529000B3C8608B288AC63FFB799F501344D33F25
:1052A0008D930008BC930008D8930008B0930008C1
:1052B0008C93000803F04CFA0022002304460D46AC
:1052C00003F0AEFC52465B46002840F08B8020463F
:1052D000294603F067FB03F0D5FC064603F0D2F93C
:1052E00052465B4603F034FA02460B4620462946F6
:1052F00003F07AF8303600230022C4F2240307F8C2
:10530000016C03F025FA00220023B84604460D463E
:1053100007F1010703F084FC002863D152465B4685
:105320002046294603F03EFB03F0ACFC064603F0A2
:10533000A9F952465B4603F00BFA02460B4620469B
:10534000294603F051F8DDF820C0002306F13008AB
:105350000022674507F8018C0446B8460D46C4F2A2
:10536000240307F10107A5D122462B4620462946F2
:1053700003F03CF804460D462246DDE906012B46C3
:1053800003F058FC40B9DDE9060122462B4603F044
:1053900047FC38B3F40725D518F801BC059AD34368
:1053A00008EB0300C00700F1FD841446BBF1390F80
:1053B00008F1FF3112D18C4200F0378511F801BCA1
:1053C000BBF1390F884601F1FF3107D111F801BC5B
:1053D0008846BBF1390F08F1FF31ECD00BF1010524
:1053E000EAB20A7048460C9901F04AFE099D2C9CCD
:1053F0006B1C2A9D002288F800202B60002C3FF4B3
:105400000DAEC4F8008009E6DDE9062320462946F2
:1054100003F0C8FA03F036FC064603F033F9DDE981
:10542000062303F095F902460B462046294602F072
:10543000DBFF303600230022C4F2240307F8016C9E
:1054400003F086F9B846059F0022002304460D4666
:10545000033703F0E5FB00283FF40FAFC2E7059ADE
:10546000D01CF3E50F9F002F00F02C81289C012C0D
:1054700040F3F2830B98109A411E8A42C0F2E084F6
:10548000551A0B980028C0F230860E9C0B9F0E9B7D
:10549000DDF828E0DA190EEB0708484601210E92E4
:1054A000CDF8288001F0BEFE0D9064B10A98002866
:1054B00009DD0E990746A742A8BF2746CB1BC21B92
:1054C0000E93E41B0A92109800281ADD0F9F002FFC
:1054D00000F0A384002D10DD0D992A46484602F005
:1054E00013F80D900D990C9A484601F0A5FE0C9901
:1054F0000646484601F0C4FD0C9610994A1B40F040
:10550000A5830121484601F08DFE119D002D07461F
:1055100005DD394648462A4601F0F6FF0746289B36
:10552000012B40F3528100251199002940F013848A
:1055300001230A995B1813F01F0000F0C880C0F126
:105540002003042B40F358860E9AC0F11C03D01898
:10555000C9180E90E4180A910E9B002B05DD4846F1
:105560000C990E9A02F01AF80C900A9A002A04DD9F
:105570003946484602F012F80746129A002A40F0CF
:10558000CF830B9B002B40F3F0830F98002840F053
:10559000B4800B9C0F9DE20740F1A083A2460C9EB5
:1055A000DDF8148010E001F075FD39460646FFF77E
:1055B00087FB303008F80400314648460A220023B1
:1055C00001F068FD651C064639463046FFF778FB5A
:1055D0006C1C00F1300B0A220023A24531464846DC
:1055E00008F805B0DFDC0C96DDF814800B9A002576
:1055F000012AACBF904408F1010801220C994846E9
:1056000001F0CCFF39460C9002F08CF8002840F3F2
:10561000498418F8012C0598C34308EB0301CB0714
:1056200007D5392A08F1FF3418D114F8012C059850
:10563000A046392A08F1FF3410D1A04200F0698356
:1056400014F8012C392AA04604F1FF3406D114F8CD
:10565000012CA046392A08F1FF34EED00132227025
:105660004846394601F00CFD0D9A002A3FF4BAAEC7
:10567000002D00F0E582954200F0E282484629467E
:1056800001F0FEFCDCE20122129255E5099802F0DD
:10569000F9FF22462B4603F0C3FA00287FF437AD0A
:1056A00009994B1E099332E50E9D099B0024E81AC7
:1056B0005A420E90109211944FE5764200220E96B7
:1056C0000A9240E50F9B109D0E9C0D93EDE61C2267
:1056D000DDF838C00A990CEB020E8818CDF838E0D6
:1056E000A4180A9038E74FF6EE30CFF6FF70841B0F
:1056F0000AFA04F0D6E412901EE5002C05DD4846B7
:105700000D99224601F04AFF0D90002D40F00284D1
:105710000D9E059D0B98059A29180AF001030D9D11
:10572000DDF830A00A91541C0B9339465046FFF720
:10573000C7FA29468046504601F0F4FF3946324602
:105740008346484602F01CF80246601ED168089065
:1057500008F1300C002900F0888248461146CDF847
:105760000CC001F08DFCDDF80CC00123BBF1000F73
:10577000C0F2788305D1289A1AB90B98002800F056
:105780007183002B00F3DE830A9B04F801CC9C425A
:10579000A04600F0E68351460A220023484601F065
:1057A00079FCB542824600F08F8229460A22002306
:1057B000484601F06FFC314605460A224846002360
:1057C00001F068FC01340646AFE7BAF1000F7FF440
:1057D000AAAECBF313025846002A40F09484002569
:1057E000C7F6F0750540002D3FF49EAE0E990A985D
:1057F0004B1C421C0E930A92012595E601210F9144
:10580000299B002B40F329831C4613930B93002103
:10581000172CC9F844100AD9012204235B0003F1B4
:10582000140011460132A042F8D9C9F84410484684
:1058300001F000FC0E2C0590C9F840003FF6CFACFB
:10584000002D3FF4CCAC099F002FCDE914AB40F301
:105850003D839A4807F00F0600EBC6013E11D1E9DF
:105860000045F10640F1F582954F50465946D7E97B
:10587000082303F097F806F00F0682468B460327AD
:1058800086B1DFF83C8220462946F20704D5D8E9E4
:10589000002302F05DFF0137761008F10808F4D10B
:1058A00004460D465046594622462B4603F07AF8E8
:1058B00082468B46129B53B1002350465946002224
:1058C000C3F6F07303F0B6F9002840F0248438469C
:1058D00002F0D8FE52465B4602F03AFF0023002257
:1058E000C4F21C0302F082FD04460B98A1F150752E
:1058F000002800F07582099E1B960B9E0F990029C7
:1059000000F038836D4A002102EBC60353E90223FD
:105910000020C3F6E07103F045F82B46224602F062
:1059200063FDCDE918015946504603F0ABF9054631
:1059300002F0A8FE02460B465046594602F054FDBE
:105940003035DDF81480CDE916015FFA85FB08F8E3
:1059500001BBDDE91801DDE9162303F089F9002810
:1059600040F01D840021DDE916230020C3F6F0710C
:1059700002F03AFD02460B46DDE9180103F078F922
:10598000002840F03284012E40F39C8205996FEA92
:1059900008078E19BC19002304F001050022C4F287
:1059A0002403DDE918011A96189502F0D1FE0023B0
:1059B0000022C4F2240304460D46DDE9160102F07C
:1059C000C7FE0F46064603F05DF9834602F05AFE15
:1059D00002460B463046394602F006FDC2460BF140
:1059E00030025FFA82FB0AF801BB22462B460646CC
:1059F0000F46D04603F01EF9002840F0E380002156
:105A000032463B460020C3F6F07102F0EDFC224620
:105A10002B4603F00FF9002840F0C783DDF868E05B
:105A2000F24500F04F821898002841D00023002250
:105A3000C4F224032046294602F08AFE00230022F5
:105A4000C4F2240304460D463046394602F080FE77
:105A50000F46064603F016F9804602F013FE024692
:105A60000B463046394602F0BFFC08F130035FFABE
:105A700083FB0AF801BB22462B4606460F46D0465A
:105A800003F0D8F8002840F09D80002132463B46C4
:105A90000020C3F6F07102F0A7FC22462B4603F06B
:105AA000C9F8002840F081831A998A4500F00A82DB
:105AB000CDF85890DDF8689051E000BFD893000809
:105AC000A094000800210020C3F6F07102F08CFCC5
:105AD00022462B4603F0AEF800230022C4F2240332
