:020000040800F2
:10000000FC07002089010008010700080D0700080F
:10001000150700081D07000825070008000000005C
:100020000000000000000000000000002D07000894
:1000300039070008000000004507000851070008C4
:10004000ED010008ED010008ED010008ED010008D8
:10005000ED010008ED010008ED010008ED010008C8
:10006000ED010008ED010008ED010008ED010008B8
:10007000ED010008ED010008ED010008ED010008A8
:10008000ED010008ED010008ED010008ED01000898
:10009000ED010008ED010008ED010008ED01000888
:1000A000ED010008ED010008ED010008ED01000878
:1000B000ED010008ED010008ED010008ED01000868
:1000C000ED010008ED010008ED010008ED01000858
:1000D000ED010008ED010008ED010008ED01000848
:1000E000ED010008ED010008ED010008ED01000838
:1000F000ED010008ED010008ED010008ED01000828
:10010000ED010008ED010008ED010008ED01000817
:10011000ED010008ED010008ED010008ED01000807
:10012000ED010008ED010008ED010008ED010008F7
:10013000ED010008ED010008ED010008ED010008E7
:10014000ED010008ED010008ED010008ED010008D7
:10015000ED010008ED010008ED010008ED010008C7
:10016000ED010008ED010008ED010008ED010008B7
:10017000ED010008ED010008ED010008ED010008A7
:10018000ED010008ED01000880B582B000AF124B10
:100190007B60124B3B600BE07B681A683B681A601F
:1001A0003B6803F104033B607B6803F104037B605D
:1001B0003A680B4B9A42EFD30A480B494FF00002C2
:1001C0008842B8BF40F8042BFADB00F03FF807F193
:1001D0000807BD4680BD00BF880A00080000002057
:1001E00000000020000000200000002080B400AFCC
:1001F000FEE700BF80B483B000AF03463960FB71F7
:1002000097F90730002B0DDA0E49FB7903F00F0345
:10021000A3F104033A68D2B24FEA0212D2B2CB1869
:100220001A760AE0084997F907303A68D2B24FEADD
:100230000212D2B2CB1883F8002307F10C07BD4697
:1002400080BC704700ED00E000E100E080B500AF49
:1002500000F00CF800F05CF800F078F86FF00400A3
:10026000014900F085F8FEE7A037A00080B584B012
:1002700002AF00F0B7F84FF0010000F0DBF800F03B
:10028000EDF80346FB71FB79012B3CD14FF00100E7
:1002900000F05CFB4FF0050000F048FB4FF0000061
:1002A00000F06EF94FF4805000F0A6F94FF4A05022
:1002B00000F084F94FF0070300934FF480004FF0F3
:1002C00008014FF4A8724FF0020300F0F9F84FF064
:1002D000010000F019F900BF4FF0390000F0CEF92D
:1002E0000346002BF8D04FF0020000F01DF900BFCC
:1002F00000F038F90346082BFAD14FF008004FF010
:10030000010100F099F907F10807BD4680BD00BF63
:1003100080B582B000AF4FF470433B604FF00203F2
:100320007B714FF001033B714FF00003BB714FF045
:100330000103FB713B460448194600F01DFA07F122
:100340000807BD4680BD00BF000C024080B582B0EA
:1003500000AF4FF000604FF0000100F07FFB07F1AD
:100360000403184600F00EFB07F10807BD4680BDE8
:1003700080B584B000AF786039603A686FF07F4331
:100380009A4202D94FF0010324E0154B3A6822F05B
:100390007F4202F1FF325A604FF0FF304FF0000110
:1003A000FFF728FF0E4B4FF000029A604FF0030357
:1003B000FB607B68042B04D1FB6843F00403FB6003
:1003C00003E0FB6863F00403FB60054BFA681A6006
:1003D0004FF00003184607F11007BD4680BD00BF6F
:1003E00010E000E080B400AF104B104A126842F0F9
:1003F00001021A600D4B4FF000029A600B4A0B4B42
:100400001B6823F0847323F480331360074B084A7E
:100410005A60064B054A126822F480221A60034B88
:100420004FF00002DA60BD4680BC704700380240E1
:100430001030002480B483B000AF0346FB71064B3C
:100440004FF000021A70044BFA791A7007F10C078A
:10045000BD4680BC704700BF0238024080B582B004
:1004600000AF4FF000033B604FF00003FB714FF013
:100470000003BB714FF0310000F000F90346BB717F
:100480003B6803F101033B603B68B3F5A06F02D00A
:10049000BB79002BEED04FF0310000F0EFF80346AF
:1004A000002B03D04FF00103FB7102E04FF000037B
:1004B000FB71FB79184607F10807BD4680BD00BFF8
:1004C00080B485B000AFF860B9607A603B600D4BD6
:1004D0007A684FEA8211BA6811433A684FEA5202C9
:1004E00002F1FF324FEA02421143FA681143BA693E
:1004F0004FEA026241EA02025A6007F11407BD4660
:1005000080BC70470038024080B483B000AF03461F
:10051000FB71044BFA791A6007F10C07BD4680BCE9
:10052000704700BF6000474280B485B000AF78607C
:100530004FF00003FB600A4B9B68FB60FB6823F0F5
:100540000303FB60FA687B6842EA0303FB60044B29
:10055000FA689A6007F11407BD4680BC704700BF77
:100560000038024080B400AF044B9B68DBB203F05C
:100570000C03DBB21846BD4680BC70470038024011
:1005800080B485B000AF78604FF00003FB600A4B89
:100590009B68FB60FB6823F0F003FB60FA687B68F4
:1005A00042EA0303FB60044BFA689A6007F1140700
:1005B000BD4680BC704700BF0038024080B485B0A3
:1005C00000AF78604FF00003FB600A4B9B68FB6054
:1005D000FB6823F4E053FB60FA687B6842EA03039C
:1005E000FB60044BFA689A6007F11407BD4680BCB3
:1005F000704700BF0038024080B485B000AF78601B
:100600004FF00003FB600B4B9B68FB60FB6823F41F
:100610006043FB607B684FEAC303FA6842EA030366
:10062000FB60044BFA689A6007F11407BD4680BC72
:10063000704700BF0038024080B483B000AF7860DC
:100640000B46FB70FB78002B07D00B4B0A4A116B53
:100650007A6841EA02021A6308E0074B064A116B06
:100660007A686FEA020201EA02021A6307F10C07D4
:10067000BD4680BC704700BF0038024080B487B0E0
:1006800000AF0346FB714FF00003FB604FF0000327
:100690007B614FF00003FB74FB794FEA5313DBB22D
:1006A000FB60FB68012B03D1144B1B687B6109E0E5
:1006B000FB68022B03D1114B1B6F7B6102E00F4BD8
:1006C0005B6F7B61FB7903F01F03FB60FB687A695A
:1006D00022FA03F303F00103DBB2002B03D04FF047
:1006E0000103FB7402E04FF00003FB74FB7C18462F
:1006F00007F11C07BD4680BC704700BF00380240B0
:1007000080B400AFBD4680BC704700BF80B400AF6E
:10071000FEE700BF80B400AFFEE700BF80B400AFCB
:10072000FEE700BF80B400AFFEE700BF80B400AFBB
:10073000BD4680BC704700BF80B400AFBD4680BCE2
:10074000704700BF80B400AFBD4680BC704700BF9B
:1007500080B500AF07484FF4004100F0B1F8034600
:10076000C3F10103DBB203484FF400411A4600F025
:10077000C5F880BD000C024080B487B000AF78603F
:1007800039604FF000037B614FF000033B614FF095
:100790000003FB604FF000037B6187E07B694FF053
:1007A000010202FA03F33B613B681A683B6902EA03
:1007B0000303FB60FA683B699A4273D17B681A684D
:1007C0007B694FEA43034FF0030101FA03F36FEA39
:1007D00003031A407B681A607B681A683B681B79C0
:1007E00019467B694FEA430301FA03F31A437B6816
:1007F0001A603B681B79012B03D03B681B79022BE5
:1008000034D17B689A687B694FEA43034FF0030158
:1008100001FA03F36FEA03031A407B689A607B686E
:100820009A683B685B7919467B694FEA430301FA92
:1008300003F31A437B689A607B685A687B699BB2B2
:100840004FF0010101FA03F36FEA03031A407B68DA
:100850005A607B685A683B689B7919467B699BB2F2
:1008600001FA03F39BB21A437B685A607B68DA682B
:100870007B699BB24FEA43034FF0030101FA03F394
:100880006FEA03031A407B68DA607B68DA683B68CA
:10089000DB7919467B694FEA430301FA03F31A43F4
:1008A0007B68DA607B6903F101037B617B690F2B55
:1008B0007FF674AF07F11C07BD4680BC704700BFD0
:1008C00080B485B000AF78600B467B804FF00003AA
:1008D000FB737B685A697B8802EA0303002B03D011
:1008E0004FF00103FB7302E04FF00003FB73FB7B4F
:1008F000184607F11407BD4680BC704780B483B02A
:1009000000AF786013460A467A807B707B78002BB4
:1009100003D07B687A881A8302E07B687A885A83DE
:1009200007F10C07BD4680BC704700BF80B483B0A0
:1009300000AF7860044B7A68D2B21A7007F10C07E6
:10094000BD4680BC704700BF003C024080B483B00D
:1009500000AF0346FB71FB79002B06D0084B084A19
:10096000126842F480721A6005E0054B044A12686E
:1009700022F480721A6007F10C07BD4680BC7047F4
:10098000003C024080B485B000AF78604FF00003B7
:10099000FB734FF00003BB734FF00F037B737B6857
:1009A000DB78002B3ED02B4BDB686FEA030303F4AC
:1009B000E0634FEA1323FB73FB7BC3F10403BB73B8
:1009C0007A7BFB7B42FA03F37B737B685B781A4686
:1009D000BB7B02FA03F3FB737B689A787B7B02EAAA
:1009E0000303DAB2FB7B42EA0303FB73FB7B4FEAB0
:1009F0000313FB73184A7B681B78D318FA7B83F8C0
:100A00000023154B7A6812784FEA5212D2B27968F5
:100A1000097801F01F014FF0010000FA01F143F8DD
:100A2000221011E00C4B7A6812784FEA5212D2B2BF
:100A30007968097801F01F014FF0010000FA01F117
:100A400002F1200243F8221007F11407BD4680BCD2
:100A5000704700BF00ED00E000E100E080B483B02B
:100A600000AF78603960074A3B6823F0604323F0A9
:100A70007F0379680B43936007F10C07BD4680BC88
:080A8000704700BF00ED00E02B
:0400000508000000EF
:00000001FF
